{
	"_format": "hh-sol-artifact-1",
	"contractName": "NFTMarketplace",
	"sourceName": "contracts/main.sol",
	"abi": [
		{
			"anonymous": false,
			"inputs": [
				{
					"indexed": false,
					"internalType": "address",
					"name": "bidder",
					"type": "address"
				},
				{
					"indexed": false,
					"internalType": "uint256",
					"name": "id",
					"type": "uint256"
				},
				{
					"indexed": false,
					"internalType": "uint256",
					"name": "bid",
					"type": "uint256"
				},
				{
					"indexed": false,
					"internalType": "uint256",
					"name": "index",
					"type": "uint256"
				}
			],
			"name": "BidAdded",
			"type": "event"
		},
		{
			"anonymous": false,
			"inputs": [
				{
					"indexed": false,
					"internalType": "address",
					"name": "bidder",
					"type": "address"
				},
				{
					"indexed": false,
					"internalType": "uint256",
					"name": "id",
					"type": "uint256"
				},
				{
					"indexed": false,
					"internalType": "uint256",
					"name": "bid",
					"type": "uint256"
				},
				{
					"indexed": false,
					"internalType": "uint256",
					"name": "index",
					"type": "uint256"
				}
			],
			"name": "BidRevoked",
			"type": "event"
		},
		{
			"anonymous": false,
			"inputs": [
				{
					"indexed": false,
					"internalType": "address",
					"name": "bidder",
					"type": "address"
				},
				{
					"indexed": false,
					"internalType": "uint256",
					"name": "id",
					"type": "uint256"
				},
				{
					"indexed": false,
					"internalType": "uint256",
					"name": "bid",
					"type": "uint256"
				},
				{
					"indexed": false,
					"internalType": "uint256",
					"name": "index",
					"type": "uint256"
				}
			],
			"name": "BidUpdated",
			"type": "event"
		},
		{
			"anonymous": false,
			"inputs": [
				{
					"indexed": false,
					"internalType": "address",
					"name": "bidder",
					"type": "address"
				},
				{
					"indexed": false,
					"internalType": "uint256",
					"name": "id",
					"type": "uint256"
				},
				{
					"indexed": false,
					"internalType": "uint256",
					"name": "bid",
					"type": "uint256"
				},
				{
					"indexed": false,
					"internalType": "uint256",
					"name": "index",
					"type": "uint256"
				}
			],
			"name": "BidWinner",
			"type": "event"
		},
		{
			"anonymous": false,
			"inputs": [
				{
					"indexed": false,
					"internalType": "uint256",
					"name": "id",
					"type": "uint256"
				},
				{
					"indexed": false,
					"internalType": "address",
					"name": "owner",
					"type": "address"
				},
				{
					"indexed": false,
					"internalType": "uint256",
					"name": "minAmount",
					"type": "uint256"
				},
				{
					"indexed": false,
					"internalType": "string",
					"name": "date",
					"type": "string"
				},
				{
					"indexed": false,
					"internalType": "bool",
					"name": "sold",
					"type": "bool"
				},
				{
					"indexed": false,
					"internalType": "uint256",
					"name": "highestBidderId",
					"type": "uint256"
				}
			],
			"name": "NewNFTListed",
			"type": "event"
		},
		{
			"anonymous": false,
			"inputs": [
				{
					"indexed": false,
					"internalType": "uint256",
					"name": "id",
					"type": "uint256"
				}
			],
			"name": "RemoveNFTListed",
			"type": "event"
		},
		{
			"anonymous": false,
			"inputs": [
				{
					"indexed": false,
					"internalType": "address",
					"name": "owner",
					"type": "address"
				},
				{
					"indexed": false,
					"internalType": "uint256",
					"name": "minAmount",
					"type": "uint256"
				},
				{
					"indexed": false,
					"internalType": "string",
					"name": "date",
					"type": "string"
				},
				{
					"indexed": false,
					"internalType": "bool",
					"name": "sold",
					"type": "bool"
				},
				{
					"indexed": false,
					"internalType": "uint256",
					"name": "highestBidderId",
					"type": "uint256"
				}
			],
			"name": "UpdateNFTListed",
			"type": "event"
		},
		{
			"inputs": [
				{
					"internalType": "uint256",
					"name": "_listingId",
					"type": "uint256"
				},
				{
					"internalType": "uint256",
					"name": "bid",
					"type": "uint256"
				}
			],
			"name": "addBid",
			"outputs": [],
			"stateMutability": "payable",
			"type": "function"
		},
		{
			"inputs": [
				{
					"internalType": "uint256",
					"name": "",
					"type": "uint256"
				},
				{
					"internalType": "uint256",
					"name": "",
					"type": "uint256"
				}
			],
			"name": "bids",
			"outputs": [
				{
					"internalType": "address",
					"name": "bidder",
					"type": "address"
				},
				{
					"internalType": "string",
					"name": "date",
					"type": "string"
				},
				{
					"internalType": "uint256",
					"name": "bid",
					"type": "uint256"
				},
				{
					"internalType": "uint256",
					"name": "index",
					"type": "uint256"
				}
			],
			"stateMutability": "view",
			"type": "function"
		},
		{
			"inputs": [
				{
					"internalType": "uint256",
					"name": "day",
					"type": "uint256"
				},
				{
					"internalType": "string",
					"name": "date",
					"type": "string"
				},
				{
					"internalType": "uint256",
					"name": "minAmount",
					"type": "uint256"
				}
			],
			"name": "createListing",
			"outputs": [],
			"stateMutability": "nonpayable",
			"type": "function"
		},
		{
			"inputs": [
				{
					"internalType": "uint256",
					"name": "_listingId",
					"type": "uint256"
				},
				{
					"internalType": "uint256",
					"name": "bidId",
					"type": "uint256"
				}
			],
			"name": "declareWinner",
			"outputs": [],
			"stateMutability": "nonpayable",
			"type": "function"
		},
		{
			"inputs": [
				{
					"internalType": "uint256",
					"name": "_listingId",
					"type": "uint256"
				}
			],
			"name": "deleteBid",
			"outputs": [],
			"stateMutability": "nonpayable",
			"type": "function"
		},
		{
			"inputs": [
				{
					"internalType": "uint256",
					"name": "_listingId",
					"type": "uint256"
				},
				{
					"internalType": "address",
					"name": "owner",
					"type": "address"
				}
			],
			"name": "findBid",
			"outputs": [
				{
					"internalType": "uint256",
					"name": "bidId",
					"type": "uint256"
				},
				{
					"internalType": "bool",
					"name": "found",
					"type": "bool"
				}
			],
			"stateMutability": "view",
			"type": "function"
		},
		{
			"inputs": [
				{
					"internalType": "uint256",
					"name": "_listingId",
					"type": "uint256"
				}
			],
			"name": "getBids",
			"outputs": [
				{
					"components": [
						{
							"internalType": "address",
							"name": "bidder",
							"type": "address"
						},
						{
							"internalType": "string",
							"name": "date",
							"type": "string"
						},
						{
							"internalType": "uint256",
							"name": "bid",
							"type": "uint256"
						},
						{
							"internalType": "uint256",
							"name": "index",
							"type": "uint256"
						}
					],
					"internalType": "struct Types.TokenBid[]",
					"name": "",
					"type": "tuple[]"
				}
			],
			"stateMutability": "view",
			"type": "function"
		},
		{
			"inputs": [
				{
					"internalType": "uint256",
					"name": "_listingId",
					"type": "uint256"
				}
			],
			"name": "getHighestBid",
			"outputs": [],
			"stateMutability": "nonpayable",
			"type": "function"
		},
		{
			"inputs": [
				{
					"internalType": "uint256",
					"name": "_listingId",
					"type": "uint256"
				}
			],
			"name": "getHighestBidReturn",
			"outputs": [
				{
					"components": [
						{
							"internalType": "address",
							"name": "bidder",
							"type": "address"
						},
						{
							"internalType": "string",
							"name": "date",
							"type": "string"
						},
						{
							"internalType": "uint256",
							"name": "bid",
							"type": "uint256"
						},
						{
							"internalType": "uint256",
							"name": "index",
							"type": "uint256"
						}
					],
					"internalType": "struct Types.TokenBid",
					"name": "bid",
					"type": "tuple"
				}
			],
			"stateMutability": "view",
			"type": "function"
		},
		{
			"inputs": [
				{
					"internalType": "uint256",
					"name": "_listingId",
					"type": "uint256"
				}
			],
			"name": "getLength",
			"outputs": [
				{
					"internalType": "uint256",
					"name": "count",
					"type": "uint256"
				}
			],
			"stateMutability": "view",
			"type": "function"
		},
		{
			"inputs": [
				{
					"internalType": "uint256",
					"name": "_listingId",
					"type": "uint256"
				}
			],
			"name": "getNFT",
			"outputs": [
				{
					"components": [
						{
							"internalType": "address",
							"name": "owner",
							"type": "address"
						},
						{
							"internalType": "uint256",
							"name": "minAmount",
							"type": "uint256"
						},
						{
							"internalType": "string",
							"name": "date",
							"type": "string"
						},
						{
							"internalType": "bool",
							"name": "sold",
							"type": "bool"
						},
						{
							"internalType": "uint256",
							"name": "highestBidderId",
							"type": "uint256"
						},
						{
							"internalType": "uint256",
							"name": "tokenId",
							"type": "uint256"
						}
					],
					"internalType": "struct Types.TokenOffered",
					"name": "",
					"type": "tuple"
				}
			],
			"stateMutability": "view",
			"type": "function"
		},
		{
			"inputs": [
				{
					"internalType": "uint256",
					"name": "",
					"type": "uint256"
				}
			],
			"name": "listings",
			"outputs": [
				{
					"internalType": "address",
					"name": "owner",
					"type": "address"
				},
				{
					"internalType": "uint256",
					"name": "minAmount",
					"type": "uint256"
				},
				{
					"internalType": "string",
					"name": "date",
					"type": "string"
				},
				{
					"internalType": "bool",
					"name": "sold",
					"type": "bool"
				},
				{
					"internalType": "uint256",
					"name": "highestBidderId",
					"type": "uint256"
				},
				{
					"internalType": "uint256",
					"name": "tokenId",
					"type": "uint256"
				}
			],
			"stateMutability": "view",
			"type": "function"
		},
		{
			"inputs": [
				{
					"internalType": "uint256",
					"name": "_listingId",
					"type": "uint256"
				},
				{
					"internalType": "uint256",
					"name": "bidAmount",
					"type": "uint256"
				}
			],
			"name": "updateBid",
			"outputs": [],
			"stateMutability": "payable",
			"type": "function"
		},
		{
			"inputs": [
				{
					"internalType": "uint256",
					"name": "_listingId",
					"type": "uint256"
				},
				{
					"internalType": "uint256",
					"name": "minAmount",
					"type": "uint256"
				},
				{
					"internalType": "bool",
					"name": "_sold",
					"type": "bool"
				}
			],
			"name": "updateNFT",
			"outputs": [
				{
					"internalType": "bool",
					"name": "",
					"type": "bool"
				}
			],
			"stateMutability": "nonpayable",
			"type": "function"
		}
	],
	"bytecode": "0x608060405234801561001057600080fd5b5060016000819055506139ae806100286000396000f3fe6080604052600436106100dd5760003560e01c80636aad2b001161007f5780638bebfca9116100595780638bebfca9146102f25780638f2886441461031b578063d4768d5e14610344578063de74e57b1461036d576100dd565b80636aad2b0014610237578063713366de146102755780637b3c4baa146102b2576100dd565b806321b23f04116100bb57806321b23f04146101855780632fef8029146101a1578063576f7ea7146101de57806360365e0c1461021b576100dd565b80630986e647146100e2578063131d9a271461011f5780631643c8c41461015c575b600080fd5b3480156100ee57600080fd5b5061010960048036038101906101049190612a2d565b6103af565b60405161011691906133f1565b60405180910390f35b34801561012b57600080fd5b5061014660048036038101906101419190612a2d565b6103cf565b6040516101539190613136565b60405180910390f35b34801561016857600080fd5b50610183600480360381019061017e9190612af9565b61053d565b005b61019f600480360381019061019a9190612af9565b610977565b005b3480156101ad57600080fd5b506101c860048036038101906101c39190612b35565b610d34565b6040516101d59190613158565b60405180910390f35b3480156101ea57600080fd5b5061020560048036038101906102009190612a2d565b610f7d565b60405161021291906133cf565b60405180910390f35b61023560048036038101906102309190612af9565b6110cb565b005b34801561024357600080fd5b5061025e60048036038101906102599190612a56565b611387565b60405161026c929190613474565b60405180910390f35b34801561028157600080fd5b5061029c60048036038101906102979190612a2d565b6115aa565b6040516102a991906133ad565b60405180910390f35b3480156102be57600080fd5b506102d960048036038101906102d49190612af9565b6118f1565b6040516102e99493929190612fe3565b60405180910390f35b3480156102fe57600080fd5b5061031960048036038101906103149190612a2d565b6119e6565b005b34801561032757600080fd5b50610342600480360381019061033d9190612a2d565b611d4c565b005b34801561035057600080fd5b5061036b60048036038101906103669190612a92565b61212a565b005b34801561037957600080fd5b50610394600480360381019061038f9190612a2d565b6123e8565b6040516103a69695949392919061302f565b60405180910390f35b600060036000838152602001908152602001600020805490509050919050565b606060036000838152602001908152602001600020805480602002602001604051908101604052809291908181526020016000905b8282101561053257838290600052602060002090600402016040518060800160405290816000820160009054906101000a900473ffffffffffffffffffffffffffffffffffffffff1673ffffffffffffffffffffffffffffffffffffffff1673ffffffffffffffffffffffffffffffffffffffff16815260200160018201805461048d9061362c565b80601f01602080910402602001604051908101604052809291908181526020018280546104b99061362c565b80156105065780601f106104db57610100808354040283529160200191610506565b820191906000526020600020905b8154815290600101906020018083116104e957829003601f168201915b505050505081526020016002820154815260200160038201548152505081526020019060010190610404565b505050509050919050565b600060036000848152602001908152602001600020828154811061058a577f4e487b7100000000000000000000000000000000000000000000000000000000600052603260045260246000fd5b90600052602060002090600402016040518060800160405290816000820160009054906101000a900473ffffffffffffffffffffffffffffffffffffffff1673ffffffffffffffffffffffffffffffffffffffff1673ffffffffffffffffffffffffffffffffffffffff1681526020016001820180546106099061362c565b80601f01602080910402602001604051908101604052809291908181526020018280546106359061362c565b80156106825780601f1061065757610100808354040283529160200191610682565b820191906000526020600020905b81548152906001019060200180831161066557829003601f168201915b5050505050815260200160028201548152602001600382015481525050905060016002600085815260200190815260200160002060030160006101000a81548160ff02191690831515021790555080600001516002600085815260200190815260200160002060000160006101000a81548173ffffffffffffffffffffffffffffffffffffffff021916908373ffffffffffffffffffffffffffffffffffffffff16021790555060005b600360008581526020019081526020016000208054905081101561092c573373ffffffffffffffffffffffffffffffffffffffff166003600086815260200190815260200160002082815481106107ac577f4e487b7100000000000000000000000000000000000000000000000000000000600052603260045260246000fd5b906000526020600020906004020160000160009054906101000a900473ffffffffffffffffffffffffffffffffffffffff1673ffffffffffffffffffffffffffffffffffffffff161461091957600360008581526020019081526020016000208181548110610844577f4e487b7100000000000000000000000000000000000000000000000000000000600052603260045260246000fd5b906000526020600020906004020160000160009054906101000a900473ffffffffffffffffffffffffffffffffffffffff1673ffffffffffffffffffffffffffffffffffffffff166108fc6003600087815260200190815260200160002083815481106108da577f4e487b7100000000000000000000000000000000000000000000000000000000600052603260045260246000fd5b9060005260206000209060040201600201549081150290604051600060405180830381858888f19350505050158015610917573d6000803e3d6000fd5b505b80806109249061368f565b91505061072c565b507fd5348def7cb47f378d627a48eb81297f7721037aadc5e13ad7f4c6647e42da1b81600001518483604001518560405161096a94939291906130f1565b60405180910390a1505050565b8034146109b9576040517f08c379a00000000000000000000000000000000000000000000000000000000081526004016109b09061338d565b60405180910390fd5b6002600083815260200190815260200160002060030160009054906101000a900460ff1615610a1d576040517f08c379a0000000000000000000000000000000000000000000000000000000008152600401610a149061334d565b60405180910390fd5b3373ffffffffffffffffffffffffffffffffffffffff166002600084815260200190815260200160002060000160009054906101000a900473ffffffffffffffffffffffffffffffffffffffff1673ffffffffffffffffffffffffffffffffffffffff161415610ac2576040517f08c379a0000000000000000000000000000000000000000000000000000000008152600401610ab99061328d565b60405180910390fd5b34600260008481526020019081526020016000206001015410610b1a576040517f08c379a0000000000000000000000000000000000000000000000000000000008152600401610b119061330d565b60405180910390fd5b60008060036000858152602001908152602001600020805490501415610b435760009050610b5d565b600360008481526020019081526020016000208054905090505b600060405180608001604052803373ffffffffffffffffffffffffffffffffffffffff168152602001600260008781526020019081526020016000206002018054610ba79061362c565b80601f0160208091040260200160405190810160405280929190818152602001828054610bd39061362c565b8015610c205780601f10610bf557610100808354040283529160200191610c20565b820191906000526020600020905b815481529060010190602001808311610c0357829003601f168201915b505050505081526020018481526020018381525090506003600085815260200190815260200160002081908060018154018082558091505060019003906000526020600020906004020160009091909190915060008201518160000160006101000a81548173ffffffffffffffffffffffffffffffffffffffff021916908373ffffffffffffffffffffffffffffffffffffffff1602179055506020820151816001019080519060200190610cd6929190612817565b50604082015181600201556060820151816003015550507f51f2abef6db943809a2415551e15aafa4334edcdaa8b68d668cee3bd113405883385858460600151604051610d2694939291906130f1565b60405180910390a150505050565b6000610dac6040518060400160405280601081526020017f557064617465204e465420257320257300000000000000000000000000000000815250336002600088815260200190815260200160002060000160009054906101000a900473ffffffffffffffffffffffffffffffffffffffff166124d9565b3373ffffffffffffffffffffffffffffffffffffffff166002600086815260200190815260200160002060000160009054906101000a900473ffffffffffffffffffffffffffffffffffffffff1673ffffffffffffffffffffffffffffffffffffffff1614610e50576040517f08c379a0000000000000000000000000000000000000000000000000000000008152600401610e479061328d565b60405180910390fd5b826002600086815260200190815260200160002060010181905550816002600086815260200190815260200160002060030160006101000a81548160ff0219169083151502179055507fb0339d94d8c3ab22df620b54a38c955bba11861229652cb9e8f1f513a48c81436002600086815260200190815260200160002060000160009054906101000a900473ffffffffffffffffffffffffffffffffffffffff166002600087815260200190815260200160002060010154600260008881526020019081526020016000206002016002600089815260200190815260200160002060030160009054906101000a900460ff16600260008a815260200190815260200160002060040154604051610f6a959493929190613097565b60405180910390a1600190509392505050565b610f8561289d565b600260008381526020019081526020016000206040518060c00160405290816000820160009054906101000a900473ffffffffffffffffffffffffffffffffffffffff1673ffffffffffffffffffffffffffffffffffffffff1673ffffffffffffffffffffffffffffffffffffffff168152602001600182015481526020016002820180546110139061362c565b80601f016020809104026020016040519081016040528092919081815260200182805461103f9061362c565b801561108c5780601f106110615761010080835404028352916020019161108c565b820191906000526020600020905b81548152906001019060200180831161106f57829003601f168201915b505050505081526020016003820160009054906101000a900460ff16151515158152602001600482015481526020016005820154815250509050919050565b6000806110d88433611387565b809250819350505080611120576040517f08c379a0000000000000000000000000000000000000000000000000000000008152600401611117906132ed565b60405180910390fd5b600060036000868152602001908152602001600020838154811061116d577f4e487b7100000000000000000000000000000000000000000000000000000000600052603260045260246000fd5b90600052602060002090600402019050806002015484116111c3576040517f08c379a00000000000000000000000000000000000000000000000000000000081526004016111ba9061332d565b60405180910390fd5b348160020154856111d4919061356e565b14611214576040517f08c379a000000000000000000000000000000000000000000000000000000000815260040161120b9061336d565b60405180910390fd5b8060000160009054906101000a900473ffffffffffffffffffffffffffffffffffffffff1673ffffffffffffffffffffffffffffffffffffffff163373ffffffffffffffffffffffffffffffffffffffff16146112a6576040517f08c379a000000000000000000000000000000000000000000000000000000000815260040161129d906132ad565b60405180910390fd5b61130e6040518060400160405280600581526020017f256420257300000000000000000000000000000000000000000000000000000081525082600201548360000160009054906101000a900473ffffffffffffffffffffffffffffffffffffffff16612578565b8381600201819055507f89b364be14234d1dcdb97559c44f619bdc1157c3c654af52c7851e31afa9aadd8160000160009054906101000a900473ffffffffffffffffffffffffffffffffffffffff16868360020154846003015460405161137894939291906130f1565b60405180910390a15050505050565b600080600060036000868152602001908152602001600020805480602002602001604051908101604052809291908181526020016000905b828210156114ed57838290600052602060002090600402016040518060800160405290816000820160009054906101000a900473ffffffffffffffffffffffffffffffffffffffff1673ffffffffffffffffffffffffffffffffffffffff1673ffffffffffffffffffffffffffffffffffffffff1681526020016001820180546114489061362c565b80601f01602080910402602001604051908101604052809291908181526020018280546114749061362c565b80156114c15780601f10611496576101008083540402835291602001916114c1565b820191906000526020600020905b8154815290600101906020018083116114a457829003601f168201915b5050505050815260200160028201548152602001600382015481525050815260200190600101906113bf565b50505050905060005b8151811015611598578473ffffffffffffffffffffffffffffffffffffffff1682828151811061154f577f4e487b7100000000000000000000000000000000000000000000000000000000600052603260045260246000fd5b60200260200101516000015173ffffffffffffffffffffffffffffffffffffffff161415611585578060019350935050506115a3565b80806115909061368f565b9150506114f6565b506000925060009150505b9250929050565b6115b26128eb565b600060036000848152602001908152602001600020805480602002602001604051908101604052809291908181526020016000905b8282101561171557838290600052602060002090600402016040518060800160405290816000820160009054906101000a900473ffffffffffffffffffffffffffffffffffffffff1673ffffffffffffffffffffffffffffffffffffffff1673ffffffffffffffffffffffffffffffffffffffff1681526020016001820180546116709061362c565b80601f016020809104026020016040519081016040528092919081815260200182805461169c9061362c565b80156116e95780601f106116be576101008083540402835291602001916116e9565b820191906000526020600020905b8154815290600101906020018083116116cc57829003601f168201915b5050505050815260200160028201548152602001600382015481525050815260200190600101906115e7565b5050505090506117236128eb565b60005b82518110156118e6576117f76040518060400160405280600a81526020017f25732025642062696473000000000000000000000000000000000000000000008152508483815181106117a1577f4e487b7100000000000000000000000000000000000000000000000000000000600052603260045260246000fd5b6020026020010151600001518584815181106117e6577f4e487b7100000000000000000000000000000000000000000000000000000000600052603260045260246000fd5b602002602001015160400151612617565b61183f6040518060400160405280600e81526020017f257320256420626964737373737300000000000000000000000000000000000081525083600001518460400151612617565b816040015183828151811061187d577f4e487b7100000000000000000000000000000000000000000000000000000000600052603260045260246000fd5b60200260200101516040015111156118d3578281815181106118c8577f4e487b7100000000000000000000000000000000000000000000000000000000600052603260045260246000fd5b602002602001015191505b80806118de9061368f565b915050611726565b508092505050919050565b6003602052816000526040600020818154811061190d57600080fd5b9060005260206000209060040201600091509150508060000160009054906101000a900473ffffffffffffffffffffffffffffffffffffffff16908060010180546119579061362c565b80601f01602080910402602001604051908101604052809291908181526020018280546119839061362c565b80156119d05780601f106119a5576101008083540402835291602001916119d0565b820191906000526020600020905b8154815290600101906020018083116119b357829003601f168201915b5050505050908060020154908060030154905084565b6000806119f38333611387565b809250819350505080611a3b576040517f08c379a0000000000000000000000000000000000000000000000000000000008152600401611a32906132ed565b60405180910390fd5b6000600360008581526020019081526020016000208381548110611a88577f4e487b7100000000000000000000000000000000000000000000000000000000600052603260045260246000fd5b906000526020600020906004020190508060000160009054906101000a900473ffffffffffffffffffffffffffffffffffffffff1673ffffffffffffffffffffffffffffffffffffffff163373ffffffffffffffffffffffffffffffffffffffff1614611b2a576040517f08c379a0000000000000000000000000000000000000000000000000000000008152600401611b21906132ad565b60405180910390fd5b611b6e6040518060400160405280600581526020017f25642025640000000000000000000000000000000000000000000000000000008152504783600201546126b6565b4781600201541115611bb5576040517f08c379a0000000000000000000000000000000000000000000000000000000008152600401611bac906132cd565b60405180910390fd5b3373ffffffffffffffffffffffffffffffffffffffff166108fc82600201549081150290604051600060405180830381858888f19350505050158015611bff573d6000803e3d6000fd5b50611c3e6040518060400160405280600b81526020017f4e6f742050726f626c656d000000000000000000000000000000000000000000815250612755565b600360008581526020019081526020016000208381548110611c89577f4e487b7100000000000000000000000000000000000000000000000000000000600052603260045260246000fd5b9060005260206000209060040201600080820160006101000a81549073ffffffffffffffffffffffffffffffffffffffff0219169055600182016000611ccf9190612929565b6002820160009055600382016000905550507fbbee5af4aac7e8d452fe09e6cb607c11d73729fa32b258a2cc37abbd1b979fb68160000160009054906101000a900473ffffffffffffffffffffffffffffffffffffffff1685836002015486604051611d3e94939291906130f1565b60405180910390a150505050565b600060036000838152602001908152602001600020805480602002602001604051908101604052809291908181526020016000905b82821015611eaf57838290600052602060002090600402016040518060800160405290816000820160009054906101000a900473ffffffffffffffffffffffffffffffffffffffff1673ffffffffffffffffffffffffffffffffffffffff1673ffffffffffffffffffffffffffffffffffffffff168152602001600182018054611e0a9061362c565b80601f0160208091040260200160405190810160405280929190818152602001828054611e369061362c565b8015611e835780601f10611e5857610100808354040283529160200191611e83565b820191906000526020600020905b815481529060010190602001808311611e6657829003601f168201915b505050505081526020016002820154815260200160038201548152505081526020019060010190611d81565b505050509050611ebd6128eb565b60005b825181101561208057611f916040518060400160405280600a81526020017f2573202564206269647300000000000000000000000000000000000000000000815250848381518110611f3b577f4e487b7100000000000000000000000000000000000000000000000000000000600052603260045260246000fd5b602002602001015160000151858481518110611f80577f4e487b7100000000000000000000000000000000000000000000000000000000600052603260045260246000fd5b602002602001015160400151612617565b611fd96040518060400160405280600e81526020017f257320256420626964737373737300000000000000000000000000000000000081525083600001518460400151612617565b8160400151838281518110612017577f4e487b7100000000000000000000000000000000000000000000000000000000600052603260045260246000fd5b602002602001015160400151111561206d57828181518110612062577f4e487b7100000000000000000000000000000000000000000000000000000000600052603260045260246000fd5b602002602001015191505b80806120789061368f565b915050611ec0565b506000600260008581526020019081526020016000209050816060015181600401819055507fb0339d94d8c3ab22df620b54a38c955bba11861229652cb9e8f1f513a48c81438160000160009054906101000a900473ffffffffffffffffffffffffffffffffffffffff168260010154836002018460030160009054906101000a900460ff16856004015460405161211c959493929190613097565b60405180910390a150505050565b6000600260008581526020019081526020016000206040518060c00160405290816000820160009054906101000a900473ffffffffffffffffffffffffffffffffffffffff1673ffffffffffffffffffffffffffffffffffffffff1673ffffffffffffffffffffffffffffffffffffffff168152602001600182015481526020016002820180546121ba9061362c565b80601f01602080910402602001604051908101604052809291908181526020018280546121e69061362c565b80156122335780601f1061220857610100808354040283529160200191612233565b820191906000526020600020905b81548152906001019060200180831161221657829003601f168201915b505050505081526020016003820160009054906101000a900460ff161515151581526020016004820154815260200160058201548152505090508281604001819052508181602001818152505033816000019073ffffffffffffffffffffffffffffffffffffffff16908173ffffffffffffffffffffffffffffffffffffffff168152505060008160600190151590811515815250506000816080018181525050806002600086815260200190815260200160002060008201518160000160006101000a81548173ffffffffffffffffffffffffffffffffffffffff021916908373ffffffffffffffffffffffffffffffffffffffff160217905550602082015181600101556040820151816002019080519060200190612355929190612817565b5060608201518160030160006101000a81548160ff0219169083151502179055506080820151816004015560a082015181600501559050507fb36cfae4de2a53d0698849e3ed66ebcecf14aaeff2bfe993d8999cd0d946135684826000015183602001518460400151856060015186608001516040516123da9695949392919061340c565b60405180910390a150505050565b60026020528060005260406000206000915090508060000160009054906101000a900473ffffffffffffffffffffffffffffffffffffffff16908060010154908060020180546124379061362c565b80601f01602080910402602001604051908101604052809291908181526020018280546124639061362c565b80156124b05780601f10612485576101008083540402835291602001916124b0565b820191906000526020600020905b81548152906001019060200180831161249357829003601f168201915b5050505050908060030160009054906101000a900460ff16908060040154908060050154905086565b6125738383836040516024016124f193929190613195565b6040516020818303038152906040527ffcec75e0000000000000000000000000000000000000000000000000000000007bffffffffffffffffffffffffffffffffffffffffffffffffffffffff19166020820180517bffffffffffffffffffffffffffffffffffffffffffffffffffffffff83818316178352505050506127ee565b505050565b61261283838360405160240161259093929190613211565b6040516020818303038152906040527fe3849f79000000000000000000000000000000000000000000000000000000007bffffffffffffffffffffffffffffffffffffffffffffffffffffffff19166020820180517bffffffffffffffffffffffffffffffffffffffffffffffffffffffff83818316178352505050506127ee565b505050565b6126b183838360405160240161262f939291906131d3565b6040516020818303038152906040527f07c81217000000000000000000000000000000000000000000000000000000007bffffffffffffffffffffffffffffffffffffffffffffffffffffffff19166020820180517bffffffffffffffffffffffffffffffffffffffffffffffffffffffff83818316178352505050506127ee565b505050565b6127508383836040516024016126ce9392919061324f565b6040516020818303038152906040527f969cdd03000000000000000000000000000000000000000000000000000000007bffffffffffffffffffffffffffffffffffffffffffffffffffffffff19166020820180517bffffffffffffffffffffffffffffffffffffffffffffffffffffffff83818316178352505050506127ee565b505050565b6127eb816040516024016127699190613173565b6040516020818303038152906040527f41304fac000000000000000000000000000000000000000000000000000000007bffffffffffffffffffffffffffffffffffffffffffffffffffffffff19166020820180517bffffffffffffffffffffffffffffffffffffffffffffffffffffffff83818316178352505050506127ee565b50565b60008151905060006a636f6e736f6c652e6c6f679050602083016000808483855afa5050505050565b8280546128239061362c565b90600052602060002090601f016020900481019282612845576000855561288c565b82601f1061285e57805160ff191683800117855561288c565b8280016001018555821561288c579182015b8281111561288b578251825591602001919060010190612870565b5b5090506128999190612969565b5090565b6040518060c00160405280600073ffffffffffffffffffffffffffffffffffffffff168152602001600081526020016060815260200160001515815260200160008152602001600081525090565b6040518060800160405280600073ffffffffffffffffffffffffffffffffffffffff1681526020016060815260200160008152602001600081525090565b5080546129359061362c565b6000825580601f106129475750612966565b601f0160209004906000526020600020908101906129659190612969565b5b50565b5b8082111561298257600081600090555060010161296a565b5090565b6000612999612994846134c2565b61349d565b9050828152602081018484840111156129b157600080fd5b6129bc8482856135ea565b509392505050565b6000813590506129d381613933565b92915050565b6000813590506129e88161394a565b92915050565b600082601f8301126129ff57600080fd5b8135612a0f848260208601612986565b91505092915050565b600081359050612a2781613961565b92915050565b600060208284031215612a3f57600080fd5b6000612a4d84828501612a18565b91505092915050565b60008060408385031215612a6957600080fd5b6000612a7785828601612a18565b9250506020612a88858286016129c4565b9150509250929050565b600080600060608486031215612aa757600080fd5b6000612ab586828701612a18565b935050602084013567ffffffffffffffff811115612ad257600080fd5b612ade868287016129ee565b9250506040612aef86828701612a18565b9150509250925092565b60008060408385031215612b0c57600080fd5b6000612b1a85828601612a18565b9250506020612b2b85828601612a18565b9150509250929050565b600080600060608486031215612b4a57600080fd5b6000612b5886828701612a18565b9350506020612b6986828701612a18565b9250506040612b7a868287016129d9565b9150509250925092565b6000612b908383612e76565b905092915050565b612ba1816135a2565b82525050565b612bb0816135a2565b82525050565b6000612bc182613518565b612bcb818561353b565b935083602082028501612bdd856134f3565b8060005b85811015612c195784840389528151612bfa8582612b84565b9450612c058361352e565b925060208a01995050600181019050612be1565b50829750879550505050505092915050565b612c34816135b4565b82525050565b612c43816135b4565b82525050565b6000612c5482613523565b612c5e818561354c565b9350612c6e8185602086016135f9565b612c7781613765565b840191505092915050565b6000612c8d82613523565b612c97818561355d565b9350612ca78185602086016135f9565b612cb081613765565b840191505092915050565b60008154612cc88161362c565b612cd2818661355d565b94506001821660008114612ced5760018114612cff57612d32565b60ff1983168652602086019350612d32565b612d0885613503565b60005b83811015612d2a57815481890152600182019150602081019050612d0b565b808801955050505b50505092915050565b6000612d4860288361355d565b9150612d5382613776565b604082019050919050565b6000612d6b60168361355d565b9150612d76826137c5565b602082019050919050565b6000612d8e60108361355d565b9150612d99826137ee565b602082019050919050565b6000612db1600d8361355d565b9150612dbc82613817565b602082019050919050565b6000612dd4600e8361355d565b9150612ddf82613840565b602082019050919050565b6000612df760278361355d565b9150612e0282613869565b604082019050919050565b6000612e1a600c8361355d565b9150612e25826138b8565b602082019050919050565b6000612e3d601f8361355d565b9150612e48826138e1565b602082019050919050565b6000612e60601f8361355d565b9150612e6b8261390a565b602082019050919050565b6000608083016000830151612e8e6000860182612b98565b5060208301518482036020860152612ea68282612c49565b9150506040830151612ebb6040860182612fc5565b506060830151612ece6060860182612fc5565b508091505092915050565b6000608083016000830151612ef16000860182612b98565b5060208301518482036020860152612f098282612c49565b9150506040830151612f1e6040860182612fc5565b506060830151612f316060860182612fc5565b508091505092915050565b600060c083016000830151612f546000860182612b98565b506020830151612f676020860182612fc5565b5060408301518482036040860152612f7f8282612c49565b9150506060830151612f946060860182612c2b565b506080830151612fa76080860182612fc5565b5060a0830151612fba60a0860182612fc5565b508091505092915050565b612fce816135e0565b82525050565b612fdd816135e0565b82525050565b6000608082019050612ff86000830187612ba7565b818103602083015261300a8186612c82565b90506130196040830185612fd4565b6130266060830184612fd4565b95945050505050565b600060c0820190506130446000830189612ba7565b6130516020830188612fd4565b81810360408301526130638187612c82565b90506130726060830186612c3a565b61307f6080830185612fd4565b61308c60a0830184612fd4565b979650505050505050565b600060a0820190506130ac6000830188612ba7565b6130b96020830187612fd4565b81810360408301526130cb8186612cbb565b90506130da6060830185612c3a565b6130e76080830184612fd4565b9695505050505050565b60006080820190506131066000830187612ba7565b6131136020830186612fd4565b6131206040830185612fd4565b61312d6060830184612fd4565b95945050505050565b600060208201905081810360008301526131508184612bb6565b905092915050565b600060208201905061316d6000830184612c3a565b92915050565b6000602082019050818103600083015261318d8184612c82565b905092915050565b600060608201905081810360008301526131af8186612c82565b90506131be6020830185612ba7565b6131cb6040830184612ba7565b949350505050565b600060608201905081810360008301526131ed8186612c82565b90506131fc6020830185612ba7565b6132096040830184612fd4565b949350505050565b6000606082019050818103600083015261322b8186612c82565b905061323a6020830185612fd4565b6132476040830184612ba7565b949350505050565b600060608201905081810360008301526132698186612c82565b90506132786020830185612fd4565b6132856040830184612fd4565b949350505050565b600060208201905081810360008301526132a681612d3b565b9050919050565b600060208201905081810360008301526132c681612d5e565b9050919050565b600060208201905081810360008301526132e681612d81565b9050919050565b6000602082019050818103600083015261330681612da4565b9050919050565b6000602082019050818103600083015261332681612dc7565b9050919050565b6000602082019050818103600083015261334681612dea565b9050919050565b6000602082019050818103600083015261336681612e0d565b9050919050565b6000602082019050818103600083015261338681612e30565b9050919050565b600060208201905081810360008301526133a681612e53565b9050919050565b600060208201905081810360008301526133c78184612ed9565b905092915050565b600060208201905081810360008301526133e98184612f3c565b905092915050565b60006020820190506134066000830184612fd4565b92915050565b600060c0820190506134216000830189612fd4565b61342e6020830188612ba7565b61343b6040830187612fd4565b818103606083015261344d8186612c82565b905061345c6080830185612c3a565b61346960a0830184612fd4565b979650505050505050565b60006040820190506134896000830185612fd4565b6134966020830184612c3a565b9392505050565b60006134a76134b8565b90506134b3828261365e565b919050565b6000604051905090565b600067ffffffffffffffff8211156134dd576134dc613736565b5b6134e682613765565b9050602081019050919050565b6000819050602082019050919050565b60008190508160005260206000209050919050565b600081519050919050565b600081519050919050565b6000602082019050919050565b600082825260208201905092915050565b600082825260208201905092915050565b600082825260208201905092915050565b6000613579826135e0565b9150613584836135e0565b925082821015613597576135966136d8565b5b828203905092915050565b60006135ad826135c0565b9050919050565b60008115159050919050565b600073ffffffffffffffffffffffffffffffffffffffff82169050919050565b6000819050919050565b82818337600083830152505050565b60005b838110156136175780820151818401526020810190506135fc565b83811115613626576000848401525b50505050565b6000600282049050600182168061364457607f821691505b6020821081141561365857613657613707565b5b50919050565b61366782613765565b810181811067ffffffffffffffff8211171561368657613685613736565b5b80604052505050565b600061369a826135e0565b91507fffffffffffffffffffffffffffffffffffffffffffffffffffffffffffffffff8214156136cd576136cc6136d8565b5b600182019050919050565b7f4e487b7100000000000000000000000000000000000000000000000000000000600052601160045260246000fd5b7f4e487b7100000000000000000000000000000000000000000000000000000000600052602260045260246000fd5b7f4e487b7100000000000000000000000000000000000000000000000000000000600052604160045260246000fd5b6000601f19601f8301169050919050565b7f596f75206e6f74206f776e6572207468656e207768792073656e64696e67207460008201527f6869732073686974000000000000000000000000000000000000000000000000602082015250565b7f596f7520617265206e6f74207468652062696464657200000000000000000000600082015250565b7f42616c616e6365206973206c6f77657200000000000000000000000000000000600082015250565b7f426964206e6f7420666f756e6400000000000000000000000000000000000000600082015250565b7f53656e6420736f6d65206d6f7265000000000000000000000000000000000000600082015250565b7f4269642073686f756c642062652067726561746572207468616e20707265766960008201527f6f75732062696400000000000000000000000000000000000000000000000000602082015250565b7f416c726561647920536f6c640000000000000000000000000000000000000000600082015250565b7f53656e6420457861637420446966666572656e6365206f6620416d6f756e7400600082015250565b7f53656e642073616d6520616d6f756e74206f6620657468657220746f206d6500600082015250565b61393c816135a2565b811461394757600080fd5b50565b613953816135b4565b811461395e57600080fd5b50565b61396a816135e0565b811461397557600080fd5b5056fea2646970667358221220c69467d9dc719c8878eb303c798c96a5c8c996484a8b53eacfb1b67f4e5a5f6a64736f6c63430008040033",
	"linkReferences": {},
	"deployedLinkReferences": {}
}