{
	"_format": "hh-sol-artifact-1",
	"contractName": "NFTMarketplace",
	"sourceName": "contracts/main.sol",
	"abi": [
		{
			"anonymous": false,
			"inputs": [
				{
					"indexed": false,
					"internalType": "address",
					"name": "bidder",
					"type": "address"
				},
				{
					"indexed": false,
					"internalType": "uint256",
					"name": "id",
					"type": "uint256"
				},
				{
					"indexed": false,
					"internalType": "uint256",
					"name": "bid",
					"type": "uint256"
				},
				{
					"indexed": false,
					"internalType": "uint256",
					"name": "index",
					"type": "uint256"
				}
			],
			"name": "BidAdded",
			"type": "event"
		},
		{
			"anonymous": false,
			"inputs": [
				{
					"indexed": false,
					"internalType": "address",
					"name": "bidder",
					"type": "address"
				},
				{
					"indexed": false,
					"internalType": "uint256",
					"name": "id",
					"type": "uint256"
				},
				{
					"indexed": false,
					"internalType": "uint256",
					"name": "bid",
					"type": "uint256"
				},
				{
					"indexed": false,
					"internalType": "uint256",
					"name": "index",
					"type": "uint256"
				}
			],
			"name": "BidRevoked",
			"type": "event"
		},
		{
			"anonymous": false,
			"inputs": [
				{
					"indexed": false,
					"internalType": "address",
					"name": "bidder",
					"type": "address"
				},
				{
					"indexed": false,
					"internalType": "uint256",
					"name": "id",
					"type": "uint256"
				},
				{
					"indexed": false,
					"internalType": "uint256",
					"name": "bid",
					"type": "uint256"
				},
				{
					"indexed": false,
					"internalType": "uint256",
					"name": "index",
					"type": "uint256"
				}
			],
			"name": "BidUpdated",
			"type": "event"
		},
		{
			"anonymous": false,
			"inputs": [
				{
					"indexed": false,
					"internalType": "address",
					"name": "bidder",
					"type": "address"
				},
				{
					"indexed": false,
					"internalType": "uint256",
					"name": "id",
					"type": "uint256"
				},
				{
					"indexed": false,
					"internalType": "uint256",
					"name": "bid",
					"type": "uint256"
				},
				{
					"indexed": false,
					"internalType": "uint256",
					"name": "index",
					"type": "uint256"
				}
			],
			"name": "BidWinner",
			"type": "event"
		},
		{
			"anonymous": false,
			"inputs": [
				{
					"indexed": false,
					"internalType": "uint256",
					"name": "id",
					"type": "uint256"
				},
				{
					"indexed": false,
					"internalType": "address",
					"name": "owner",
					"type": "address"
				},
				{
					"indexed": false,
					"internalType": "uint256",
					"name": "minAmount",
					"type": "uint256"
				},
				{
					"indexed": false,
					"internalType": "string",
					"name": "date",
					"type": "string"
				},
				{
					"indexed": false,
					"internalType": "bool",
					"name": "sold",
					"type": "bool"
				},
				{
					"indexed": false,
					"internalType": "uint256",
					"name": "highestBidderId",
					"type": "uint256"
				}
			],
			"name": "NewNFTListed",
			"type": "event"
		},
		{
			"anonymous": false,
			"inputs": [
				{
					"indexed": false,
					"internalType": "uint256",
					"name": "id",
					"type": "uint256"
				}
			],
			"name": "RemoveNFTListed",
			"type": "event"
		},
		{
			"anonymous": false,
			"inputs": [
				{
					"indexed": false,
					"internalType": "address",
					"name": "owner",
					"type": "address"
				},
				{
					"indexed": false,
					"internalType": "uint256",
					"name": "minAmount",
					"type": "uint256"
				},
				{
					"indexed": false,
					"internalType": "string",
					"name": "date",
					"type": "string"
				},
				{
					"indexed": false,
					"internalType": "bool",
					"name": "sold",
					"type": "bool"
				},
				{
					"indexed": false,
					"internalType": "uint256",
					"name": "highestBidderId",
					"type": "uint256"
				}
			],
			"name": "UpdateNFTListed",
			"type": "event"
		},
		{
			"inputs": [
				{
					"internalType": "uint256",
					"name": "_listingId",
					"type": "uint256"
				},
				{
					"internalType": "uint256",
					"name": "bid",
					"type": "uint256"
				}
			],
			"name": "addBid",
			"outputs": [],
			"stateMutability": "payable",
			"type": "function"
		},
		{
			"inputs": [
				{
					"internalType": "uint256",
					"name": "",
					"type": "uint256"
				},
				{
					"internalType": "uint256",
					"name": "",
					"type": "uint256"
				}
			],
			"name": "bids",
			"outputs": [
				{
					"internalType": "address",
					"name": "bidder",
					"type": "address"
				},
				{
					"internalType": "string",
					"name": "date",
					"type": "string"
				},
				{
					"internalType": "uint256",
					"name": "bid",
					"type": "uint256"
				},
				{
					"internalType": "uint256",
					"name": "index",
					"type": "uint256"
				}
			],
			"stateMutability": "view",
			"type": "function"
		},
		{
			"inputs": [
				{
					"internalType": "uint256",
					"name": "day",
					"type": "uint256"
				},
				{
					"internalType": "string",
					"name": "date",
					"type": "string"
				},
				{
					"internalType": "uint256",
					"name": "minAmount",
					"type": "uint256"
				}
			],
			"name": "createListing",
			"outputs": [],
			"stateMutability": "nonpayable",
			"type": "function"
		},
		{
			"inputs": [
				{
					"internalType": "uint256",
					"name": "_listingId",
					"type": "uint256"
				},
				{
					"internalType": "uint256",
					"name": "bidId",
					"type": "uint256"
				}
			],
			"name": "declareWinner",
			"outputs": [],
			"stateMutability": "nonpayable",
			"type": "function"
		},
		{
			"inputs": [
				{
					"internalType": "uint256",
					"name": "_listingId",
					"type": "uint256"
				}
			],
			"name": "deleteBid",
			"outputs": [],
			"stateMutability": "nonpayable",
			"type": "function"
		},
		{
			"inputs": [
				{
					"internalType": "uint256",
					"name": "_listingId",
					"type": "uint256"
				},
				{
					"internalType": "address",
					"name": "owner",
					"type": "address"
				}
			],
			"name": "findBid",
			"outputs": [
				{
					"internalType": "uint256",
					"name": "bidId",
					"type": "uint256"
				},
				{
					"internalType": "bool",
					"name": "found",
					"type": "bool"
				}
			],
			"stateMutability": "view",
			"type": "function"
		},
		{
			"inputs": [
				{
					"internalType": "uint256",
					"name": "_listingId",
					"type": "uint256"
				},
				{
					"internalType": "uint256",
					"name": "bidId",
					"type": "uint256"
				}
			],
			"name": "getBid",
			"outputs": [
				{
					"components": [
						{
							"internalType": "address",
							"name": "bidder",
							"type": "address"
						},
						{
							"internalType": "string",
							"name": "date",
							"type": "string"
						},
						{
							"internalType": "uint256",
							"name": "bid",
							"type": "uint256"
						},
						{
							"internalType": "uint256",
							"name": "index",
							"type": "uint256"
						}
					],
					"internalType": "struct Types.TokenBid",
					"name": "bid",
					"type": "tuple"
				}
			],
			"stateMutability": "view",
			"type": "function"
		},
		{
			"inputs": [
				{
					"internalType": "uint256",
					"name": "_listingId",
					"type": "uint256"
				}
			],
			"name": "getBids",
			"outputs": [
				{
					"components": [
						{
							"internalType": "address",
							"name": "bidder",
							"type": "address"
						},
						{
							"internalType": "string",
							"name": "date",
							"type": "string"
						},
						{
							"internalType": "uint256",
							"name": "bid",
							"type": "uint256"
						},
						{
							"internalType": "uint256",
							"name": "index",
							"type": "uint256"
						}
					],
					"internalType": "struct Types.TokenBid[]",
					"name": "",
					"type": "tuple[]"
				}
			],
			"stateMutability": "view",
			"type": "function"
		},
		{
			"inputs": [
				{
					"internalType": "uint256",
					"name": "_listingId",
					"type": "uint256"
				}
			],
			"name": "getHighestBid",
			"outputs": [],
			"stateMutability": "nonpayable",
			"type": "function"
		},
		{
			"inputs": [
				{
					"internalType": "uint256",
					"name": "_listingId",
					"type": "uint256"
				}
			],
			"name": "getHighestBidReturn",
			"outputs": [
				{
					"components": [
						{
							"internalType": "address",
							"name": "bidder",
							"type": "address"
						},
						{
							"internalType": "string",
							"name": "date",
							"type": "string"
						},
						{
							"internalType": "uint256",
							"name": "bid",
							"type": "uint256"
						},
						{
							"internalType": "uint256",
							"name": "index",
							"type": "uint256"
						}
					],
					"internalType": "struct Types.TokenBid",
					"name": "bid",
					"type": "tuple"
				}
			],
			"stateMutability": "view",
			"type": "function"
		},
		{
			"inputs": [
				{
					"internalType": "uint256",
					"name": "_listingId",
					"type": "uint256"
				}
			],
			"name": "getLength",
			"outputs": [
				{
					"internalType": "uint256",
					"name": "count",
					"type": "uint256"
				}
			],
			"stateMutability": "view",
			"type": "function"
		},
		{
			"inputs": [
				{
					"internalType": "uint256",
					"name": "_listingId",
					"type": "uint256"
				}
			],
			"name": "getNFT",
			"outputs": [
				{
					"components": [
						{
							"internalType": "address",
							"name": "owner",
							"type": "address"
						},
						{
							"internalType": "uint256",
							"name": "minAmount",
							"type": "uint256"
						},
						{
							"internalType": "string",
							"name": "date",
							"type": "string"
						},
						{
							"internalType": "bool",
							"name": "sold",
							"type": "bool"
						},
						{
							"internalType": "uint256",
							"name": "highestBidderId",
							"type": "uint256"
						},
						{
							"internalType": "uint256",
							"name": "tokenId",
							"type": "uint256"
						}
					],
					"internalType": "struct Types.TokenOffered",
					"name": "",
					"type": "tuple"
				}
			],
			"stateMutability": "view",
			"type": "function"
		},
		{
			"inputs": [
				{
					"internalType": "uint256",
					"name": "",
					"type": "uint256"
				}
			],
			"name": "listings",
			"outputs": [
				{
					"internalType": "address",
					"name": "owner",
					"type": "address"
				},
				{
					"internalType": "uint256",
					"name": "minAmount",
					"type": "uint256"
				},
				{
					"internalType": "string",
					"name": "date",
					"type": "string"
				},
				{
					"internalType": "bool",
					"name": "sold",
					"type": "bool"
				},
				{
					"internalType": "uint256",
					"name": "highestBidderId",
					"type": "uint256"
				},
				{
					"internalType": "uint256",
					"name": "tokenId",
					"type": "uint256"
				}
			],
			"stateMutability": "view",
			"type": "function"
		},
		{
			"inputs": [
				{
					"internalType": "uint256",
					"name": "_listingId",
					"type": "uint256"
				},
				{
					"internalType": "uint256",
					"name": "bidAmount",
					"type": "uint256"
				}
			],
			"name": "updateBid",
			"outputs": [],
			"stateMutability": "payable",
			"type": "function"
		},
		{
			"inputs": [
				{
					"internalType": "uint256",
					"name": "_listingId",
					"type": "uint256"
				},
				{
					"internalType": "uint256",
					"name": "minAmount",
					"type": "uint256"
				},
				{
					"internalType": "bool",
					"name": "_sold",
					"type": "bool"
				}
			],
			"name": "updateNFT",
			"outputs": [
				{
					"internalType": "bool",
					"name": "",
					"type": "bool"
				}
			],
			"stateMutability": "nonpayable",
			"type": "function"
		}
	],
	"bytecode": "0x608060405234801561001057600080fd5b506001600081905550613cb9806100286000396000f3fe6080604052600436106100e85760003560e01c806360365e0c1161008a5780638bebfca9116100595780638bebfca91461033a5780638f28864414610363578063d4768d5e1461038c578063de74e57b146103b5576100e8565b806360365e0c146102635780636aad2b001461027f578063713366de146102bd5780637b3c4baa146102fa576100e8565b806321b23f04116100c657806321b23f04146101905780632fef8029146101ac578063576f7ea7146101e9578063582c7ffd14610226576100e8565b80630986e647146100ed578063131d9a271461012a5780631643c8c414610167575b600080fd5b3480156100f957600080fd5b50610114600480360381019061010f9190612d08565b6103f7565b60405161012191906136fc565b60405180910390f35b34801561013657600080fd5b50610151600480360381019061014c9190612d08565b610417565b60405161015e9190613411565b60405180910390f35b34801561017357600080fd5b5061018e60048036038101906101899190612dd4565b610585565b005b6101aa60048036038101906101a59190612dd4565b6109bf565b005b3480156101b857600080fd5b506101d360048036038101906101ce9190612e10565b610dbb565b6040516101e09190613433565b60405180910390f35b3480156101f557600080fd5b50610210600480360381019061020b9190612d08565b611004565b60405161021d91906136da565b60405180910390f35b34801561023257600080fd5b5061024d60048036038101906102489190612dd4565b611152565b60405161025a91906136b8565b60405180910390f35b61027d60048036038101906102789190612dd4565b6112c2565b005b34801561028b57600080fd5b506102a660048036038101906102a19190612d31565b61157e565b6040516102b492919061377f565b60405180910390f35b3480156102c957600080fd5b506102e460048036038101906102df9190612d08565b6117a1565b6040516102f191906136b8565b60405180910390f35b34801561030657600080fd5b50610321600480360381019061031c9190612dd4565b611ae8565b60405161033194939291906132be565b60405180910390f35b34801561034657600080fd5b50610361600480360381019061035c9190612d08565b611bdd565b005b34801561036f57600080fd5b5061038a60048036038101906103859190612d08565b611f43565b005b34801561039857600080fd5b506103b360048036038101906103ae9190612d6d565b612369565b005b3480156103c157600080fd5b506103dc60048036038101906103d79190612d08565b612627565b6040516103ee9695949392919061330a565b60405180910390f35b600060036000838152602001908152602001600020805490509050919050565b606060036000838152602001908152602001600020805480602002602001604051908101604052809291908181526020016000905b8282101561057a57838290600052602060002090600402016040518060800160405290816000820160009054906101000a900473ffffffffffffffffffffffffffffffffffffffff1673ffffffffffffffffffffffffffffffffffffffff1673ffffffffffffffffffffffffffffffffffffffff1681526020016001820180546104d590613937565b80601f016020809104026020016040519081016040528092919081815260200182805461050190613937565b801561054e5780601f106105235761010080835404028352916020019161054e565b820191906000526020600020905b81548152906001019060200180831161053157829003601f168201915b50505050508152602001600282015481526020016003820154815250508152602001906001019061044c565b505050509050919050565b60006003600084815260200190815260200160002082815481106105d2577f4e487b7100000000000000000000000000000000000000000000000000000000600052603260045260246000fd5b90600052602060002090600402016040518060800160405290816000820160009054906101000a900473ffffffffffffffffffffffffffffffffffffffff1673ffffffffffffffffffffffffffffffffffffffff1673ffffffffffffffffffffffffffffffffffffffff16815260200160018201805461065190613937565b80601f016020809104026020016040519081016040528092919081815260200182805461067d90613937565b80156106ca5780601f1061069f576101008083540402835291602001916106ca565b820191906000526020600020905b8154815290600101906020018083116106ad57829003601f168201915b5050505050815260200160028201548152602001600382015481525050905060016002600085815260200190815260200160002060030160006101000a81548160ff02191690831515021790555080600001516002600085815260200190815260200160002060000160006101000a81548173ffffffffffffffffffffffffffffffffffffffff021916908373ffffffffffffffffffffffffffffffffffffffff16021790555060005b6003600085815260200190815260200160002080549050811015610974573373ffffffffffffffffffffffffffffffffffffffff166003600086815260200190815260200160002082815481106107f4577f4e487b7100000000000000000000000000000000000000000000000000000000600052603260045260246000fd5b906000526020600020906004020160000160009054906101000a900473ffffffffffffffffffffffffffffffffffffffff1673ffffffffffffffffffffffffffffffffffffffff16146109615760036000858152602001908152602001600020818154811061088c577f4e487b7100000000000000000000000000000000000000000000000000000000600052603260045260246000fd5b906000526020600020906004020160000160009054906101000a900473ffffffffffffffffffffffffffffffffffffffff1673ffffffffffffffffffffffffffffffffffffffff166108fc600360008781526020019081526020016000208381548110610922577f4e487b7100000000000000000000000000000000000000000000000000000000600052603260045260246000fd5b9060005260206000209060040201600201549081150290604051600060405180830381858888f1935050505015801561095f573d6000803e3d6000fd5b505b808061096c9061399a565b915050610774565b507fd5348def7cb47f378d627a48eb81297f7721037aadc5e13ad7f4c6647e42da1b8160000151848360400151856040516109b294939291906133cc565b60405180910390a1505050565b803414610a01576040517f08c379a00000000000000000000000000000000000000000000000000000000081526004016109f890613698565b60405180910390fd5b6002600083815260200190815260200160002060030160009054906101000a900460ff1615610a65576040517f08c379a0000000000000000000000000000000000000000000000000000000008152600401610a5c90613658565b60405180910390fd5b3373ffffffffffffffffffffffffffffffffffffffff166002600084815260200190815260200160002060000160009054906101000a900473ffffffffffffffffffffffffffffffffffffffff1673ffffffffffffffffffffffffffffffffffffffff161415610b0a576040517f08c379a0000000000000000000000000000000000000000000000000000000008152600401610b0190613598565b60405180910390fd5b34600260008481526020019081526020016000206001015410610b62576040517f08c379a0000000000000000000000000000000000000000000000000000000008152600401610b5990613618565b60405180910390fd5b60008060036000858152602001908152602001600020805490501415610b8b5760009050610ba5565b600360008481526020019081526020016000208054905090505b610be46040518060400160405280600281526020017f256400000000000000000000000000000000000000000000000000000000000081525082612718565b600060405180608001604052803373ffffffffffffffffffffffffffffffffffffffff168152602001600260008781526020019081526020016000206002018054610c2e90613937565b80601f0160208091040260200160405190810160405280929190818152602001828054610c5a90613937565b8015610ca75780601f10610c7c57610100808354040283529160200191610ca7565b820191906000526020600020905b815481529060010190602001808311610c8a57829003601f168201915b505050505081526020018481526020018381525090506003600085815260200190815260200160002081908060018154018082558091505060019003906000526020600020906004020160009091909190915060008201518160000160006101000a81548173ffffffffffffffffffffffffffffffffffffffff021916908373ffffffffffffffffffffffffffffffffffffffff1602179055506020820151816001019080519060200190610d5d929190612af2565b50604082015181600201556060820151816003015550507f51f2abef6db943809a2415551e15aafa4334edcdaa8b68d668cee3bd113405883385858460600151604051610dad94939291906133cc565b60405180910390a150505050565b6000610e336040518060400160405280601081526020017f557064617465204e465420257320257300000000000000000000000000000000815250336002600088815260200190815260200160002060000160009054906101000a900473ffffffffffffffffffffffffffffffffffffffff166127b4565b3373ffffffffffffffffffffffffffffffffffffffff166002600086815260200190815260200160002060000160009054906101000a900473ffffffffffffffffffffffffffffffffffffffff1673ffffffffffffffffffffffffffffffffffffffff1614610ed7576040517f08c379a0000000000000000000000000000000000000000000000000000000008152600401610ece90613598565b60405180910390fd5b826002600086815260200190815260200160002060010181905550816002600086815260200190815260200160002060030160006101000a81548160ff0219169083151502179055507fb0339d94d8c3ab22df620b54a38c955bba11861229652cb9e8f1f513a48c81436002600086815260200190815260200160002060000160009054906101000a900473ffffffffffffffffffffffffffffffffffffffff166002600087815260200190815260200160002060010154600260008881526020019081526020016000206002016002600089815260200190815260200160002060030160009054906101000a900460ff16600260008a815260200190815260200160002060040154604051610ff1959493929190613372565b60405180910390a1600190509392505050565b61100c612b78565b600260008381526020019081526020016000206040518060c00160405290816000820160009054906101000a900473ffffffffffffffffffffffffffffffffffffffff1673ffffffffffffffffffffffffffffffffffffffff1673ffffffffffffffffffffffffffffffffffffffff1681526020016001820154815260200160028201805461109a90613937565b80601f01602080910402602001604051908101604052809291908181526020018280546110c690613937565b80156111135780601f106110e857610100808354040283529160200191611113565b820191906000526020600020905b8154815290600101906020018083116110f657829003601f168201915b505050505081526020016003820160009054906101000a900460ff16151515158152602001600482015481526020016005820154815250509050919050565b61115a612bc6565b6003600084815260200190815260200160002082815481106111a5577f4e487b7100000000000000000000000000000000000000000000000000000000600052603260045260246000fd5b90600052602060002090600402016040518060800160405290816000820160009054906101000a900473ffffffffffffffffffffffffffffffffffffffff1673ffffffffffffffffffffffffffffffffffffffff1673ffffffffffffffffffffffffffffffffffffffff16815260200160018201805461122490613937565b80601f016020809104026020016040519081016040528092919081815260200182805461125090613937565b801561129d5780601f106112725761010080835404028352916020019161129d565b820191906000526020600020905b81548152906001019060200180831161128057829003601f168201915b5050505050815260200160028201548152602001600382015481525050905092915050565b6000806112cf843361157e565b809250819350505080611317576040517f08c379a000000000000000000000000000000000000000000000000000000000815260040161130e906135f8565b60405180910390fd5b6000600360008681526020019081526020016000208381548110611364577f4e487b7100000000000000000000000000000000000000000000000000000000600052603260045260246000fd5b90600052602060002090600402019050806002015484116113ba576040517f08c379a00000000000000000000000000000000000000000000000000000000081526004016113b190613638565b60405180910390fd5b348160020154856113cb9190613879565b1461140b576040517f08c379a000000000000000000000000000000000000000000000000000000000815260040161140290613678565b60405180910390fd5b8060000160009054906101000a900473ffffffffffffffffffffffffffffffffffffffff1673ffffffffffffffffffffffffffffffffffffffff163373ffffffffffffffffffffffffffffffffffffffff161461149d576040517f08c379a0000000000000000000000000000000000000000000000000000000008152600401611494906135b8565b60405180910390fd5b6115056040518060400160405280600581526020017f256420257300000000000000000000000000000000000000000000000000000081525082600201548360000160009054906101000a900473ffffffffffffffffffffffffffffffffffffffff16612853565b8381600201819055507f89b364be14234d1dcdb97559c44f619bdc1157c3c654af52c7851e31afa9aadd8160000160009054906101000a900473ffffffffffffffffffffffffffffffffffffffff16868360020154846003015460405161156f94939291906133cc565b60405180910390a15050505050565b600080600060036000868152602001908152602001600020805480602002602001604051908101604052809291908181526020016000905b828210156116e457838290600052602060002090600402016040518060800160405290816000820160009054906101000a900473ffffffffffffffffffffffffffffffffffffffff1673ffffffffffffffffffffffffffffffffffffffff1673ffffffffffffffffffffffffffffffffffffffff16815260200160018201805461163f90613937565b80601f016020809104026020016040519081016040528092919081815260200182805461166b90613937565b80156116b85780601f1061168d576101008083540402835291602001916116b8565b820191906000526020600020905b81548152906001019060200180831161169b57829003601f168201915b5050505050815260200160028201548152602001600382015481525050815260200190600101906115b6565b50505050905060005b815181101561178f578473ffffffffffffffffffffffffffffffffffffffff16828281518110611746577f4e487b7100000000000000000000000000000000000000000000000000000000600052603260045260246000fd5b60200260200101516000015173ffffffffffffffffffffffffffffffffffffffff16141561177c5780600193509350505061179a565b80806117879061399a565b9150506116ed565b506000925060009150505b9250929050565b6117a9612bc6565b600060036000848152602001908152602001600020805480602002602001604051908101604052809291908181526020016000905b8282101561190c57838290600052602060002090600402016040518060800160405290816000820160009054906101000a900473ffffffffffffffffffffffffffffffffffffffff1673ffffffffffffffffffffffffffffffffffffffff1673ffffffffffffffffffffffffffffffffffffffff16815260200160018201805461186790613937565b80601f016020809104026020016040519081016040528092919081815260200182805461189390613937565b80156118e05780601f106118b5576101008083540402835291602001916118e0565b820191906000526020600020905b8154815290600101906020018083116118c357829003601f168201915b5050505050815260200160028201548152602001600382015481525050815260200190600101906117de565b50505050905061191a612bc6565b60005b8251811015611add576119ee6040518060400160405280600a81526020017f2573202564206269647300000000000000000000000000000000000000000000815250848381518110611998577f4e487b7100000000000000000000000000000000000000000000000000000000600052603260045260246000fd5b6020026020010151600001518584815181106119dd577f4e487b7100000000000000000000000000000000000000000000000000000000600052603260045260246000fd5b6020026020010151604001516128f2565b611a366040518060400160405280600e81526020017f2573202564206269647373737373000000000000000000000000000000000000815250836000015184604001516128f2565b8160400151838281518110611a74577f4e487b7100000000000000000000000000000000000000000000000000000000600052603260045260246000fd5b6020026020010151604001511115611aca57828181518110611abf577f4e487b7100000000000000000000000000000000000000000000000000000000600052603260045260246000fd5b602002602001015191505b8080611ad59061399a565b91505061191d565b508092505050919050565b60036020528160005260406000208181548110611b0457600080fd5b9060005260206000209060040201600091509150508060000160009054906101000a900473ffffffffffffffffffffffffffffffffffffffff1690806001018054611b4e90613937565b80601f0160208091040260200160405190810160405280929190818152602001828054611b7a90613937565b8015611bc75780601f10611b9c57610100808354040283529160200191611bc7565b820191906000526020600020905b815481529060010190602001808311611baa57829003601f168201915b5050505050908060020154908060030154905084565b600080611bea833361157e565b809250819350505080611c32576040517f08c379a0000000000000000000000000000000000000000000000000000000008152600401611c29906135f8565b60405180910390fd5b6000600360008581526020019081526020016000208381548110611c7f577f4e487b7100000000000000000000000000000000000000000000000000000000600052603260045260246000fd5b906000526020600020906004020190508060000160009054906101000a900473ffffffffffffffffffffffffffffffffffffffff1673ffffffffffffffffffffffffffffffffffffffff163373ffffffffffffffffffffffffffffffffffffffff1614611d21576040517f08c379a0000000000000000000000000000000000000000000000000000000008152600401611d18906135b8565b60405180910390fd5b611d656040518060400160405280600581526020017f2564202564000000000000000000000000000000000000000000000000000000815250478360020154612991565b4781600201541115611dac576040517f08c379a0000000000000000000000000000000000000000000000000000000008152600401611da3906135d8565b60405180910390fd5b3373ffffffffffffffffffffffffffffffffffffffff166108fc82600201549081150290604051600060405180830381858888f19350505050158015611df6573d6000803e3d6000fd5b50611e356040518060400160405280600b81526020017f4e6f742050726f626c656d000000000000000000000000000000000000000000815250612a30565b600360008581526020019081526020016000208381548110611e80577f4e487b7100000000000000000000000000000000000000000000000000000000600052603260045260246000fd5b9060005260206000209060040201600080820160006101000a81549073ffffffffffffffffffffffffffffffffffffffff0219169055600182016000611ec69190612c04565b6002820160009055600382016000905550507fbbee5af4aac7e8d452fe09e6cb607c11d73729fa32b258a2cc37abbd1b979fb68160000160009054906101000a900473ffffffffffffffffffffffffffffffffffffffff1685836002015486604051611f3594939291906133cc565b60405180910390a150505050565b600060036000838152602001908152602001600020805480602002602001604051908101604052809291908181526020016000905b828210156120a657838290600052602060002090600402016040518060800160405290816000820160009054906101000a900473ffffffffffffffffffffffffffffffffffffffff1673ffffffffffffffffffffffffffffffffffffffff1673ffffffffffffffffffffffffffffffffffffffff16815260200160018201805461200190613937565b80601f016020809104026020016040519081016040528092919081815260200182805461202d90613937565b801561207a5780601f1061204f5761010080835404028352916020019161207a565b820191906000526020600020905b81548152906001019060200180831161205d57829003601f168201915b505050505081526020016002820154815260200160038201548152505081526020019060010190611f78565b5050505090506120b4612bc6565b60005b8251811015612277576121886040518060400160405280600a81526020017f2573202564206269647300000000000000000000000000000000000000000000815250848381518110612132577f4e487b7100000000000000000000000000000000000000000000000000000000600052603260045260246000fd5b602002602001015160000151858481518110612177577f4e487b7100000000000000000000000000000000000000000000000000000000600052603260045260246000fd5b6020026020010151604001516128f2565b6121d06040518060400160405280600e81526020017f2573202564206269647373737373000000000000000000000000000000000000815250836000015184604001516128f2565b816040015183828151811061220e577f4e487b7100000000000000000000000000000000000000000000000000000000600052603260045260246000fd5b602002602001015160400151111561226457828181518110612259577f4e487b7100000000000000000000000000000000000000000000000000000000600052603260045260246000fd5b602002602001015191505b808061226f9061399a565b9150506120b7565b506122c06040518060400160405280600a81526020017f2573202564206c61737400000000000000000000000000000000000000000000815250826000015183604001516128f2565b6000600260008581526020019081526020016000209050816060015181600401819055507fb0339d94d8c3ab22df620b54a38c955bba11861229652cb9e8f1f513a48c81438160000160009054906101000a900473ffffffffffffffffffffffffffffffffffffffff168260010154836002018460030160009054906101000a900460ff16856004015460405161235b959493929190613372565b60405180910390a150505050565b6000600260008581526020019081526020016000206040518060c00160405290816000820160009054906101000a900473ffffffffffffffffffffffffffffffffffffffff1673ffffffffffffffffffffffffffffffffffffffff1673ffffffffffffffffffffffffffffffffffffffff168152602001600182015481526020016002820180546123f990613937565b80601f016020809104026020016040519081016040528092919081815260200182805461242590613937565b80156124725780601f1061244757610100808354040283529160200191612472565b820191906000526020600020905b81548152906001019060200180831161245557829003601f168201915b505050505081526020016003820160009054906101000a900460ff161515151581526020016004820154815260200160058201548152505090508281604001819052508181602001818152505033816000019073ffffffffffffffffffffffffffffffffffffffff16908173ffffffffffffffffffffffffffffffffffffffff168152505060008160600190151590811515815250506000816080018181525050806002600086815260200190815260200160002060008201518160000160006101000a81548173ffffffffffffffffffffffffffffffffffffffff021916908373ffffffffffffffffffffffffffffffffffffffff160217905550602082015181600101556040820151816002019080519060200190612594929190612af2565b5060608201518160030160006101000a81548160ff0219169083151502179055506080820151816004015560a082015181600501559050507fb36cfae4de2a53d0698849e3ed66ebcecf14aaeff2bfe993d8999cd0d9461356848260000151836020015184604001518560600151866080015160405161261996959493929190613717565b60405180910390a150505050565b60026020528060005260406000206000915090508060000160009054906101000a900473ffffffffffffffffffffffffffffffffffffffff169080600101549080600201805461267690613937565b80601f01602080910402602001604051908101604052809291908181526020018280546126a290613937565b80156126ef5780601f106126c4576101008083540402835291602001916126ef565b820191906000526020600020905b8154815290600101906020018083116126d257829003601f168201915b5050505050908060030160009054906101000a900460ff16908060040154908060050154905086565b6127b0828260405160240161272e9291906134ec565b6040516020818303038152906040527f9710a9d0000000000000000000000000000000000000000000000000000000007bffffffffffffffffffffffffffffffffffffffffffffffffffffffff19166020820180517bffffffffffffffffffffffffffffffffffffffffffffffffffffffff8381831617835250505050612ac9565b5050565b61284e8383836040516024016127cc93929190613470565b6040516020818303038152906040527ffcec75e0000000000000000000000000000000000000000000000000000000007bffffffffffffffffffffffffffffffffffffffffffffffffffffffff19166020820180517bffffffffffffffffffffffffffffffffffffffffffffffffffffffff8381831617835250505050612ac9565b505050565b6128ed83838360405160240161286b9392919061351c565b6040516020818303038152906040527fe3849f79000000000000000000000000000000000000000000000000000000007bffffffffffffffffffffffffffffffffffffffffffffffffffffffff19166020820180517bffffffffffffffffffffffffffffffffffffffffffffffffffffffff8381831617835250505050612ac9565b505050565b61298c83838360405160240161290a939291906134ae565b6040516020818303038152906040527f07c81217000000000000000000000000000000000000000000000000000000007bffffffffffffffffffffffffffffffffffffffffffffffffffffffff19166020820180517bffffffffffffffffffffffffffffffffffffffffffffffffffffffff8381831617835250505050612ac9565b505050565b612a2b8383836040516024016129a99392919061355a565b6040516020818303038152906040527f969cdd03000000000000000000000000000000000000000000000000000000007bffffffffffffffffffffffffffffffffffffffffffffffffffffffff19166020820180517bffffffffffffffffffffffffffffffffffffffffffffffffffffffff8381831617835250505050612ac9565b505050565b612ac681604051602401612a44919061344e565b6040516020818303038152906040527f41304fac000000000000000000000000000000000000000000000000000000007bffffffffffffffffffffffffffffffffffffffffffffffffffffffff19166020820180517bffffffffffffffffffffffffffffffffffffffffffffffffffffffff8381831617835250505050612ac9565b50565b60008151905060006a636f6e736f6c652e6c6f679050602083016000808483855afa5050505050565b828054612afe90613937565b90600052602060002090601f016020900481019282612b205760008555612b67565b82601f10612b3957805160ff1916838001178555612b67565b82800160010185558215612b67579182015b82811115612b66578251825591602001919060010190612b4b565b5b509050612b749190612c44565b5090565b6040518060c00160405280600073ffffffffffffffffffffffffffffffffffffffff168152602001600081526020016060815260200160001515815260200160008152602001600081525090565b6040518060800160405280600073ffffffffffffffffffffffffffffffffffffffff1681526020016060815260200160008152602001600081525090565b508054612c1090613937565b6000825580601f10612c225750612c41565b601f016020900490600052602060002090810190612c409190612c44565b5b50565b5b80821115612c5d576000816000905550600101612c45565b5090565b6000612c74612c6f846137cd565b6137a8565b905082815260208101848484011115612c8c57600080fd5b612c978482856138f5565b509392505050565b600081359050612cae81613c3e565b92915050565b600081359050612cc381613c55565b92915050565b600082601f830112612cda57600080fd5b8135612cea848260208601612c61565b91505092915050565b600081359050612d0281613c6c565b92915050565b600060208284031215612d1a57600080fd5b6000612d2884828501612cf3565b91505092915050565b60008060408385031215612d4457600080fd5b6000612d5285828601612cf3565b9250506020612d6385828601612c9f565b9150509250929050565b600080600060608486031215612d8257600080fd5b6000612d9086828701612cf3565b935050602084013567ffffffffffffffff811115612dad57600080fd5b612db986828701612cc9565b9250506040612dca86828701612cf3565b9150509250925092565b60008060408385031215612de757600080fd5b6000612df585828601612cf3565b9250506020612e0685828601612cf3565b9150509250929050565b600080600060608486031215612e2557600080fd5b6000612e3386828701612cf3565b9350506020612e4486828701612cf3565b9250506040612e5586828701612cb4565b9150509250925092565b6000612e6b8383613151565b905092915050565b612e7c816138ad565b82525050565b612e8b816138ad565b82525050565b6000612e9c82613823565b612ea68185613846565b935083602082028501612eb8856137fe565b8060005b85811015612ef45784840389528151612ed58582612e5f565b9450612ee083613839565b925060208a01995050600181019050612ebc565b50829750879550505050505092915050565b612f0f816138bf565b82525050565b612f1e816138bf565b82525050565b6000612f2f8261382e565b612f398185613857565b9350612f49818560208601613904565b612f5281613a70565b840191505092915050565b6000612f688261382e565b612f728185613868565b9350612f82818560208601613904565b612f8b81613a70565b840191505092915050565b60008154612fa381613937565b612fad8186613868565b94506001821660008114612fc85760018114612fda5761300d565b60ff198316865260208601935061300d565b612fe38561380e565b60005b8381101561300557815481890152600182019150602081019050612fe6565b808801955050505b50505092915050565b6000613023602883613868565b915061302e82613a81565b604082019050919050565b6000613046601683613868565b915061305182613ad0565b602082019050919050565b6000613069601083613868565b915061307482613af9565b602082019050919050565b600061308c600d83613868565b915061309782613b22565b602082019050919050565b60006130af600e83613868565b91506130ba82613b4b565b602082019050919050565b60006130d2602783613868565b91506130dd82613b74565b604082019050919050565b60006130f5600c83613868565b915061310082613bc3565b602082019050919050565b6000613118601f83613868565b915061312382613bec565b602082019050919050565b600061313b601f83613868565b915061314682613c15565b602082019050919050565b60006080830160008301516131696000860182612e73565b50602083015184820360208601526131818282612f24565b915050604083015161319660408601826132a0565b5060608301516131a960608601826132a0565b508091505092915050565b60006080830160008301516131cc6000860182612e73565b50602083015184820360208601526131e48282612f24565b91505060408301516131f960408601826132a0565b50606083015161320c60608601826132a0565b508091505092915050565b600060c08301600083015161322f6000860182612e73565b50602083015161324260208601826132a0565b506040830151848203604086015261325a8282612f24565b915050606083015161326f6060860182612f06565b50608083015161328260808601826132a0565b5060a083015161329560a08601826132a0565b508091505092915050565b6132a9816138eb565b82525050565b6132b8816138eb565b82525050565b60006080820190506132d36000830187612e82565b81810360208301526132e58186612f5d565b90506132f460408301856132af565b61330160608301846132af565b95945050505050565b600060c08201905061331f6000830189612e82565b61332c60208301886132af565b818103604083015261333e8187612f5d565b905061334d6060830186612f15565b61335a60808301856132af565b61336760a08301846132af565b979650505050505050565b600060a0820190506133876000830188612e82565b61339460208301876132af565b81810360408301526133a68186612f96565b90506133b56060830185612f15565b6133c260808301846132af565b9695505050505050565b60006080820190506133e16000830187612e82565b6133ee60208301866132af565b6133fb60408301856132af565b61340860608301846132af565b95945050505050565b6000602082019050818103600083015261342b8184612e91565b905092915050565b60006020820190506134486000830184612f15565b92915050565b600060208201905081810360008301526134688184612f5d565b905092915050565b6000606082019050818103600083015261348a8186612f5d565b90506134996020830185612e82565b6134a66040830184612e82565b949350505050565b600060608201905081810360008301526134c88186612f5d565b90506134d76020830185612e82565b6134e460408301846132af565b949350505050565b600060408201905081810360008301526135068185612f5d565b905061351560208301846132af565b9392505050565b600060608201905081810360008301526135368186612f5d565b905061354560208301856132af565b6135526040830184612e82565b949350505050565b600060608201905081810360008301526135748186612f5d565b905061358360208301856132af565b61359060408301846132af565b949350505050565b600060208201905081810360008301526135b181613016565b9050919050565b600060208201905081810360008301526135d181613039565b9050919050565b600060208201905081810360008301526135f18161305c565b9050919050565b600060208201905081810360008301526136118161307f565b9050919050565b60006020820190508181036000830152613631816130a2565b9050919050565b60006020820190508181036000830152613651816130c5565b9050919050565b60006020820190508181036000830152613671816130e8565b9050919050565b600060208201905081810360008301526136918161310b565b9050919050565b600060208201905081810360008301526136b18161312e565b9050919050565b600060208201905081810360008301526136d281846131b4565b905092915050565b600060208201905081810360008301526136f48184613217565b905092915050565b600060208201905061371160008301846132af565b92915050565b600060c08201905061372c60008301896132af565b6137396020830188612e82565b61374660408301876132af565b81810360608301526137588186612f5d565b90506137676080830185612f15565b61377460a08301846132af565b979650505050505050565b600060408201905061379460008301856132af565b6137a16020830184612f15565b9392505050565b60006137b26137c3565b90506137be8282613969565b919050565b6000604051905090565b600067ffffffffffffffff8211156137e8576137e7613a41565b5b6137f182613a70565b9050602081019050919050565b6000819050602082019050919050565b60008190508160005260206000209050919050565b600081519050919050565b600081519050919050565b6000602082019050919050565b600082825260208201905092915050565b600082825260208201905092915050565b600082825260208201905092915050565b6000613884826138eb565b915061388f836138eb565b9250828210156138a2576138a16139e3565b5b828203905092915050565b60006138b8826138cb565b9050919050565b60008115159050919050565b600073ffffffffffffffffffffffffffffffffffffffff82169050919050565b6000819050919050565b82818337600083830152505050565b60005b83811015613922578082015181840152602081019050613907565b83811115613931576000848401525b50505050565b6000600282049050600182168061394f57607f821691505b6020821081141561396357613962613a12565b5b50919050565b61397282613a70565b810181811067ffffffffffffffff8211171561399157613990613a41565b5b80604052505050565b60006139a5826138eb565b91507fffffffffffffffffffffffffffffffffffffffffffffffffffffffffffffffff8214156139d8576139d76139e3565b5b600182019050919050565b7f4e487b7100000000000000000000000000000000000000000000000000000000600052601160045260246000fd5b7f4e487b7100000000000000000000000000000000000000000000000000000000600052602260045260246000fd5b7f4e487b7100000000000000000000000000000000000000000000000000000000600052604160045260246000fd5b6000601f19601f8301169050919050565b7f596f75206e6f74206f776e6572207468656e207768792073656e64696e67207460008201527f6869732073686974000000000000000000000000000000000000000000000000602082015250565b7f596f7520617265206e6f74207468652062696464657200000000000000000000600082015250565b7f42616c616e6365206973206c6f77657200000000000000000000000000000000600082015250565b7f426964206e6f7420666f756e6400000000000000000000000000000000000000600082015250565b7f53656e6420736f6d65206d6f7265000000000000000000000000000000000000600082015250565b7f4269642073686f756c642062652067726561746572207468616e20707265766960008201527f6f75732062696400000000000000000000000000000000000000000000000000602082015250565b7f416c726561647920536f6c640000000000000000000000000000000000000000600082015250565b7f53656e6420457861637420446966666572656e6365206f6620416d6f756e7400600082015250565b7f53656e642073616d6520616d6f756e74206f6620657468657220746f206d6500600082015250565b613c47816138ad565b8114613c5257600080fd5b50565b613c5e816138bf565b8114613c6957600080fd5b50565b613c75816138eb565b8114613c8057600080fd5b5056fea2646970667358221220e8db9e8dab8e19f43bf8ff8120c560354f5f3273993025cbd68f1acd0f593ee164736f6c63430008040033",
	"linkReferences": {},
	"deployedLinkReferences": {}
}