{
	"_format": "hh-sol-artifact-1",
	"contractName": "NFTMarketplace",
	"sourceName": "contracts/main.sol",
	"abi": [
		{
			"anonymous": false,
			"inputs": [
				{
					"indexed": false,
					"internalType": "address",
					"name": "bidder",
					"type": "address"
				},
				{
					"indexed": false,
					"internalType": "uint256",
					"name": "id",
					"type": "uint256"
				},
				{
					"indexed": false,
					"internalType": "uint256",
					"name": "bid",
					"type": "uint256"
				},
				{
					"indexed": false,
					"internalType": "uint256",
					"name": "index",
					"type": "uint256"
				}
			],
			"name": "BidAdded",
			"type": "event"
		},
		{
			"anonymous": false,
			"inputs": [
				{
					"indexed": false,
					"internalType": "address",
					"name": "bidder",
					"type": "address"
				},
				{
					"indexed": false,
					"internalType": "uint256",
					"name": "id",
					"type": "uint256"
				},
				{
					"indexed": false,
					"internalType": "uint256",
					"name": "bid",
					"type": "uint256"
				},
				{
					"indexed": false,
					"internalType": "uint256",
					"name": "index",
					"type": "uint256"
				}
			],
			"name": "BidRevoked",
			"type": "event"
		},
		{
			"anonymous": false,
			"inputs": [
				{
					"indexed": false,
					"internalType": "address",
					"name": "bidder",
					"type": "address"
				},
				{
					"indexed": false,
					"internalType": "uint256",
					"name": "id",
					"type": "uint256"
				},
				{
					"indexed": false,
					"internalType": "uint256",
					"name": "bid",
					"type": "uint256"
				},
				{
					"indexed": false,
					"internalType": "uint256",
					"name": "index",
					"type": "uint256"
				}
			],
			"name": "BidUpdated",
			"type": "event"
		},
		{
			"anonymous": false,
			"inputs": [
				{
					"indexed": false,
					"internalType": "address",
					"name": "bidder",
					"type": "address"
				},
				{
					"indexed": false,
					"internalType": "uint256",
					"name": "id",
					"type": "uint256"
				},
				{
					"indexed": false,
					"internalType": "uint256",
					"name": "bid",
					"type": "uint256"
				},
				{
					"indexed": false,
					"internalType": "uint256",
					"name": "index",
					"type": "uint256"
				}
			],
			"name": "BidWinner",
			"type": "event"
		},
		{
			"anonymous": false,
			"inputs": [
				{
					"indexed": false,
					"internalType": "uint256",
					"name": "id",
					"type": "uint256"
				},
				{
					"indexed": false,
					"internalType": "address",
					"name": "owner",
					"type": "address"
				},
				{
					"indexed": false,
					"internalType": "uint256",
					"name": "minAmount",
					"type": "uint256"
				},
				{
					"indexed": false,
					"internalType": "address",
					"name": "tokenContract",
					"type": "address"
				},
				{
					"indexed": false,
					"internalType": "bool",
					"name": "sold",
					"type": "bool"
				},
				{
					"indexed": false,
					"internalType": "uint256",
					"name": "highestBidderId",
					"type": "uint256"
				}
			],
			"name": "NewNFTListed",
			"type": "event"
		},
		{
			"anonymous": false,
			"inputs": [
				{
					"indexed": false,
					"internalType": "uint256",
					"name": "id",
					"type": "uint256"
				}
			],
			"name": "RemoveNFTListed",
			"type": "event"
		},
		{
			"anonymous": false,
			"inputs": [
				{
					"indexed": false,
					"internalType": "address",
					"name": "owner",
					"type": "address"
				},
				{
					"indexed": false,
					"internalType": "uint256",
					"name": "minAmount",
					"type": "uint256"
				},
				{
					"indexed": false,
					"internalType": "address",
					"name": "tokenContract",
					"type": "address"
				},
				{
					"indexed": false,
					"internalType": "bool",
					"name": "sold",
					"type": "bool"
				},
				{
					"indexed": false,
					"internalType": "uint256",
					"name": "highestBidderId",
					"type": "uint256"
				}
			],
			"name": "UpdateNFTListed",
			"type": "event"
		},
		{
			"inputs": [
				{
					"internalType": "uint256",
					"name": "_listingId",
					"type": "uint256"
				},
				{
					"internalType": "uint256",
					"name": "bid",
					"type": "uint256"
				}
			],
			"name": "addBid",
			"outputs": [],
			"stateMutability": "payable",
			"type": "function"
		},
		{
			"inputs": [
				{
					"internalType": "uint256",
					"name": "",
					"type": "uint256"
				},
				{
					"internalType": "uint256",
					"name": "",
					"type": "uint256"
				}
			],
			"name": "bids",
			"outputs": [
				{
					"internalType": "address",
					"name": "bidder",
					"type": "address"
				},
				{
					"internalType": "address",
					"name": "tokenContract",
					"type": "address"
				},
				{
					"internalType": "uint256",
					"name": "bid",
					"type": "uint256"
				},
				{
					"internalType": "uint256",
					"name": "index",
					"type": "uint256"
				}
			],
			"stateMutability": "view",
			"type": "function"
		},
		{
			"inputs": [
				{
					"internalType": "uint256",
					"name": "_listingId",
					"type": "uint256"
				},
				{
					"internalType": "uint256",
					"name": "bidId",
					"type": "uint256"
				}
			],
			"name": "declareWinner",
			"outputs": [],
			"stateMutability": "nonpayable",
			"type": "function"
		},
		{
			"inputs": [
				{
					"internalType": "uint256",
					"name": "_listingId",
					"type": "uint256"
				}
			],
			"name": "deleteBid",
			"outputs": [],
			"stateMutability": "nonpayable",
			"type": "function"
		},
		{
			"inputs": [
				{
					"internalType": "uint256",
					"name": "_listingId",
					"type": "uint256"
				},
				{
					"internalType": "address",
					"name": "owner",
					"type": "address"
				}
			],
			"name": "findBid",
			"outputs": [
				{
					"internalType": "uint256",
					"name": "",
					"type": "uint256"
				},
				{
					"internalType": "bool",
					"name": "",
					"type": "bool"
				}
			],
			"stateMutability": "view",
			"type": "function"
		},
		{
			"inputs": [
				{
					"internalType": "uint256",
					"name": "_listingId",
					"type": "uint256"
				}
			],
			"name": "getHighestBid",
			"outputs": [],
			"stateMutability": "nonpayable",
			"type": "function"
		},
		{
			"inputs": [
				{
					"internalType": "uint256",
					"name": "_listingId",
					"type": "uint256"
				}
			],
			"name": "getLength",
			"outputs": [
				{
					"internalType": "uint256",
					"name": "count",
					"type": "uint256"
				}
			],
			"stateMutability": "view",
			"type": "function"
		},
		{
			"inputs": [
				{
					"internalType": "uint256",
					"name": "minAmount",
					"type": "uint256"
				},
				{
					"internalType": "address",
					"name": "tokenContract",
					"type": "address"
				},
				{
					"internalType": "uint256",
					"name": "tokenId",
					"type": "uint256"
				}
			],
			"name": "listNFT",
			"outputs": [
				{
					"internalType": "uint256",
					"name": "",
					"type": "uint256"
				}
			],
			"stateMutability": "nonpayable",
			"type": "function"
		},
		{
			"inputs": [
				{
					"internalType": "uint256",
					"name": "",
					"type": "uint256"
				}
			],
			"name": "listings",
			"outputs": [
				{
					"internalType": "address",
					"name": "owner",
					"type": "address"
				},
				{
					"internalType": "uint256",
					"name": "minAmount",
					"type": "uint256"
				},
				{
					"internalType": "address",
					"name": "tokenContract",
					"type": "address"
				},
				{
					"internalType": "bool",
					"name": "sold",
					"type": "bool"
				},
				{
					"internalType": "uint256",
					"name": "highestBidderId",
					"type": "uint256"
				},
				{
					"internalType": "uint256",
					"name": "tokenId",
					"type": "uint256"
				}
			],
			"stateMutability": "view",
			"type": "function"
		},
		{
			"inputs": [
				{
					"internalType": "uint256",
					"name": "_listingId",
					"type": "uint256"
				}
			],
			"name": "removeNFT",
			"outputs": [
				{
					"internalType": "bool",
					"name": "",
					"type": "bool"
				}
			],
			"stateMutability": "nonpayable",
			"type": "function"
		},
		{
			"inputs": [
				{
					"internalType": "uint256",
					"name": "_listingId",
					"type": "uint256"
				},
				{
					"internalType": "uint256",
					"name": "bidAmount",
					"type": "uint256"
				}
			],
			"name": "updateBid",
			"outputs": [],
			"stateMutability": "payable",
			"type": "function"
		},
		{
			"inputs": [
				{
					"internalType": "uint256",
					"name": "_listingId",
					"type": "uint256"
				},
				{
					"internalType": "uint256",
					"name": "minAmount",
					"type": "uint256"
				},
				{
					"internalType": "bool",
					"name": "_sold",
					"type": "bool"
				}
			],
			"name": "updateNFT",
			"outputs": [
				{
					"internalType": "bool",
					"name": "",
					"type": "bool"
				}
			],
			"stateMutability": "nonpayable",
			"type": "function"
		}
	],
	"bytecode": "0x608060405234801561001057600080fd5b506001600081905550612598806100286000396000f3fe6080604052600436106100a75760003560e01c80636aad2b00116100645780636aad2b00146101c45780637b3c4baa146102025780638bebfca9146102425780638f2886441461026b578063de74e57b14610294578063ee4739cb146102d6576100a7565b80630986e647146100ac5780631643c8c4146100e95780631cfb9fa11461011257806321b23f041461014f5780632fef80291461016b57806360365e0c146101a8575b600080fd5b3480156100b857600080fd5b506100d360048036038101906100ce9190611b31565b610313565b6040516100e09190612129565b60405180910390f35b3480156100f557600080fd5b50610110600480360381019061010b9190611be5565b610333565b005b34801561011e57600080fd5b5061013960048036038101906101349190611b96565b6104fd565b6040516101469190612129565b60405180910390f35b61016960048036038101906101649190611be5565b6106f1565b005b34801561017757600080fd5b50610192600480360381019061018d9190611c21565b610ac8565b60405161019f9190611f8e565b60405180910390f35b6101c260048036038101906101bd9190611be5565b610d61565b005b3480156101d057600080fd5b506101eb60048036038101906101e69190611b5a565b610fb6565b6040516101f99291906121a5565b60405180910390f35b34801561020e57600080fd5b5061022960048036038101906102249190611be5565b61119c565b6040516102399493929190611e50565b60405180910390f35b34801561024e57600080fd5b5061026960048036038101906102649190611b31565b611229565b005b34801561027757600080fd5b50610292600480360381019061028d9190611b31565b611523565b005b3480156102a057600080fd5b506102bb60048036038101906102b69190611b31565b6117d6565b6040516102cd96959493929190611ee8565b60405180910390f35b3480156102e257600080fd5b506102fd60048036038101906102f89190611b31565b61185f565b60405161030a9190611f8e565b60405180910390f35b600060036000838152602001908152602001600020805490509050919050565b6002600083815260200190815260200160002060030154811461038b576040517f08c379a000000000000000000000000000000000000000000000000000000000815260040161038290611fc9565b60405180910390fd5b60006003600084815260200190815260200160002082815481106103d8577f4e487b7100000000000000000000000000000000000000000000000000000000600052603260045260246000fd5b90600052602060002090600402016040518060800160405290816000820160009054906101000a900473ffffffffffffffffffffffffffffffffffffffff1673ffffffffffffffffffffffffffffffffffffffff1673ffffffffffffffffffffffffffffffffffffffff1681526020016001820160009054906101000a900473ffffffffffffffffffffffffffffffffffffffff1673ffffffffffffffffffffffffffffffffffffffff1673ffffffffffffffffffffffffffffffffffffffff1681526020016002820154815260200160038201548152505090507fd5348def7cb47f378d627a48eb81297f7721037aadc5e13ad7f4c6647e42da1b8160000151848360400151856040516104f09493929190611f49565b60405180910390a1505050565b60006001841015610543576040517f08c379a000000000000000000000000000000000000000000000000000000000815260040161053a90611fa9565b60405180910390fd5b600061054f6001611a7a565b905060006040518060c001604052803373ffffffffffffffffffffffffffffffffffffffff1681526020018781526020018673ffffffffffffffffffffffffffffffffffffffff16815260200160001515815260200160008152602001858152509050806002600084815260200190815260200160002060008201518160000160006101000a81548173ffffffffffffffffffffffffffffffffffffffff021916908373ffffffffffffffffffffffffffffffffffffffff1602179055506020820151816001015560408201518160020160006101000a81548173ffffffffffffffffffffffffffffffffffffffff021916908373ffffffffffffffffffffffffffffffffffffffff16021790555060608201518160020160146101000a81548160ff0219169083151502179055506080820151816003015560a082015181600401559050507f05d4e239637ad0387fd14203d1eb8dc7cb087d35072fa9c43a1d535740f8576d82338888856060015160006040516106d396959493929190612144565b60405180910390a16106e56001611a88565b81925050509392505050565b803414610733576040517f08c379a000000000000000000000000000000000000000000000000000000000815260040161072a90612109565b60405180910390fd5b600073ffffffffffffffffffffffffffffffffffffffff166002600084815260200190815260200160002060020160009054906101000a900473ffffffffffffffffffffffffffffffffffffffff1673ffffffffffffffffffffffffffffffffffffffff1614156107d9576040517f08c379a00000000000000000000000000000000000000000000000000000000081526004016107d0906120a9565b60405180910390fd5b3373ffffffffffffffffffffffffffffffffffffffff166002600084815260200190815260200160002060000160009054906101000a900473ffffffffffffffffffffffffffffffffffffffff1673ffffffffffffffffffffffffffffffffffffffff16141561087e576040517f08c379a000000000000000000000000000000000000000000000000000000000815260040161087590611fe9565b60405180910390fd5b346002600084815260200190815260200160002060010154106108d6576040517f08c379a00000000000000000000000000000000000000000000000000000000081526004016108cd90612069565b60405180910390fd5b600080600360008581526020019081526020016000208054905014156108ff5760009050610919565b600360008481526020019081526020016000208054905090505b600060405180608001604052803373ffffffffffffffffffffffffffffffffffffffff1681526020016002600087815260200190815260200160002060020160009054906101000a900473ffffffffffffffffffffffffffffffffffffffff1673ffffffffffffffffffffffffffffffffffffffff1681526020018481526020018381525090506003600085815260200190815260200160002081908060018154018082558091505060019003906000526020600020906004020160009091909190915060008201518160000160006101000a81548173ffffffffffffffffffffffffffffffffffffffff021916908373ffffffffffffffffffffffffffffffffffffffff16021790555060208201518160010160006101000a81548173ffffffffffffffffffffffffffffffffffffffff021916908373ffffffffffffffffffffffffffffffffffffffff160217905550604082015181600201556060820151816003015550507f51f2abef6db943809a2415551e15aafa4334edcdaa8b68d668cee3bd113405883385858460600151604051610aba9493929190611f49565b60405180910390a150505050565b60008073ffffffffffffffffffffffffffffffffffffffff166002600086815260200190815260200160002060020160009054906101000a900473ffffffffffffffffffffffffffffffffffffffff1673ffffffffffffffffffffffffffffffffffffffff161415610b6f576040517f08c379a0000000000000000000000000000000000000000000000000000000008152600401610b66906120c9565b60405180910390fd5b3373ffffffffffffffffffffffffffffffffffffffff166002600086815260200190815260200160002060000160009054906101000a900473ffffffffffffffffffffffffffffffffffffffff1673ffffffffffffffffffffffffffffffffffffffff1614610c13576040517f08c379a0000000000000000000000000000000000000000000000000000000008152600401610c0a90611fe9565b60405180910390fd5b826002600086815260200190815260200160002060010181905550816002600086815260200190815260200160002060020160146101000a81548160ff0219169083151502179055507f4f9b0b0bc4e431fa60d2fd23aa838a5bcaa4715c9dbc7812fc111704e32728586002600086815260200190815260200160002060000160009054906101000a900473ffffffffffffffffffffffffffffffffffffffff1660026000878152602001908152602001600020600101546002600088815260200190815260200160002060020160009054906101000a900473ffffffffffffffffffffffffffffffffffffffff166002600089815260200190815260200160002060020160149054906101000a900460ff16600260008a815260200190815260200160002060030154604051610d4e959493929190611e95565b60405180910390a1600190509392505050565b600080610d6e8433610fb6565b809250819350505080610db6576040517f08c379a0000000000000000000000000000000000000000000000000000000008152600401610dad90612049565b60405180910390fd5b6000600360008681526020019081526020016000208381548110610e03577f4e487b7100000000000000000000000000000000000000000000000000000000600052603260045260246000fd5b9060005260206000209060040201905080600201548411610e59576040517f08c379a0000000000000000000000000000000000000000000000000000000008152600401610e5090612089565b60405180910390fd5b34816002015485610e6a91906121df565b1115610eab576040517f08c379a0000000000000000000000000000000000000000000000000000000008152600401610ea2906120e9565b60405180910390fd5b8060000160009054906101000a900473ffffffffffffffffffffffffffffffffffffffff1673ffffffffffffffffffffffffffffffffffffffff163373ffffffffffffffffffffffffffffffffffffffff1614610f3d576040517f08c379a0000000000000000000000000000000000000000000000000000000008152600401610f3490612009565b60405180910390fd5b8381600201819055507f89b364be14234d1dcdb97559c44f619bdc1157c3c654af52c7851e31afa9aadd8160000160009054906101000a900473ffffffffffffffffffffffffffffffffffffffff168683600201548460030154604051610fa79493929190611f49565b60405180910390a15050505050565b600080600060036000868152602001908152602001600020805480602002602001604051908101604052809291908181526020016000905b828210156110e057838290600052602060002090600402016040518060800160405290816000820160009054906101000a900473ffffffffffffffffffffffffffffffffffffffff1673ffffffffffffffffffffffffffffffffffffffff1673ffffffffffffffffffffffffffffffffffffffff1681526020016001820160009054906101000a900473ffffffffffffffffffffffffffffffffffffffff1673ffffffffffffffffffffffffffffffffffffffff1673ffffffffffffffffffffffffffffffffffffffff1681526020016002820154815260200160038201548152505081526020019060010190610fee565b50505050905060005b815181101561118b578473ffffffffffffffffffffffffffffffffffffffff16828281518110611142577f4e487b7100000000000000000000000000000000000000000000000000000000600052603260045260246000fd5b60200260200101516000015173ffffffffffffffffffffffffffffffffffffffff16141561117857806001935093505050611195565b80806111839061226d565b9150506110e9565b5060008092509250505b9250929050565b600360205281600052604060002081815481106111b857600080fd5b9060005260206000209060040201600091509150508060000160009054906101000a900473ffffffffffffffffffffffffffffffffffffffff16908060010160009054906101000a900473ffffffffffffffffffffffffffffffffffffffff16908060020154908060030154905084565b6000806112368333610fb6565b80925081935050508061127e576040517f08c379a000000000000000000000000000000000000000000000000000000000815260040161127590612049565b60405180910390fd5b60006003600085815260200190815260200160002083815481106112cb577f4e487b7100000000000000000000000000000000000000000000000000000000600052603260045260246000fd5b906000526020600020906004020190508060000160009054906101000a900473ffffffffffffffffffffffffffffffffffffffff1673ffffffffffffffffffffffffffffffffffffffff163373ffffffffffffffffffffffffffffffffffffffff161461136d576040517f08c379a000000000000000000000000000000000000000000000000000000000815260040161136490612009565b60405180910390fd5b6003600085815260200190815260200160002083815481106113b8577f4e487b7100000000000000000000000000000000000000000000000000000000600052603260045260246000fd5b9060005260206000209060040201600080820160006101000a81549073ffffffffffffffffffffffffffffffffffffffff02191690556001820160006101000a81549073ffffffffffffffffffffffffffffffffffffffff02191690556002820160009055600382016000905550504781600201541061146d576040517f08c379a000000000000000000000000000000000000000000000000000000000815260040161146490612029565b60405180910390fd5b3373ffffffffffffffffffffffffffffffffffffffff166108fc82600201549081150290604051600060405180830381858888f193505050501580156114b7573d6000803e3d6000fd5b507fbbee5af4aac7e8d452fe09e6cb607c11d73729fa32b258a2cc37abbd1b979fb68160000160009054906101000a900473ffffffffffffffffffffffffffffffffffffffff16858360020154866040516115159493929190611f49565b60405180910390a150505050565b600060036000838152602001908152602001600020805480602002602001604051908101604052809291908181526020016000905b8282101561164a57838290600052602060002090600402016040518060800160405290816000820160009054906101000a900473ffffffffffffffffffffffffffffffffffffffff1673ffffffffffffffffffffffffffffffffffffffff1673ffffffffffffffffffffffffffffffffffffffff1681526020016001820160009054906101000a900473ffffffffffffffffffffffffffffffffffffffff1673ffffffffffffffffffffffffffffffffffffffff1673ffffffffffffffffffffffffffffffffffffffff1681526020016002820154815260200160038201548152505081526020019060010190611558565b505050509050611658611a9e565b60005b825181101561170b5781604001518382815181106116a2577f4e487b7100000000000000000000000000000000000000000000000000000000600052603260045260246000fd5b60200260200101516040015111156116f8578281815181106116ed577f4e487b7100000000000000000000000000000000000000000000000000000000600052603260045260246000fd5b602002602001015191505b80806117039061226d565b91505061165b565b506000600260008581526020019081526020016000209050816060015181600301819055507f4f9b0b0bc4e431fa60d2fd23aa838a5bcaa4715c9dbc7812fc111704e32728588160000160009054906101000a900473ffffffffffffffffffffffffffffffffffffffff1682600101548360020160009054906101000a900473ffffffffffffffffffffffffffffffffffffffff168460020160149054906101000a900460ff1685600301546040516117c8959493929190611e95565b60405180910390a150505050565b60026020528060005260406000206000915090508060000160009054906101000a900473ffffffffffffffffffffffffffffffffffffffff16908060010154908060020160009054906101000a900473ffffffffffffffffffffffffffffffffffffffff16908060020160149054906101000a900460ff16908060030154908060040154905086565b60008073ffffffffffffffffffffffffffffffffffffffff166002600084815260200190815260200160002060020160009054906101000a900473ffffffffffffffffffffffffffffffffffffffff1673ffffffffffffffffffffffffffffffffffffffff161415611906576040517f08c379a00000000000000000000000000000000000000000000000000000000081526004016118fd906120c9565b60405180910390fd5b3373ffffffffffffffffffffffffffffffffffffffff166002600084815260200190815260200160002060000160009054906101000a900473ffffffffffffffffffffffffffffffffffffffff1673ffffffffffffffffffffffffffffffffffffffff16146119aa576040517f08c379a00000000000000000000000000000000000000000000000000000000081526004016119a190611fe9565b60405180910390fd5b60026000838152602001908152602001600020600080820160006101000a81549073ffffffffffffffffffffffffffffffffffffffff021916905560018201600090556002820160006101000a81549073ffffffffffffffffffffffffffffffffffffffff02191690556002820160146101000a81549060ff02191690556003820160009055600482016000905550507f7c4f97481a42f1d87238c23814182a12c6b707eb7fbad3fb56ce228dc5416fd882604051611a699190612129565b60405180910390a160019050919050565b600081600001549050919050565b6001816000016000828254019250508190555050565b6040518060800160405280600073ffffffffffffffffffffffffffffffffffffffff168152602001600073ffffffffffffffffffffffffffffffffffffffff16815260200160008152602001600081525090565b600081359050611b018161251d565b92915050565b600081359050611b1681612534565b92915050565b600081359050611b2b8161254b565b92915050565b600060208284031215611b4357600080fd5b6000611b5184828501611b1c565b91505092915050565b60008060408385031215611b6d57600080fd5b6000611b7b85828601611b1c565b9250506020611b8c85828601611af2565b9150509250929050565b600080600060608486031215611bab57600080fd5b6000611bb986828701611b1c565b9350506020611bca86828701611af2565b9250506040611bdb86828701611b1c565b9150509250925092565b60008060408385031215611bf857600080fd5b6000611c0685828601611b1c565b9250506020611c1785828601611b1c565b9150509250929050565b600080600060608486031215611c3657600080fd5b6000611c4486828701611b1c565b9350506020611c5586828701611b1c565b9250506040611c6686828701611b07565b9150509250925092565b611c7981612213565b82525050565b611c8881612225565b82525050565b611c978161225b565b82525050565b6000611caa601e836121ce565b9150611cb5826122e5565b602082019050919050565b6000611ccd6020836121ce565b9150611cd88261230e565b602082019050919050565b6000611cf06028836121ce565b9150611cfb82612337565b604082019050919050565b6000611d136016836121ce565b9150611d1e82612386565b602082019050919050565b6000611d366010836121ce565b9150611d41826123af565b602082019050919050565b6000611d59600d836121ce565b9150611d64826123d8565b602082019050919050565b6000611d7c600e836121ce565b9150611d8782612401565b602082019050919050565b6000611d9f6027836121ce565b9150611daa8261242a565b604082019050919050565b6000611dc26015836121ce565b9150611dcd82612479565b602082019050919050565b6000611de56015836121ce565b9150611df0826124a2565b602082019050919050565b6000611e086014836121ce565b9150611e13826124cb565b602082019050919050565b6000611e2b601f836121ce565b9150611e36826124f4565b602082019050919050565b611e4a81612251565b82525050565b6000608082019050611e656000830187611c70565b611e726020830186611c70565b611e7f6040830185611e41565b611e8c6060830184611e41565b95945050505050565b600060a082019050611eaa6000830188611c70565b611eb76020830187611e41565b611ec46040830186611c70565b611ed16060830185611c7f565b611ede6080830184611e41565b9695505050505050565b600060c082019050611efd6000830189611c70565b611f0a6020830188611e41565b611f176040830187611c70565b611f246060830186611c7f565b611f316080830185611e41565b611f3e60a0830184611e41565b979650505050505050565b6000608082019050611f5e6000830187611c70565b611f6b6020830186611e41565b611f786040830185611e41565b611f856060830184611e41565b95945050505050565b6000602082019050611fa36000830184611c7f565b92915050565b60006020820190508181036000830152611fc281611c9d565b9050919050565b60006020820190508181036000830152611fe281611cc0565b9050919050565b6000602082019050818103600083015261200281611ce3565b9050919050565b6000602082019050818103600083015261202281611d06565b9050919050565b6000602082019050818103600083015261204281611d29565b9050919050565b6000602082019050818103600083015261206281611d4c565b9050919050565b6000602082019050818103600083015261208281611d6f565b9050919050565b600060208201905081810360008301526120a281611d92565b9050919050565b600060208201905081810360008301526120c281611db5565b9050919050565b600060208201905081810360008301526120e281611dd8565b9050919050565b6000602082019050818103600083015261210281611dfb565b9050919050565b6000602082019050818103600083015261212281611e1e565b9050919050565b600060208201905061213e6000830184611e41565b92915050565b600060c0820190506121596000830189611e41565b6121666020830188611c70565b6121736040830187611e41565b6121806060830186611c70565b61218d6080830185611c7f565b61219a60a0830184611c8e565b979650505050505050565b60006040820190506121ba6000830185611e41565b6121c76020830184611c7f565b9392505050565b600082825260208201905092915050565b60006121ea82612251565b91506121f583612251565b925082821015612208576122076122b6565b5b828203905092915050565b600061221e82612231565b9050919050565b60008115159050919050565b600073ffffffffffffffffffffffffffffffffffffffff82169050919050565b6000819050919050565b600061226682612251565b9050919050565b600061227882612251565b91507fffffffffffffffffffffffffffffffffffffffffffffffffffffffffffffffff8214156122ab576122aa6122b6565b5b600182019050919050565b7f4e487b7100000000000000000000000000000000000000000000000000000000600052601160045260246000fd5b7f416d6f756e742073686f756c642061746c656173742062652031207765690000600082015250565b7f6d73672e73656e646572206973206e6f74206869676865737420626964646572600082015250565b7f596f75206e6f74206f776e6572207468656e207768792073656e64696e67207460008201527f6869732073686974000000000000000000000000000000000000000000000000602082015250565b7f596f7520617265206e6f74207468652062696464657200000000000000000000600082015250565b7f42616c616e6365206973206c6f77657200000000000000000000000000000000600082015250565b7f426964206e6f7420666f756e6400000000000000000000000000000000000000600082015250565b7f53656e6420736f6d65206d6f7265000000000000000000000000000000000000600082015250565b7f4269642073686f756c642062652067726561746572207468616e20707265766960008201527f6f75732062696400000000000000000000000000000000000000000000000000602082015250565b7f4c697374696e6720446f73656e27742045786973740000000000000000000000600082015250565b7f4c697374696e6720446f65736e27742045786973740000000000000000000000600082015250565b7f53656e6420736f6d65206d6f7265206574686572000000000000000000000000600082015250565b7f53656e642073616d6520616d6f756e74206f6620657468657220746f206d6500600082015250565b61252681612213565b811461253157600080fd5b50565b61253d81612225565b811461254857600080fd5b50565b61255481612251565b811461255f57600080fd5b5056fea2646970667358221220212e3d15261f6101ecbd7ce831594ab2fb968ff409d03368902637896eee7b5a64736f6c63430008040033",
	"linkReferences": {},
	"deployedLinkReferences": {}
}