{
	"_format": "hh-sol-artifact-1",
	"contractName": "NFTMarketplace",
	"sourceName": "contracts/main.sol",
	"abi": [
		{
			"anonymous": false,
			"inputs": [
				{
					"indexed": false,
					"internalType": "address",
					"name": "bidder",
					"type": "address"
				},
				{
					"indexed": false,
					"internalType": "uint256",
					"name": "id",
					"type": "uint256"
				},
				{
					"indexed": false,
					"internalType": "uint256",
					"name": "bid",
					"type": "uint256"
				},
				{
					"indexed": false,
					"internalType": "uint256",
					"name": "index",
					"type": "uint256"
				}
			],
			"name": "BidAdded",
			"type": "event"
		},
		{
			"anonymous": false,
			"inputs": [
				{
					"indexed": false,
					"internalType": "address",
					"name": "bidder",
					"type": "address"
				},
				{
					"indexed": false,
					"internalType": "uint256",
					"name": "id",
					"type": "uint256"
				},
				{
					"indexed": false,
					"internalType": "uint256",
					"name": "bid",
					"type": "uint256"
				},
				{
					"indexed": false,
					"internalType": "uint256",
					"name": "index",
					"type": "uint256"
				}
			],
			"name": "BidRevoked",
			"type": "event"
		},
		{
			"anonymous": false,
			"inputs": [
				{
					"indexed": false,
					"internalType": "address",
					"name": "bidder",
					"type": "address"
				},
				{
					"indexed": false,
					"internalType": "uint256",
					"name": "id",
					"type": "uint256"
				},
				{
					"indexed": false,
					"internalType": "uint256",
					"name": "bid",
					"type": "uint256"
				},
				{
					"indexed": false,
					"internalType": "uint256",
					"name": "index",
					"type": "uint256"
				}
			],
			"name": "BidUpdated",
			"type": "event"
		},
		{
			"anonymous": false,
			"inputs": [
				{
					"indexed": false,
					"internalType": "address",
					"name": "bidder",
					"type": "address"
				},
				{
					"indexed": false,
					"internalType": "uint256",
					"name": "id",
					"type": "uint256"
				},
				{
					"indexed": false,
					"internalType": "uint256",
					"name": "bid",
					"type": "uint256"
				},
				{
					"indexed": false,
					"internalType": "uint256",
					"name": "index",
					"type": "uint256"
				}
			],
			"name": "BidWinner",
			"type": "event"
		},
		{
			"anonymous": false,
			"inputs": [
				{
					"indexed": false,
					"internalType": "uint256",
					"name": "id",
					"type": "uint256"
				},
				{
					"indexed": false,
					"internalType": "address",
					"name": "owner",
					"type": "address"
				},
				{
					"indexed": false,
					"internalType": "uint256",
					"name": "minAmount",
					"type": "uint256"
				},
				{
					"indexed": false,
					"internalType": "string",
					"name": "date",
					"type": "string"
				},
				{
					"indexed": false,
					"internalType": "bool",
					"name": "sold",
					"type": "bool"
				},
				{
					"indexed": false,
					"internalType": "uint256",
					"name": "highestBidderId",
					"type": "uint256"
				}
			],
			"name": "NewNFTListed",
			"type": "event"
		},
		{
			"anonymous": false,
			"inputs": [
				{
					"indexed": false,
					"internalType": "uint256",
					"name": "id",
					"type": "uint256"
				}
			],
			"name": "RemoveNFTListed",
			"type": "event"
		},
		{
			"anonymous": false,
			"inputs": [
				{
					"indexed": false,
					"internalType": "address",
					"name": "owner",
					"type": "address"
				},
				{
					"indexed": false,
					"internalType": "uint256",
					"name": "minAmount",
					"type": "uint256"
				},
				{
					"indexed": false,
					"internalType": "string",
					"name": "date",
					"type": "string"
				},
				{
					"indexed": false,
					"internalType": "bool",
					"name": "sold",
					"type": "bool"
				},
				{
					"indexed": false,
					"internalType": "uint256",
					"name": "highestBidderId",
					"type": "uint256"
				}
			],
			"name": "UpdateNFTListed",
			"type": "event"
		},
		{
			"inputs": [
				{
					"internalType": "uint256",
					"name": "_listingId",
					"type": "uint256"
				},
				{
					"internalType": "uint256",
					"name": "bid",
					"type": "uint256"
				}
			],
			"name": "addBid",
			"outputs": [],
			"stateMutability": "payable",
			"type": "function"
		},
		{
			"inputs": [
				{
					"internalType": "uint256",
					"name": "",
					"type": "uint256"
				},
				{
					"internalType": "uint256",
					"name": "",
					"type": "uint256"
				}
			],
			"name": "bids",
			"outputs": [
				{
					"internalType": "address",
					"name": "bidder",
					"type": "address"
				},
				{
					"internalType": "string",
					"name": "date",
					"type": "string"
				},
				{
					"internalType": "uint256",
					"name": "bid",
					"type": "uint256"
				},
				{
					"internalType": "uint256",
					"name": "index",
					"type": "uint256"
				}
			],
			"stateMutability": "view",
			"type": "function"
		},
		{
			"inputs": [
				{
					"internalType": "uint256",
					"name": "day",
					"type": "uint256"
				},
				{
					"internalType": "string",
					"name": "date",
					"type": "string"
				},
				{
					"internalType": "uint256",
					"name": "minAmount",
					"type": "uint256"
				}
			],
			"name": "createListing",
			"outputs": [],
			"stateMutability": "nonpayable",
			"type": "function"
		},
		{
			"inputs": [
				{
					"internalType": "uint256",
					"name": "_listingId",
					"type": "uint256"
				},
				{
					"internalType": "uint256",
					"name": "bidId",
					"type": "uint256"
				}
			],
			"name": "declareWinner",
			"outputs": [],
			"stateMutability": "nonpayable",
			"type": "function"
		},
		{
			"inputs": [
				{
					"internalType": "uint256",
					"name": "_listingId",
					"type": "uint256"
				}
			],
			"name": "deleteBid",
			"outputs": [],
			"stateMutability": "nonpayable",
			"type": "function"
		},
		{
			"inputs": [
				{
					"internalType": "uint256",
					"name": "_listingId",
					"type": "uint256"
				},
				{
					"internalType": "address",
					"name": "owner",
					"type": "address"
				}
			],
			"name": "findBid",
			"outputs": [
				{
					"internalType": "uint256",
					"name": "",
					"type": "uint256"
				},
				{
					"internalType": "bool",
					"name": "",
					"type": "bool"
				}
			],
			"stateMutability": "view",
			"type": "function"
		},
		{
			"inputs": [
				{
					"internalType": "uint256",
					"name": "_listingId",
					"type": "uint256"
				}
			],
			"name": "getBids",
			"outputs": [
				{
					"components": [
						{
							"internalType": "address",
							"name": "bidder",
							"type": "address"
						},
						{
							"internalType": "string",
							"name": "date",
							"type": "string"
						},
						{
							"internalType": "uint256",
							"name": "bid",
							"type": "uint256"
						},
						{
							"internalType": "uint256",
							"name": "index",
							"type": "uint256"
						}
					],
					"internalType": "struct NFTMarketplace.TokenBid[]",
					"name": "",
					"type": "tuple[]"
				}
			],
			"stateMutability": "view",
			"type": "function"
		},
		{
			"inputs": [
				{
					"internalType": "uint256",
					"name": "_listingId",
					"type": "uint256"
				}
			],
			"name": "getHighestBid",
			"outputs": [],
			"stateMutability": "nonpayable",
			"type": "function"
		},
		{
			"inputs": [
				{
					"internalType": "uint256",
					"name": "_listingId",
					"type": "uint256"
				}
			],
			"name": "getLength",
			"outputs": [
				{
					"internalType": "uint256",
					"name": "count",
					"type": "uint256"
				}
			],
			"stateMutability": "view",
			"type": "function"
		},
		{
			"inputs": [
				{
					"internalType": "uint256",
					"name": "",
					"type": "uint256"
				}
			],
			"name": "listings",
			"outputs": [
				{
					"internalType": "address",
					"name": "owner",
					"type": "address"
				},
				{
					"internalType": "uint256",
					"name": "minAmount",
					"type": "uint256"
				},
				{
					"internalType": "string",
					"name": "date",
					"type": "string"
				},
				{
					"internalType": "bool",
					"name": "sold",
					"type": "bool"
				},
				{
					"internalType": "uint256",
					"name": "highestBidderId",
					"type": "uint256"
				},
				{
					"internalType": "uint256",
					"name": "tokenId",
					"type": "uint256"
				}
			],
			"stateMutability": "view",
			"type": "function"
		},
		{
			"inputs": [
				{
					"internalType": "uint256",
					"name": "_listingId",
					"type": "uint256"
				},
				{
					"internalType": "uint256",
					"name": "bidAmount",
					"type": "uint256"
				}
			],
			"name": "updateBid",
			"outputs": [],
			"stateMutability": "payable",
			"type": "function"
		},
		{
			"inputs": [
				{
					"internalType": "uint256",
					"name": "_listingId",
					"type": "uint256"
				},
				{
					"internalType": "uint256",
					"name": "minAmount",
					"type": "uint256"
				},
				{
					"internalType": "bool",
					"name": "_sold",
					"type": "bool"
				}
			],
			"name": "updateNFT",
			"outputs": [
				{
					"internalType": "bool",
					"name": "",
					"type": "bool"
				}
			],
			"stateMutability": "nonpayable",
			"type": "function"
		}
	],
	"bytecode": "0x608060405234801561001057600080fd5b506001600081905550612eb7806100286000396000f3fe6080604052600436106100a75760003560e01c80636aad2b00116100645780636aad2b00146101c45780637b3c4baa146102025780638bebfca9146102425780638f2886441461026b578063d4768d5e14610294578063de74e57b146102bd576100a7565b80630986e647146100ac578063131d9a27146100e95780631643c8c41461012657806321b23f041461014f5780632fef80291461016b57806360365e0c146101a8575b600080fd5b3480156100b857600080fd5b506100d360048036038101906100ce9190612085565b6102ff565b6040516100e091906128d1565b60405180910390f35b3480156100f557600080fd5b50610110600480360381019061010b9190612085565b61031f565b60405161011d91906126b6565b60405180910390f35b34801561013257600080fd5b5061014d60048036038101906101489190612151565b61048d565b005b61016960048036038101906101649190612151565b610693565b005b34801561017757600080fd5b50610192600480360381019061018d919061218d565b610a4f565b60405161019f91906126d8565b60405180910390f35b6101c260048036038101906101bd9190612151565b610c86565b005b3480156101d057600080fd5b506101eb60048036038101906101e691906120ae565b610edb565b6040516101f9929190612954565b60405180910390f35b34801561020e57600080fd5b5061022960048036038101906102249190612151565b6111e5565b6040516102399493929190612563565b60405180910390f35b34801561024e57600080fd5b5061026960048036038101906102649190612085565b6112da565b005b34801561027757600080fd5b50610292600480360381019061028d9190612085565b611640565b005b3480156102a057600080fd5b506102bb60048036038101906102b691906120ea565b61190e565b005b3480156102c957600080fd5b506102e460048036038101906102df9190612085565b611bcc565b6040516102f6969594939291906125af565b60405180910390f35b600060036000838152602001908152602001600020805490509050919050565b606060036000838152602001908152602001600020805480602002602001604051908101604052809291908181526020016000905b8282101561048257838290600052602060002090600402016040518060800160405290816000820160009054906101000a900473ffffffffffffffffffffffffffffffffffffffff1673ffffffffffffffffffffffffffffffffffffffff1673ffffffffffffffffffffffffffffffffffffffff1681526020016001820180546103dd90612b0c565b80601f016020809104026020016040519081016040528092919081815260200182805461040990612b0c565b80156104565780601f1061042b57610100808354040283529160200191610456565b820191906000526020600020905b81548152906001019060200180831161043957829003601f168201915b505050505081526020016002820154815260200160038201548152505081526020019060010190610354565b505050509050919050565b600260008381526020019081526020016000206004015481146104e5576040517f08c379a00000000000000000000000000000000000000000000000000000000081526004016104dc90612791565b60405180910390fd5b6000600360008481526020019081526020016000208281548110610532577f4e487b7100000000000000000000000000000000000000000000000000000000600052603260045260246000fd5b90600052602060002090600402016040518060800160405290816000820160009054906101000a900473ffffffffffffffffffffffffffffffffffffffff1673ffffffffffffffffffffffffffffffffffffffff1673ffffffffffffffffffffffffffffffffffffffff1681526020016001820180546105b190612b0c565b80601f01602080910402602001604051908101604052809291908181526020018280546105dd90612b0c565b801561062a5780601f106105ff5761010080835404028352916020019161062a565b820191906000526020600020905b81548152906001019060200180831161060d57829003601f168201915b505050505081526020016002820154815260200160038201548152505090507fd5348def7cb47f378d627a48eb81297f7721037aadc5e13ad7f4c6647e42da1b8160000151848360400151856040516106869493929190612671565b60405180910390a1505050565b8034146106d5576040517f08c379a00000000000000000000000000000000000000000000000000000000081526004016106cc906128b1565b60405180910390fd5b6002600083815260200190815260200160002060030160009054906101000a900460ff16610738576040517f08c379a000000000000000000000000000000000000000000000000000000000815260040161072f90612871565b60405180910390fd5b3373ffffffffffffffffffffffffffffffffffffffff166002600084815260200190815260200160002060000160009054906101000a900473ffffffffffffffffffffffffffffffffffffffff1673ffffffffffffffffffffffffffffffffffffffff1614156107dd576040517f08c379a00000000000000000000000000000000000000000000000000000000081526004016107d4906127b1565b60405180910390fd5b34600260008481526020019081526020016000206001015410610835576040517f08c379a000000000000000000000000000000000000000000000000000000000815260040161082c90612831565b60405180910390fd5b6000806003600085815260200190815260200160002080549050141561085e5760009050610878565b600360008481526020019081526020016000208054905090505b600060405180608001604052803373ffffffffffffffffffffffffffffffffffffffff1681526020016002600087815260200190815260200160002060020180546108c290612b0c565b80601f01602080910402602001604051908101604052809291908181526020018280546108ee90612b0c565b801561093b5780601f106109105761010080835404028352916020019161093b565b820191906000526020600020905b81548152906001019060200180831161091e57829003601f168201915b505050505081526020018481526020018381525090506003600085815260200190815260200160002081908060018154018082558091505060019003906000526020600020906004020160009091909190915060008201518160000160006101000a81548173ffffffffffffffffffffffffffffffffffffffff021916908373ffffffffffffffffffffffffffffffffffffffff16021790555060208201518160010190805190602001906109f1929190611ebd565b50604082015181600201556060820151816003015550507f51f2abef6db943809a2415551e15aafa4334edcdaa8b68d668cee3bd113405883385858460600151604051610a419493929190612671565b60405180910390a150505050565b60006002600085815260200190815260200160002060030160009054906101000a900460ff1615610ab5576040517f08c379a0000000000000000000000000000000000000000000000000000000008152600401610aac90612871565b60405180910390fd5b3373ffffffffffffffffffffffffffffffffffffffff166002600086815260200190815260200160002060000160009054906101000a900473ffffffffffffffffffffffffffffffffffffffff1673ffffffffffffffffffffffffffffffffffffffff1614610b59576040517f08c379a0000000000000000000000000000000000000000000000000000000008152600401610b50906127b1565b60405180910390fd5b826002600086815260200190815260200160002060010181905550816002600086815260200190815260200160002060030160006101000a81548160ff0219169083151502179055507fb0339d94d8c3ab22df620b54a38c955bba11861229652cb9e8f1f513a48c81436002600086815260200190815260200160002060000160009054906101000a900473ffffffffffffffffffffffffffffffffffffffff166002600087815260200190815260200160002060010154600260008881526020019081526020016000206002016002600089815260200190815260200160002060030160009054906101000a900460ff16600260008a815260200190815260200160002060040154604051610c73959493929190612617565b60405180910390a1600190509392505050565b600080610c938433610edb565b809250819350505080610cdb576040517f08c379a0000000000000000000000000000000000000000000000000000000008152600401610cd290612811565b60405180910390fd5b6000600360008681526020019081526020016000208381548110610d28577f4e487b7100000000000000000000000000000000000000000000000000000000600052603260045260246000fd5b9060005260206000209060040201905080600201548411610d7e576040517f08c379a0000000000000000000000000000000000000000000000000000000008152600401610d7590612851565b60405180910390fd5b34816002015485610d8f9190612a4e565b1115610dd0576040517f08c379a0000000000000000000000000000000000000000000000000000000008152600401610dc790612891565b60405180910390fd5b8060000160009054906101000a900473ffffffffffffffffffffffffffffffffffffffff1673ffffffffffffffffffffffffffffffffffffffff163373ffffffffffffffffffffffffffffffffffffffff1614610e62576040517f08c379a0000000000000000000000000000000000000000000000000000000008152600401610e59906127d1565b60405180910390fd5b8381600201819055507f89b364be14234d1dcdb97559c44f619bdc1157c3c654af52c7851e31afa9aadd8160000160009054906101000a900473ffffffffffffffffffffffffffffffffffffffff168683600201548460030154604051610ecc9493929190612671565b60405180910390a15050505050565b600080600060036000868152602001908152602001600020805480602002602001604051908101604052809291908181526020016000905b8282101561104157838290600052602060002090600402016040518060800160405290816000820160009054906101000a900473ffffffffffffffffffffffffffffffffffffffff1673ffffffffffffffffffffffffffffffffffffffff1673ffffffffffffffffffffffffffffffffffffffff168152602001600182018054610f9c90612b0c565b80601f0160208091040260200160405190810160405280929190818152602001828054610fc890612b0c565b80156110155780601f10610fea57610100808354040283529160200191611015565b820191906000526020600020905b815481529060010190602001808311610ff857829003601f168201915b505050505081526020016002820154815260200160038201548152505081526020019060010190610f13565b50505050905060005b815181101561112e5761111b6040518060400160405280600581526020017f25642025730000000000000000000000000000000000000000000000000000008152508383815181106110c5577f4e487b7100000000000000000000000000000000000000000000000000000000600052603260045260246000fd5b60200260200101516040015184848151811061110a577f4e487b7100000000000000000000000000000000000000000000000000000000600052603260045260246000fd5b602002602001015160000151611cbd565b808061112690612b6f565b91505061104a565b5060005b81518110156111d4578473ffffffffffffffffffffffffffffffffffffffff1682828151811061118b577f4e487b7100000000000000000000000000000000000000000000000000000000600052603260045260246000fd5b60200260200101516000015173ffffffffffffffffffffffffffffffffffffffff1614156111c1578060019350935050506111de565b80806111cc90612b6f565b915050611132565b5060008092509250505b9250929050565b6003602052816000526040600020818154811061120157600080fd5b9060005260206000209060040201600091509150508060000160009054906101000a900473ffffffffffffffffffffffffffffffffffffffff169080600101805461124b90612b0c565b80601f016020809104026020016040519081016040528092919081815260200182805461127790612b0c565b80156112c45780601f10611299576101008083540402835291602001916112c4565b820191906000526020600020905b8154815290600101906020018083116112a757829003601f168201915b5050505050908060020154908060030154905084565b6000806112e78333610edb565b80925081935050508061132f576040517f08c379a000000000000000000000000000000000000000000000000000000000815260040161132690612811565b60405180910390fd5b600060036000858152602001908152602001600020838154811061137c577f4e487b7100000000000000000000000000000000000000000000000000000000600052603260045260246000fd5b906000526020600020906004020190508060000160009054906101000a900473ffffffffffffffffffffffffffffffffffffffff1673ffffffffffffffffffffffffffffffffffffffff163373ffffffffffffffffffffffffffffffffffffffff161461141e576040517f08c379a0000000000000000000000000000000000000000000000000000000008152600401611415906127d1565b60405180910390fd5b6114626040518060400160405280600581526020017f2564202564000000000000000000000000000000000000000000000000000000815250478360020154611d5c565b47816002015411156114a9576040517f08c379a00000000000000000000000000000000000000000000000000000000081526004016114a0906127f1565b60405180910390fd5b3373ffffffffffffffffffffffffffffffffffffffff166108fc82600201549081150290604051600060405180830381858888f193505050501580156114f3573d6000803e3d6000fd5b506115326040518060400160405280600b81526020017f4e6f742050726f626c656d000000000000000000000000000000000000000000815250611dfb565b60036000858152602001908152602001600020838154811061157d577f4e487b7100000000000000000000000000000000000000000000000000000000600052603260045260246000fd5b9060005260206000209060040201600080820160006101000a81549073ffffffffffffffffffffffffffffffffffffffff02191690556001820160006115c39190611f43565b6002820160009055600382016000905550507fbbee5af4aac7e8d452fe09e6cb607c11d73729fa32b258a2cc37abbd1b979fb68160000160009054906101000a900473ffffffffffffffffffffffffffffffffffffffff16858360020154866040516116329493929190612671565b60405180910390a150505050565b600060036000838152602001908152602001600020805480602002602001604051908101604052809291908181526020016000905b828210156117a357838290600052602060002090600402016040518060800160405290816000820160009054906101000a900473ffffffffffffffffffffffffffffffffffffffff1673ffffffffffffffffffffffffffffffffffffffff1673ffffffffffffffffffffffffffffffffffffffff1681526020016001820180546116fe90612b0c565b80601f016020809104026020016040519081016040528092919081815260200182805461172a90612b0c565b80156117775780601f1061174c57610100808354040283529160200191611777565b820191906000526020600020905b81548152906001019060200180831161175a57829003601f168201915b505050505081526020016002820154815260200160038201548152505081526020019060010190611675565b5050505090506117b1611f83565b60005b82518110156118645781604001518382815181106117fb577f4e487b7100000000000000000000000000000000000000000000000000000000600052603260045260246000fd5b602002602001015160400151111561185157828181518110611846577f4e487b7100000000000000000000000000000000000000000000000000000000600052603260045260246000fd5b602002602001015191505b808061185c90612b6f565b9150506117b4565b506000600260008581526020019081526020016000209050816060015181600401819055507fb0339d94d8c3ab22df620b54a38c955bba11861229652cb9e8f1f513a48c81438160000160009054906101000a900473ffffffffffffffffffffffffffffffffffffffff168260010154836002018460030160009054906101000a900460ff168560040154604051611900959493929190612617565b60405180910390a150505050565b6000600260008581526020019081526020016000206040518060c00160405290816000820160009054906101000a900473ffffffffffffffffffffffffffffffffffffffff1673ffffffffffffffffffffffffffffffffffffffff1673ffffffffffffffffffffffffffffffffffffffff1681526020016001820154815260200160028201805461199e90612b0c565b80601f01602080910402602001604051908101604052809291908181526020018280546119ca90612b0c565b8015611a175780601f106119ec57610100808354040283529160200191611a17565b820191906000526020600020905b8154815290600101906020018083116119fa57829003601f168201915b505050505081526020016003820160009054906101000a900460ff161515151581526020016004820154815260200160058201548152505090508281604001819052508181602001818152505033816000019073ffffffffffffffffffffffffffffffffffffffff16908173ffffffffffffffffffffffffffffffffffffffff168152505060008160600190151590811515815250506000816080018181525050806002600086815260200190815260200160002060008201518160000160006101000a81548173ffffffffffffffffffffffffffffffffffffffff021916908373ffffffffffffffffffffffffffffffffffffffff160217905550602082015181600101556040820151816002019080519060200190611b39929190611ebd565b5060608201518160030160006101000a81548160ff0219169083151502179055506080820151816004015560a082015181600501559050507fb36cfae4de2a53d0698849e3ed66ebcecf14aaeff2bfe993d8999cd0d94613568482600001518360200151846040015185606001518660800151604051611bbe969594939291906128ec565b60405180910390a150505050565b60026020528060005260406000206000915090508060000160009054906101000a900473ffffffffffffffffffffffffffffffffffffffff1690806001015490806002018054611c1b90612b0c565b80601f0160208091040260200160405190810160405280929190818152602001828054611c4790612b0c565b8015611c945780601f10611c6957610100808354040283529160200191611c94565b820191906000526020600020905b815481529060010190602001808311611c7757829003601f168201915b5050505050908060030160009054906101000a900460ff16908060040154908060050154905086565b611d57838383604051602401611cd593929190612715565b6040516020818303038152906040527fe3849f79000000000000000000000000000000000000000000000000000000007bffffffffffffffffffffffffffffffffffffffffffffffffffffffff19166020820180517bffffffffffffffffffffffffffffffffffffffffffffffffffffffff8381831617835250505050611e94565b505050565b611df6838383604051602401611d7493929190612753565b6040516020818303038152906040527f969cdd03000000000000000000000000000000000000000000000000000000007bffffffffffffffffffffffffffffffffffffffffffffffffffffffff19166020820180517bffffffffffffffffffffffffffffffffffffffffffffffffffffffff8381831617835250505050611e94565b505050565b611e9181604051602401611e0f91906126f3565b6040516020818303038152906040527f41304fac000000000000000000000000000000000000000000000000000000007bffffffffffffffffffffffffffffffffffffffffffffffffffffffff19166020820180517bffffffffffffffffffffffffffffffffffffffffffffffffffffffff8381831617835250505050611e94565b50565b60008151905060006a636f6e736f6c652e6c6f679050602083016000808483855afa5050505050565b828054611ec990612b0c565b90600052602060002090601f016020900481019282611eeb5760008555611f32565b82601f10611f0457805160ff1916838001178555611f32565b82800160010185558215611f32579182015b82811115611f31578251825591602001919060010190611f16565b5b509050611f3f9190611fc1565b5090565b508054611f4f90612b0c565b6000825580601f10611f615750611f80565b601f016020900490600052602060002090810190611f7f9190611fc1565b5b50565b6040518060800160405280600073ffffffffffffffffffffffffffffffffffffffff1681526020016060815260200160008152602001600081525090565b5b80821115611fda576000816000905550600101611fc2565b5090565b6000611ff1611fec846129a2565b61297d565b90508281526020810184848401111561200957600080fd5b612014848285612aca565b509392505050565b60008135905061202b81612e3c565b92915050565b60008135905061204081612e53565b92915050565b600082601f83011261205757600080fd5b8135612067848260208601611fde565b91505092915050565b60008135905061207f81612e6a565b92915050565b60006020828403121561209757600080fd5b60006120a584828501612070565b91505092915050565b600080604083850312156120c157600080fd5b60006120cf85828601612070565b92505060206120e08582860161201c565b9150509250929050565b6000806000606084860312156120ff57600080fd5b600061210d86828701612070565b935050602084013567ffffffffffffffff81111561212a57600080fd5b61213686828701612046565b925050604061214786828701612070565b9150509250925092565b6000806040838503121561216457600080fd5b600061217285828601612070565b925050602061218385828601612070565b9150509250929050565b6000806000606084860312156121a257600080fd5b60006121b086828701612070565b93505060206121c186828701612070565b92505060406121d286828701612031565b9150509250925092565b60006121e883836124e2565b905092915050565b6121f981612a82565b82525050565b61220881612a82565b82525050565b6000612219826129f8565b6122238185612a1b565b935083602082028501612235856129d3565b8060005b85811015612271578484038952815161225285826121dc565b945061225d83612a0e565b925060208a01995050600181019050612239565b50829750879550505050505092915050565b61228c81612a94565b82525050565b600061229d82612a03565b6122a78185612a2c565b93506122b7818560208601612ad9565b6122c081612c45565b840191505092915050565b60006122d682612a03565b6122e08185612a3d565b93506122f0818560208601612ad9565b6122f981612c45565b840191505092915050565b6000815461231181612b0c565b61231b8186612a3d565b9450600182166000811461233657600181146123485761237b565b60ff198316865260208601935061237b565b612351856129e3565b60005b8381101561237357815481890152600182019150602081019050612354565b808801955050505b50505092915050565b6000612391602083612a3d565b915061239c82612c56565b602082019050919050565b60006123b4602883612a3d565b91506123bf82612c7f565b604082019050919050565b60006123d7601683612a3d565b91506123e282612cce565b602082019050919050565b60006123fa601083612a3d565b915061240582612cf7565b602082019050919050565b600061241d600d83612a3d565b915061242882612d20565b602082019050919050565b6000612440600e83612a3d565b915061244b82612d49565b602082019050919050565b6000612463602783612a3d565b915061246e82612d72565b604082019050919050565b6000612486600c83612a3d565b915061249182612dc1565b602082019050919050565b60006124a9601483612a3d565b91506124b482612dea565b602082019050919050565b60006124cc601f83612a3d565b91506124d782612e13565b602082019050919050565b60006080830160008301516124fa60008601826121f0565b50602083015184820360208601526125128282612292565b91505060408301516125276040860182612545565b50606083015161253a6060860182612545565b508091505092915050565b61254e81612ac0565b82525050565b61255d81612ac0565b82525050565b600060808201905061257860008301876121ff565b818103602083015261258a81866122cb565b90506125996040830185612554565b6125a66060830184612554565b95945050505050565b600060c0820190506125c460008301896121ff565b6125d16020830188612554565b81810360408301526125e381876122cb565b90506125f26060830186612283565b6125ff6080830185612554565b61260c60a0830184612554565b979650505050505050565b600060a08201905061262c60008301886121ff565b6126396020830187612554565b818103604083015261264b8186612304565b905061265a6060830185612283565b6126676080830184612554565b9695505050505050565b600060808201905061268660008301876121ff565b6126936020830186612554565b6126a06040830185612554565b6126ad6060830184612554565b95945050505050565b600060208201905081810360008301526126d0818461220e565b905092915050565b60006020820190506126ed6000830184612283565b92915050565b6000602082019050818103600083015261270d81846122cb565b905092915050565b6000606082019050818103600083015261272f81866122cb565b905061273e6020830185612554565b61274b60408301846121ff565b949350505050565b6000606082019050818103600083015261276d81866122cb565b905061277c6020830185612554565b6127896040830184612554565b949350505050565b600060208201905081810360008301526127aa81612384565b9050919050565b600060208201905081810360008301526127ca816123a7565b9050919050565b600060208201905081810360008301526127ea816123ca565b9050919050565b6000602082019050818103600083015261280a816123ed565b9050919050565b6000602082019050818103600083015261282a81612410565b9050919050565b6000602082019050818103600083015261284a81612433565b9050919050565b6000602082019050818103600083015261286a81612456565b9050919050565b6000602082019050818103600083015261288a81612479565b9050919050565b600060208201905081810360008301526128aa8161249c565b9050919050565b600060208201905081810360008301526128ca816124bf565b9050919050565b60006020820190506128e66000830184612554565b92915050565b600060c0820190506129016000830189612554565b61290e60208301886121ff565b61291b6040830187612554565b818103606083015261292d81866122cb565b905061293c6080830185612283565b61294960a0830184612554565b979650505050505050565b60006040820190506129696000830185612554565b6129766020830184612283565b9392505050565b6000612987612998565b90506129938282612b3e565b919050565b6000604051905090565b600067ffffffffffffffff8211156129bd576129bc612c16565b5b6129c682612c45565b9050602081019050919050565b6000819050602082019050919050565b60008190508160005260206000209050919050565b600081519050919050565b600081519050919050565b6000602082019050919050565b600082825260208201905092915050565b600082825260208201905092915050565b600082825260208201905092915050565b6000612a5982612ac0565b9150612a6483612ac0565b925082821015612a7757612a76612bb8565b5b828203905092915050565b6000612a8d82612aa0565b9050919050565b60008115159050919050565b600073ffffffffffffffffffffffffffffffffffffffff82169050919050565b6000819050919050565b82818337600083830152505050565b60005b83811015612af7578082015181840152602081019050612adc565b83811115612b06576000848401525b50505050565b60006002820490506001821680612b2457607f821691505b60208210811415612b3857612b37612be7565b5b50919050565b612b4782612c45565b810181811067ffffffffffffffff82111715612b6657612b65612c16565b5b80604052505050565b6000612b7a82612ac0565b91507fffffffffffffffffffffffffffffffffffffffffffffffffffffffffffffffff821415612bad57612bac612bb8565b5b600182019050919050565b7f4e487b7100000000000000000000000000000000000000000000000000000000600052601160045260246000fd5b7f4e487b7100000000000000000000000000000000000000000000000000000000600052602260045260246000fd5b7f4e487b7100000000000000000000000000000000000000000000000000000000600052604160045260246000fd5b6000601f19601f8301169050919050565b7f6d73672e73656e646572206973206e6f74206869676865737420626964646572600082015250565b7f596f75206e6f74206f776e6572207468656e207768792073656e64696e67207460008201527f6869732073686974000000000000000000000000000000000000000000000000602082015250565b7f596f7520617265206e6f74207468652062696464657200000000000000000000600082015250565b7f42616c616e6365206973206c6f77657200000000000000000000000000000000600082015250565b7f426964206e6f7420666f756e6400000000000000000000000000000000000000600082015250565b7f53656e6420736f6d65206d6f7265000000000000000000000000000000000000600082015250565b7f4269642073686f756c642062652067726561746572207468616e20707265766960008201527f6f75732062696400000000000000000000000000000000000000000000000000602082015250565b7f416c726561647920536f6c640000000000000000000000000000000000000000600082015250565b7f53656e6420736f6d65206d6f7265206574686572000000000000000000000000600082015250565b7f53656e642073616d6520616d6f756e74206f6620657468657220746f206d6500600082015250565b612e4581612a82565b8114612e5057600080fd5b50565b612e5c81612a94565b8114612e6757600080fd5b50565b612e7381612ac0565b8114612e7e57600080fd5b5056fea2646970667358221220fcc8f86cc502e1fe2471da96d658cdc8f2016d6b3e46f502d95f01f7fa8d20a264736f6c63430008040033",
	"linkReferences": {},
	"deployedLinkReferences": {}
}