{
	"_format": "hh-sol-artifact-1",
	"contractName": "NFTMarketplace",
	"sourceName": "contracts/main.sol",
	"abi": [
		{
			"anonymous": false,
			"inputs": [
				{
					"indexed": false,
					"internalType": "address",
					"name": "bidder",
					"type": "address"
				},
				{
					"indexed": false,
					"internalType": "uint256",
					"name": "id",
					"type": "uint256"
				},
				{
					"indexed": false,
					"internalType": "uint256",
					"name": "bid",
					"type": "uint256"
				},
				{
					"indexed": false,
					"internalType": "uint256",
					"name": "index",
					"type": "uint256"
				}
			],
			"name": "BidAdded",
			"type": "event"
		},
		{
			"anonymous": false,
			"inputs": [
				{
					"indexed": false,
					"internalType": "address",
					"name": "bidder",
					"type": "address"
				},
				{
					"indexed": false,
					"internalType": "uint256",
					"name": "id",
					"type": "uint256"
				},
				{
					"indexed": false,
					"internalType": "uint256",
					"name": "bid",
					"type": "uint256"
				},
				{
					"indexed": false,
					"internalType": "uint256",
					"name": "index",
					"type": "uint256"
				}
			],
			"name": "BidRevoked",
			"type": "event"
		},
		{
			"anonymous": false,
			"inputs": [
				{
					"indexed": false,
					"internalType": "address",
					"name": "bidder",
					"type": "address"
				},
				{
					"indexed": false,
					"internalType": "uint256",
					"name": "id",
					"type": "uint256"
				},
				{
					"indexed": false,
					"internalType": "uint256",
					"name": "bid",
					"type": "uint256"
				},
				{
					"indexed": false,
					"internalType": "uint256",
					"name": "index",
					"type": "uint256"
				}
			],
			"name": "BidUpdated",
			"type": "event"
		},
		{
			"anonymous": false,
			"inputs": [
				{
					"indexed": false,
					"internalType": "address",
					"name": "bidder",
					"type": "address"
				},
				{
					"indexed": false,
					"internalType": "uint256",
					"name": "id",
					"type": "uint256"
				},
				{
					"indexed": false,
					"internalType": "uint256",
					"name": "bid",
					"type": "uint256"
				},
				{
					"indexed": false,
					"internalType": "uint256",
					"name": "index",
					"type": "uint256"
				}
			],
			"name": "BidWinner",
			"type": "event"
		},
		{
			"anonymous": false,
			"inputs": [
				{
					"indexed": false,
					"internalType": "uint256",
					"name": "id",
					"type": "uint256"
				},
				{
					"indexed": false,
					"internalType": "address",
					"name": "owner",
					"type": "address"
				},
				{
					"indexed": false,
					"internalType": "uint256",
					"name": "minAmount",
					"type": "uint256"
				},
				{
					"indexed": false,
					"internalType": "string",
					"name": "date",
					"type": "string"
				},
				{
					"indexed": false,
					"internalType": "bool",
					"name": "sold",
					"type": "bool"
				},
				{
					"indexed": false,
					"internalType": "uint256",
					"name": "highestBidderId",
					"type": "uint256"
				}
			],
			"name": "NewNFTListed",
			"type": "event"
		},
		{
			"anonymous": false,
			"inputs": [
				{
					"indexed": false,
					"internalType": "uint256",
					"name": "id",
					"type": "uint256"
				}
			],
			"name": "RemoveNFTListed",
			"type": "event"
		},
		{
			"anonymous": false,
			"inputs": [
				{
					"indexed": false,
					"internalType": "address",
					"name": "owner",
					"type": "address"
				},
				{
					"indexed": false,
					"internalType": "uint256",
					"name": "minAmount",
					"type": "uint256"
				},
				{
					"indexed": false,
					"internalType": "string",
					"name": "date",
					"type": "string"
				},
				{
					"indexed": false,
					"internalType": "bool",
					"name": "sold",
					"type": "bool"
				},
				{
					"indexed": false,
					"internalType": "uint256",
					"name": "highestBidderId",
					"type": "uint256"
				}
			],
			"name": "UpdateNFTListed",
			"type": "event"
		},
		{
			"inputs": [
				{
					"internalType": "uint256",
					"name": "_listingId",
					"type": "uint256"
				},
				{
					"internalType": "uint256",
					"name": "bid",
					"type": "uint256"
				}
			],
			"name": "addBid",
			"outputs": [],
			"stateMutability": "payable",
			"type": "function"
		},
		{
			"inputs": [
				{
					"internalType": "uint256",
					"name": "",
					"type": "uint256"
				},
				{
					"internalType": "uint256",
					"name": "",
					"type": "uint256"
				}
			],
			"name": "bids",
			"outputs": [
				{
					"internalType": "address",
					"name": "bidder",
					"type": "address"
				},
				{
					"internalType": "string",
					"name": "date",
					"type": "string"
				},
				{
					"internalType": "uint256",
					"name": "bid",
					"type": "uint256"
				},
				{
					"internalType": "uint256",
					"name": "index",
					"type": "uint256"
				}
			],
			"stateMutability": "view",
			"type": "function"
		},
		{
			"inputs": [
				{
					"internalType": "uint256",
					"name": "day",
					"type": "uint256"
				},
				{
					"internalType": "string",
					"name": "date",
					"type": "string"
				},
				{
					"internalType": "uint256",
					"name": "minAmount",
					"type": "uint256"
				}
			],
			"name": "createListing",
			"outputs": [],
			"stateMutability": "nonpayable",
			"type": "function"
		},
		{
			"inputs": [
				{
					"internalType": "uint256",
					"name": "_listingId",
					"type": "uint256"
				},
				{
					"internalType": "uint256",
					"name": "bidId",
					"type": "uint256"
				}
			],
			"name": "declareWinner",
			"outputs": [],
			"stateMutability": "nonpayable",
			"type": "function"
		},
		{
			"inputs": [
				{
					"internalType": "uint256",
					"name": "_listingId",
					"type": "uint256"
				}
			],
			"name": "deleteBid",
			"outputs": [],
			"stateMutability": "nonpayable",
			"type": "function"
		},
		{
			"inputs": [
				{
					"internalType": "uint256",
					"name": "_listingId",
					"type": "uint256"
				},
				{
					"internalType": "address",
					"name": "owner",
					"type": "address"
				}
			],
			"name": "findBid",
			"outputs": [
				{
					"internalType": "uint256",
					"name": "",
					"type": "uint256"
				},
				{
					"internalType": "bool",
					"name": "",
					"type": "bool"
				}
			],
			"stateMutability": "view",
			"type": "function"
		},
		{
			"inputs": [
				{
					"internalType": "uint256",
					"name": "_listingId",
					"type": "uint256"
				}
			],
			"name": "getBids",
			"outputs": [
				{
					"components": [
						{
							"internalType": "address",
							"name": "bidder",
							"type": "address"
						},
						{
							"internalType": "string",
							"name": "date",
							"type": "string"
						},
						{
							"internalType": "uint256",
							"name": "bid",
							"type": "uint256"
						},
						{
							"internalType": "uint256",
							"name": "index",
							"type": "uint256"
						}
					],
					"internalType": "struct NFTMarketplace.TokenBid[]",
					"name": "",
					"type": "tuple[]"
				}
			],
			"stateMutability": "view",
			"type": "function"
		},
		{
			"inputs": [
				{
					"internalType": "uint256",
					"name": "_listingId",
					"type": "uint256"
				}
			],
			"name": "getHighestBid",
			"outputs": [],
			"stateMutability": "nonpayable",
			"type": "function"
		},
		{
			"inputs": [
				{
					"internalType": "uint256",
					"name": "_listingId",
					"type": "uint256"
				}
			],
			"name": "getLength",
			"outputs": [
				{
					"internalType": "uint256",
					"name": "count",
					"type": "uint256"
				}
			],
			"stateMutability": "view",
			"type": "function"
		},
		{
			"inputs": [
				{
					"internalType": "uint256",
					"name": "_listingId",
					"type": "uint256"
				}
			],
			"name": "getNFT",
			"outputs": [
				{
					"components": [
						{
							"internalType": "address",
							"name": "owner",
							"type": "address"
						},
						{
							"internalType": "uint256",
							"name": "minAmount",
							"type": "uint256"
						},
						{
							"internalType": "string",
							"name": "date",
							"type": "string"
						},
						{
							"internalType": "bool",
							"name": "sold",
							"type": "bool"
						},
						{
							"internalType": "uint256",
							"name": "highestBidderId",
							"type": "uint256"
						},
						{
							"internalType": "uint256",
							"name": "tokenId",
							"type": "uint256"
						}
					],
					"internalType": "struct NFTMarketplace.TokenOffered",
					"name": "",
					"type": "tuple"
				}
			],
			"stateMutability": "view",
			"type": "function"
		},
		{
			"inputs": [
				{
					"internalType": "uint256",
					"name": "",
					"type": "uint256"
				}
			],
			"name": "listings",
			"outputs": [
				{
					"internalType": "address",
					"name": "owner",
					"type": "address"
				},
				{
					"internalType": "uint256",
					"name": "minAmount",
					"type": "uint256"
				},
				{
					"internalType": "string",
					"name": "date",
					"type": "string"
				},
				{
					"internalType": "bool",
					"name": "sold",
					"type": "bool"
				},
				{
					"internalType": "uint256",
					"name": "highestBidderId",
					"type": "uint256"
				},
				{
					"internalType": "uint256",
					"name": "tokenId",
					"type": "uint256"
				}
			],
			"stateMutability": "view",
			"type": "function"
		},
		{
			"inputs": [
				{
					"internalType": "uint256",
					"name": "_listingId",
					"type": "uint256"
				},
				{
					"internalType": "uint256",
					"name": "bidAmount",
					"type": "uint256"
				}
			],
			"name": "updateBid",
			"outputs": [],
			"stateMutability": "payable",
			"type": "function"
		},
		{
			"inputs": [
				{
					"internalType": "uint256",
					"name": "_listingId",
					"type": "uint256"
				},
				{
					"internalType": "uint256",
					"name": "minAmount",
					"type": "uint256"
				},
				{
					"internalType": "bool",
					"name": "_sold",
					"type": "bool"
				}
			],
			"name": "updateNFT",
			"outputs": [
				{
					"internalType": "bool",
					"name": "",
					"type": "bool"
				}
			],
			"stateMutability": "nonpayable",
			"type": "function"
		}
	],
	"bytecode": "0x608060405234801561001057600080fd5b50600160008190555061340f806100286000396000f3fe6080604052600436106100c25760003560e01c806360365e0c1161007f5780638bebfca9116100595780638bebfca91461029a5780638f288644146102c3578063d4768d5e146102ec578063de74e57b14610315576100c2565b806360365e0c146102005780636aad2b001461021c5780637b3c4baa1461025a576100c2565b80630986e647146100c7578063131d9a27146101045780631643c8c41461014157806321b23f041461016a5780632fef802914610186578063576f7ea7146101c3575b600080fd5b3480156100d357600080fd5b506100ee60048036038101906100e991906124bf565b610357565b6040516100fb9190612e03565b60405180910390f35b34801561011057600080fd5b5061012b600480360381019061012691906124bf565b610377565b6040516101389190612b88565b60405180910390f35b34801561014d57600080fd5b506101686004803603810190610163919061258b565b6104e5565b005b610184600480360381019061017f919061258b565b61071a565b005b34801561019257600080fd5b506101ad60048036038101906101a891906125c7565b610ad7565b6040516101ba9190612baa565b60405180910390f35b3480156101cf57600080fd5b506101ea60048036038101906101e591906124bf565b610d0e565b6040516101f79190612de1565b60405180910390f35b61021a6004803603810190610215919061258b565b610e5c565b005b34801561022857600080fd5b50610243600480360381019061023e91906124e8565b611118565b604051610251929190612e86565b60405180910390f35b34801561026657600080fd5b50610281600480360381019061027c919061258b565b611422565b6040516102919493929190612a35565b60405180910390f35b3480156102a657600080fd5b506102c160048036038101906102bc91906124bf565b611517565b005b3480156102cf57600080fd5b506102ea60048036038101906102e591906124bf565b61187d565b005b3480156102f857600080fd5b50610313600480360381019061030e9190612524565b611c5b565b005b34801561032157600080fd5b5061033c600480360381019061033791906124bf565b611f19565b60405161034e96959493929190612a81565b60405180910390f35b600060036000838152602001908152602001600020805490509050919050565b606060036000838152602001908152602001600020805480602002602001604051908101604052809291908181526020016000905b828210156104da57838290600052602060002090600402016040518060800160405290816000820160009054906101000a900473ffffffffffffffffffffffffffffffffffffffff1673ffffffffffffffffffffffffffffffffffffffff1673ffffffffffffffffffffffffffffffffffffffff1681526020016001820180546104359061303e565b80601f01602080910402602001604051908101604052809291908181526020018280546104619061303e565b80156104ae5780601f10610483576101008083540402835291602001916104ae565b820191906000526020600020905b81548152906001019060200180831161049157829003601f168201915b5050505050815260200160028201548152602001600382015481525050815260200190600101906103ac565b505050509050919050565b6002600083815260200190815260200160002060040154811461053d576040517f08c379a000000000000000000000000000000000000000000000000000000000815260040161053490612d61565b60405180910390fd5b60016002600084815260200190815260200160002060030160006101000a81548160ff02191690831515021790555060006003600084815260200190815260200160002082815481106105b9577f4e487b7100000000000000000000000000000000000000000000000000000000600052603260045260246000fd5b90600052602060002090600402016040518060800160405290816000820160009054906101000a900473ffffffffffffffffffffffffffffffffffffffff1673ffffffffffffffffffffffffffffffffffffffff1673ffffffffffffffffffffffffffffffffffffffff1681526020016001820180546106389061303e565b80601f01602080910402602001604051908101604052809291908181526020018280546106649061303e565b80156106b15780601f10610686576101008083540402835291602001916106b1565b820191906000526020600020905b81548152906001019060200180831161069457829003601f168201915b505050505081526020016002820154815260200160038201548152505090507fd5348def7cb47f378d627a48eb81297f7721037aadc5e13ad7f4c6647e42da1b81600001518483604001518560405161070d9493929190612b43565b60405180910390a1505050565b80341461075c576040517f08c379a000000000000000000000000000000000000000000000000000000000815260040161075390612dc1565b60405180910390fd5b6002600083815260200190815260200160002060030160009054906101000a900460ff16156107c0576040517f08c379a00000000000000000000000000000000000000000000000000000000081526004016107b790612d81565b60405180910390fd5b3373ffffffffffffffffffffffffffffffffffffffff166002600084815260200190815260200160002060000160009054906101000a900473ffffffffffffffffffffffffffffffffffffffff1673ffffffffffffffffffffffffffffffffffffffff161415610865576040517f08c379a000000000000000000000000000000000000000000000000000000000815260040161085c90612ca1565b60405180910390fd5b346002600084815260200190815260200160002060010154106108bd576040517f08c379a00000000000000000000000000000000000000000000000000000000081526004016108b490612d21565b60405180910390fd5b600080600360008581526020019081526020016000208054905014156108e65760009050610900565b600360008481526020019081526020016000208054905090505b600060405180608001604052803373ffffffffffffffffffffffffffffffffffffffff16815260200160026000878152602001908152602001600020600201805461094a9061303e565b80601f01602080910402602001604051908101604052809291908181526020018280546109769061303e565b80156109c35780601f10610998576101008083540402835291602001916109c3565b820191906000526020600020905b8154815290600101906020018083116109a657829003601f168201915b505050505081526020018481526020018381525090506003600085815260200190815260200160002081908060018154018082558091505060019003906000526020600020906004020160009091909190915060008201518160000160006101000a81548173ffffffffffffffffffffffffffffffffffffffff021916908373ffffffffffffffffffffffffffffffffffffffff1602179055506020820151816001019080519060200190610a799291906122a9565b50604082015181600201556060820151816003015550507f51f2abef6db943809a2415551e15aafa4334edcdaa8b68d668cee3bd113405883385858460600151604051610ac99493929190612b43565b60405180910390a150505050565b60006002600085815260200190815260200160002060030160009054906101000a900460ff1615610b3d576040517f08c379a0000000000000000000000000000000000000000000000000000000008152600401610b3490612d81565b60405180910390fd5b3373ffffffffffffffffffffffffffffffffffffffff166002600086815260200190815260200160002060000160009054906101000a900473ffffffffffffffffffffffffffffffffffffffff1673ffffffffffffffffffffffffffffffffffffffff1614610be1576040517f08c379a0000000000000000000000000000000000000000000000000000000008152600401610bd890612ca1565b60405180910390fd5b826002600086815260200190815260200160002060010181905550816002600086815260200190815260200160002060030160006101000a81548160ff0219169083151502179055507fb0339d94d8c3ab22df620b54a38c955bba11861229652cb9e8f1f513a48c81436002600086815260200190815260200160002060000160009054906101000a900473ffffffffffffffffffffffffffffffffffffffff166002600087815260200190815260200160002060010154600260008881526020019081526020016000206002016002600089815260200190815260200160002060030160009054906101000a900460ff16600260008a815260200190815260200160002060040154604051610cfb959493929190612ae9565b60405180910390a1600190509392505050565b610d1661232f565b600260008381526020019081526020016000206040518060c00160405290816000820160009054906101000a900473ffffffffffffffffffffffffffffffffffffffff1673ffffffffffffffffffffffffffffffffffffffff1673ffffffffffffffffffffffffffffffffffffffff16815260200160018201548152602001600282018054610da49061303e565b80601f0160208091040260200160405190810160405280929190818152602001828054610dd09061303e565b8015610e1d5780601f10610df257610100808354040283529160200191610e1d565b820191906000526020600020905b815481529060010190602001808311610e0057829003601f168201915b505050505081526020016003820160009054906101000a900460ff16151515158152602001600482015481526020016005820154815250509050919050565b600080610e698433611118565b809250819350505080610eb1576040517f08c379a0000000000000000000000000000000000000000000000000000000008152600401610ea890612d01565b60405180910390fd5b6000600360008681526020019081526020016000208381548110610efe577f4e487b7100000000000000000000000000000000000000000000000000000000600052603260045260246000fd5b9060005260206000209060040201905080600201548411610f54576040517f08c379a0000000000000000000000000000000000000000000000000000000008152600401610f4b90612d41565b60405180910390fd5b34816002015485610f659190612f80565b14610fa5576040517f08c379a0000000000000000000000000000000000000000000000000000000008152600401610f9c90612da1565b60405180910390fd5b8060000160009054906101000a900473ffffffffffffffffffffffffffffffffffffffff1673ffffffffffffffffffffffffffffffffffffffff163373ffffffffffffffffffffffffffffffffffffffff1614611037576040517f08c379a000000000000000000000000000000000000000000000000000000000815260040161102e90612cc1565b60405180910390fd5b61109f6040518060400160405280600581526020017f256420257300000000000000000000000000000000000000000000000000000081525082600201548360000160009054906101000a900473ffffffffffffffffffffffffffffffffffffffff1661200a565b8381600201819055507f89b364be14234d1dcdb97559c44f619bdc1157c3c654af52c7851e31afa9aadd8160000160009054906101000a900473ffffffffffffffffffffffffffffffffffffffff1686836002015484600301546040516111099493929190612b43565b60405180910390a15050505050565b600080600060036000868152602001908152602001600020805480602002602001604051908101604052809291908181526020016000905b8282101561127e57838290600052602060002090600402016040518060800160405290816000820160009054906101000a900473ffffffffffffffffffffffffffffffffffffffff1673ffffffffffffffffffffffffffffffffffffffff1673ffffffffffffffffffffffffffffffffffffffff1681526020016001820180546111d99061303e565b80601f01602080910402602001604051908101604052809291908181526020018280546112059061303e565b80156112525780601f1061122757610100808354040283529160200191611252565b820191906000526020600020905b81548152906001019060200180831161123557829003601f168201915b505050505081526020016002820154815260200160038201548152505081526020019060010190611150565b50505050905060005b815181101561136b576113586040518060400160405280600581526020017f2564202573000000000000000000000000000000000000000000000000000000815250838381518110611302577f4e487b7100000000000000000000000000000000000000000000000000000000600052603260045260246000fd5b602002602001015160400151848481518110611347577f4e487b7100000000000000000000000000000000000000000000000000000000600052603260045260246000fd5b60200260200101516000015161200a565b8080611363906130a1565b915050611287565b5060005b8151811015611411578473ffffffffffffffffffffffffffffffffffffffff168282815181106113c8577f4e487b7100000000000000000000000000000000000000000000000000000000600052603260045260246000fd5b60200260200101516000015173ffffffffffffffffffffffffffffffffffffffff1614156113fe5780600193509350505061141b565b8080611409906130a1565b91505061136f565b5060008092509250505b9250929050565b6003602052816000526040600020818154811061143e57600080fd5b9060005260206000209060040201600091509150508060000160009054906101000a900473ffffffffffffffffffffffffffffffffffffffff16908060010180546114889061303e565b80601f01602080910402602001604051908101604052809291908181526020018280546114b49061303e565b80156115015780601f106114d657610100808354040283529160200191611501565b820191906000526020600020905b8154815290600101906020018083116114e457829003601f168201915b5050505050908060020154908060030154905084565b6000806115248333611118565b80925081935050508061156c576040517f08c379a000000000000000000000000000000000000000000000000000000000815260040161156390612d01565b60405180910390fd5b60006003600085815260200190815260200160002083815481106115b9577f4e487b7100000000000000000000000000000000000000000000000000000000600052603260045260246000fd5b906000526020600020906004020190508060000160009054906101000a900473ffffffffffffffffffffffffffffffffffffffff1673ffffffffffffffffffffffffffffffffffffffff163373ffffffffffffffffffffffffffffffffffffffff161461165b576040517f08c379a000000000000000000000000000000000000000000000000000000000815260040161165290612cc1565b60405180910390fd5b61169f6040518060400160405280600581526020017f25642025640000000000000000000000000000000000000000000000000000008152504783600201546120a9565b47816002015411156116e6576040517f08c379a00000000000000000000000000000000000000000000000000000000081526004016116dd90612ce1565b60405180910390fd5b3373ffffffffffffffffffffffffffffffffffffffff166108fc82600201549081150290604051600060405180830381858888f19350505050158015611730573d6000803e3d6000fd5b5061176f6040518060400160405280600b81526020017f4e6f742050726f626c656d000000000000000000000000000000000000000000815250612148565b6003600085815260200190815260200160002083815481106117ba577f4e487b7100000000000000000000000000000000000000000000000000000000600052603260045260246000fd5b9060005260206000209060040201600080820160006101000a81549073ffffffffffffffffffffffffffffffffffffffff0219169055600182016000611800919061237d565b6002820160009055600382016000905550507fbbee5af4aac7e8d452fe09e6cb607c11d73729fa32b258a2cc37abbd1b979fb68160000160009054906101000a900473ffffffffffffffffffffffffffffffffffffffff168583600201548660405161186f9493929190612b43565b60405180910390a150505050565b600060036000838152602001908152602001600020805480602002602001604051908101604052809291908181526020016000905b828210156119e057838290600052602060002090600402016040518060800160405290816000820160009054906101000a900473ffffffffffffffffffffffffffffffffffffffff1673ffffffffffffffffffffffffffffffffffffffff1673ffffffffffffffffffffffffffffffffffffffff16815260200160018201805461193b9061303e565b80601f01602080910402602001604051908101604052809291908181526020018280546119679061303e565b80156119b45780601f10611989576101008083540402835291602001916119b4565b820191906000526020600020905b81548152906001019060200180831161199757829003601f168201915b5050505050815260200160028201548152602001600382015481525050815260200190600101906118b2565b5050505090506119ee6123bd565b60005b8251811015611bb157611ac26040518060400160405280600a81526020017f2573202564206269647300000000000000000000000000000000000000000000815250848381518110611a6c577f4e487b7100000000000000000000000000000000000000000000000000000000600052603260045260246000fd5b602002602001015160000151858481518110611ab1577f4e487b7100000000000000000000000000000000000000000000000000000000600052603260045260246000fd5b6020026020010151604001516121e1565b611b0a6040518060400160405280600e81526020017f2573202564206269647373737373000000000000000000000000000000000000815250836000015184604001516121e1565b8160400151838281518110611b48577f4e487b7100000000000000000000000000000000000000000000000000000000600052603260045260246000fd5b6020026020010151604001511115611b9e57828181518110611b93577f4e487b7100000000000000000000000000000000000000000000000000000000600052603260045260246000fd5b602002602001015191505b8080611ba9906130a1565b9150506119f1565b506000600260008581526020019081526020016000209050816060015181600401819055507fb0339d94d8c3ab22df620b54a38c955bba11861229652cb9e8f1f513a48c81438160000160009054906101000a900473ffffffffffffffffffffffffffffffffffffffff168260010154836002018460030160009054906101000a900460ff168560040154604051611c4d959493929190612ae9565b60405180910390a150505050565b6000600260008581526020019081526020016000206040518060c00160405290816000820160009054906101000a900473ffffffffffffffffffffffffffffffffffffffff1673ffffffffffffffffffffffffffffffffffffffff1673ffffffffffffffffffffffffffffffffffffffff16815260200160018201548152602001600282018054611ceb9061303e565b80601f0160208091040260200160405190810160405280929190818152602001828054611d179061303e565b8015611d645780601f10611d3957610100808354040283529160200191611d64565b820191906000526020600020905b815481529060010190602001808311611d4757829003601f168201915b505050505081526020016003820160009054906101000a900460ff161515151581526020016004820154815260200160058201548152505090508281604001819052508181602001818152505033816000019073ffffffffffffffffffffffffffffffffffffffff16908173ffffffffffffffffffffffffffffffffffffffff168152505060008160600190151590811515815250506000816080018181525050806002600086815260200190815260200160002060008201518160000160006101000a81548173ffffffffffffffffffffffffffffffffffffffff021916908373ffffffffffffffffffffffffffffffffffffffff160217905550602082015181600101556040820151816002019080519060200190611e869291906122a9565b5060608201518160030160006101000a81548160ff0219169083151502179055506080820151816004015560a082015181600501559050507fb36cfae4de2a53d0698849e3ed66ebcecf14aaeff2bfe993d8999cd0d94613568482600001518360200151846040015185606001518660800151604051611f0b96959493929190612e1e565b60405180910390a150505050565b60026020528060005260406000206000915090508060000160009054906101000a900473ffffffffffffffffffffffffffffffffffffffff1690806001015490806002018054611f689061303e565b80601f0160208091040260200160405190810160405280929190818152602001828054611f949061303e565b8015611fe15780601f10611fb657610100808354040283529160200191611fe1565b820191906000526020600020905b815481529060010190602001808311611fc457829003601f168201915b5050505050908060030160009054906101000a900460ff16908060040154908060050154905086565b6120a483838360405160240161202293929190612c25565b6040516020818303038152906040527fe3849f79000000000000000000000000000000000000000000000000000000007bffffffffffffffffffffffffffffffffffffffffffffffffffffffff19166020820180517bffffffffffffffffffffffffffffffffffffffffffffffffffffffff8381831617835250505050612280565b505050565b6121438383836040516024016120c193929190612c63565b6040516020818303038152906040527f969cdd03000000000000000000000000000000000000000000000000000000007bffffffffffffffffffffffffffffffffffffffffffffffffffffffff19166020820180517bffffffffffffffffffffffffffffffffffffffffffffffffffffffff8381831617835250505050612280565b505050565b6121de8160405160240161215c9190612bc5565b6040516020818303038152906040527f41304fac000000000000000000000000000000000000000000000000000000007bffffffffffffffffffffffffffffffffffffffffffffffffffffffff19166020820180517bffffffffffffffffffffffffffffffffffffffffffffffffffffffff8381831617835250505050612280565b50565b61227b8383836040516024016121f993929190612be7565b6040516020818303038152906040527f07c81217000000000000000000000000000000000000000000000000000000007bffffffffffffffffffffffffffffffffffffffffffffffffffffffff19166020820180517bffffffffffffffffffffffffffffffffffffffffffffffffffffffff8381831617835250505050612280565b505050565b60008151905060006a636f6e736f6c652e6c6f679050602083016000808483855afa5050505050565b8280546122b59061303e565b90600052602060002090601f0160209004810192826122d7576000855561231e565b82601f106122f057805160ff191683800117855561231e565b8280016001018555821561231e579182015b8281111561231d578251825591602001919060010190612302565b5b50905061232b91906123fb565b5090565b6040518060c00160405280600073ffffffffffffffffffffffffffffffffffffffff168152602001600081526020016060815260200160001515815260200160008152602001600081525090565b5080546123899061303e565b6000825580601f1061239b57506123ba565b601f0160209004906000526020600020908101906123b991906123fb565b5b50565b6040518060800160405280600073ffffffffffffffffffffffffffffffffffffffff1681526020016060815260200160008152602001600081525090565b5b808211156124145760008160009055506001016123fc565b5090565b600061242b61242684612ed4565b612eaf565b90508281526020810184848401111561244357600080fd5b61244e848285612ffc565b509392505050565b60008135905061246581613394565b92915050565b60008135905061247a816133ab565b92915050565b600082601f83011261249157600080fd5b81356124a1848260208601612418565b91505092915050565b6000813590506124b9816133c2565b92915050565b6000602082840312156124d157600080fd5b60006124df848285016124aa565b91505092915050565b600080604083850312156124fb57600080fd5b6000612509858286016124aa565b925050602061251a85828601612456565b9150509250929050565b60008060006060848603121561253957600080fd5b6000612547868287016124aa565b935050602084013567ffffffffffffffff81111561256457600080fd5b61257086828701612480565b9250506040612581868287016124aa565b9150509250925092565b6000806040838503121561259e57600080fd5b60006125ac858286016124aa565b92505060206125bd858286016124aa565b9150509250929050565b6000806000606084860312156125dc57600080fd5b60006125ea868287016124aa565b93505060206125fb868287016124aa565b925050604061260c8682870161246b565b9150509250925092565b6000612622838361292b565b905092915050565b61263381612fb4565b82525050565b61264281612fb4565b82525050565b600061265382612f2a565b61265d8185612f4d565b93508360208202850161266f85612f05565b8060005b858110156126ab578484038952815161268c8582612616565b945061269783612f40565b925060208a01995050600181019050612673565b50829750879550505050505092915050565b6126c681612fc6565b82525050565b6126d581612fc6565b82525050565b60006126e682612f35565b6126f08185612f5e565b935061270081856020860161300b565b61270981613177565b840191505092915050565b600061271f82612f35565b6127298185612f6f565b935061273981856020860161300b565b61274281613177565b840191505092915050565b6000815461275a8161303e565b6127648186612f6f565b9450600182166000811461277f5760018114612791576127c4565b60ff19831686526020860193506127c4565b61279a85612f15565b60005b838110156127bc5781548189015260018201915060208101905061279d565b808801955050505b50505092915050565b60006127da602883612f6f565b91506127e582613188565b604082019050919050565b60006127fd601683612f6f565b9150612808826131d7565b602082019050919050565b6000612820601083612f6f565b915061282b82613200565b602082019050919050565b6000612843600d83612f6f565b915061284e82613229565b602082019050919050565b6000612866600e83612f6f565b915061287182613252565b602082019050919050565b6000612889602783612f6f565b91506128948261327b565b604082019050919050565b60006128ac602183612f6f565b91506128b7826132ca565b604082019050919050565b60006128cf600c83612f6f565b91506128da82613319565b602082019050919050565b60006128f2601f83612f6f565b91506128fd82613342565b602082019050919050565b6000612915601f83612f6f565b91506129208261336b565b602082019050919050565b6000608083016000830151612943600086018261262a565b506020830151848203602086015261295b82826126db565b91505060408301516129706040860182612a17565b5060608301516129836060860182612a17565b508091505092915050565b600060c0830160008301516129a6600086018261262a565b5060208301516129b96020860182612a17565b50604083015184820360408601526129d182826126db565b91505060608301516129e660608601826126bd565b5060808301516129f96080860182612a17565b5060a0830151612a0c60a0860182612a17565b508091505092915050565b612a2081612ff2565b82525050565b612a2f81612ff2565b82525050565b6000608082019050612a4a6000830187612639565b8181036020830152612a5c8186612714565b9050612a6b6040830185612a26565b612a786060830184612a26565b95945050505050565b600060c082019050612a966000830189612639565b612aa36020830188612a26565b8181036040830152612ab58187612714565b9050612ac460608301866126cc565b612ad16080830185612a26565b612ade60a0830184612a26565b979650505050505050565b600060a082019050612afe6000830188612639565b612b0b6020830187612a26565b8181036040830152612b1d818661274d565b9050612b2c60608301856126cc565b612b396080830184612a26565b9695505050505050565b6000608082019050612b586000830187612639565b612b656020830186612a26565b612b726040830185612a26565b612b7f6060830184612a26565b95945050505050565b60006020820190508181036000830152612ba28184612648565b905092915050565b6000602082019050612bbf60008301846126cc565b92915050565b60006020820190508181036000830152612bdf8184612714565b905092915050565b60006060820190508181036000830152612c018186612714565b9050612c106020830185612639565b612c1d6040830184612a26565b949350505050565b60006060820190508181036000830152612c3f8186612714565b9050612c4e6020830185612a26565b612c5b6040830184612639565b949350505050565b60006060820190508181036000830152612c7d8186612714565b9050612c8c6020830185612a26565b612c996040830184612a26565b949350505050565b60006020820190508181036000830152612cba816127cd565b9050919050565b60006020820190508181036000830152612cda816127f0565b9050919050565b60006020820190508181036000830152612cfa81612813565b9050919050565b60006020820190508181036000830152612d1a81612836565b9050919050565b60006020820190508181036000830152612d3a81612859565b9050919050565b60006020820190508181036000830152612d5a8161287c565b9050919050565b60006020820190508181036000830152612d7a8161289f565b9050919050565b60006020820190508181036000830152612d9a816128c2565b9050919050565b60006020820190508181036000830152612dba816128e5565b9050919050565b60006020820190508181036000830152612dda81612908565b9050919050565b60006020820190508181036000830152612dfb818461298e565b905092915050565b6000602082019050612e186000830184612a26565b92915050565b600060c082019050612e336000830189612a26565b612e406020830188612639565b612e4d6040830187612a26565b8181036060830152612e5f8186612714565b9050612e6e60808301856126cc565b612e7b60a0830184612a26565b979650505050505050565b6000604082019050612e9b6000830185612a26565b612ea860208301846126cc565b9392505050565b6000612eb9612eca565b9050612ec58282613070565b919050565b6000604051905090565b600067ffffffffffffffff821115612eef57612eee613148565b5b612ef882613177565b9050602081019050919050565b6000819050602082019050919050565b60008190508160005260206000209050919050565b600081519050919050565b600081519050919050565b6000602082019050919050565b600082825260208201905092915050565b600082825260208201905092915050565b600082825260208201905092915050565b6000612f8b82612ff2565b9150612f9683612ff2565b925082821015612fa957612fa86130ea565b5b828203905092915050565b6000612fbf82612fd2565b9050919050565b60008115159050919050565b600073ffffffffffffffffffffffffffffffffffffffff82169050919050565b6000819050919050565b82818337600083830152505050565b60005b8381101561302957808201518184015260208101905061300e565b83811115613038576000848401525b50505050565b6000600282049050600182168061305657607f821691505b6020821081141561306a57613069613119565b5b50919050565b61307982613177565b810181811067ffffffffffffffff8211171561309857613097613148565b5b80604052505050565b60006130ac82612ff2565b91507fffffffffffffffffffffffffffffffffffffffffffffffffffffffffffffffff8214156130df576130de6130ea565b5b600182019050919050565b7f4e487b7100000000000000000000000000000000000000000000000000000000600052601160045260246000fd5b7f4e487b7100000000000000000000000000000000000000000000000000000000600052602260045260246000fd5b7f4e487b7100000000000000000000000000000000000000000000000000000000600052604160045260246000fd5b6000601f19601f8301169050919050565b7f596f75206e6f74206f776e6572207468656e207768792073656e64696e67207460008201527f6869732073686974000000000000000000000000000000000000000000000000602082015250565b7f596f7520617265206e6f74207468652062696464657200000000000000000000600082015250565b7f42616c616e6365206973206c6f77657200000000000000000000000000000000600082015250565b7f426964206e6f7420666f756e6400000000000000000000000000000000000000600082015250565b7f53656e6420736f6d65206d6f7265000000000000000000000000000000000000600082015250565b7f4269642073686f756c642062652067726561746572207468616e20707265766960008201527f6f75732062696400000000000000000000000000000000000000000000000000602082015250565b7f6d73672e73656e646572206973206e6f7420682069676865737420626964646560008201527f7200000000000000000000000000000000000000000000000000000000000000602082015250565b7f416c726561647920536f6c640000000000000000000000000000000000000000600082015250565b7f53656e6420457861637420446966666572656e6365206f6620416d6f756e7400600082015250565b7f53656e642073616d6520616d6f756e74206f6620657468657220746f206d6500600082015250565b61339d81612fb4565b81146133a857600080fd5b50565b6133b481612fc6565b81146133bf57600080fd5b50565b6133cb81612ff2565b81146133d657600080fd5b5056fea26469706673582212201b705b34765abebc6c32a87faa939bfcd8f287af6a365c1b4741d494880320c464736f6c63430008040033",
	"linkReferences": {},
	"deployedLinkReferences": {}
}