{
	"_format": "hh-sol-artifact-1",
	"contractName": "NFTMint",
	"sourceName": "contracts/mint.sol",
	"abi": [
		{
			"inputs": [
				{
					"internalType": "address",
					"name": "marketplaceAddress",
					"type": "address"
				}
			],
			"stateMutability": "nonpayable",
			"type": "constructor"
		},
		{
			"anonymous": false,
			"inputs": [
				{
					"indexed": true,
					"internalType": "address",
					"name": "owner",
					"type": "address"
				},
				{
					"indexed": true,
					"internalType": "address",
					"name": "approved",
					"type": "address"
				},
				{
					"indexed": true,
					"internalType": "uint256",
					"name": "tokenId",
					"type": "uint256"
				}
			],
			"name": "Approval",
			"type": "event"
		},
		{
			"anonymous": false,
			"inputs": [
				{
					"indexed": true,
					"internalType": "address",
					"name": "owner",
					"type": "address"
				},
				{
					"indexed": true,
					"internalType": "address",
					"name": "operator",
					"type": "address"
				},
				{
					"indexed": false,
					"internalType": "bool",
					"name": "approved",
					"type": "bool"
				}
			],
			"name": "ApprovalForAll",
			"type": "event"
		},
		{
			"anonymous": false,
			"inputs": [
				{
					"indexed": true,
					"internalType": "address",
					"name": "previousOwner",
					"type": "address"
				},
				{
					"indexed": true,
					"internalType": "address",
					"name": "newOwner",
					"type": "address"
				}
			],
			"name": "OwnershipTransferred",
			"type": "event"
		},
		{
			"anonymous": false,
			"inputs": [
				{
					"indexed": true,
					"internalType": "address",
					"name": "from",
					"type": "address"
				},
				{
					"indexed": true,
					"internalType": "address",
					"name": "to",
					"type": "address"
				},
				{
					"indexed": true,
					"internalType": "uint256",
					"name": "tokenId",
					"type": "uint256"
				}
			],
			"name": "Transfer",
			"type": "event"
		},
		{
			"inputs": [
				{
					"internalType": "address",
					"name": "to",
					"type": "address"
				},
				{
					"internalType": "uint256",
					"name": "tokenId",
					"type": "uint256"
				}
			],
			"name": "approve",
			"outputs": [],
			"stateMutability": "nonpayable",
			"type": "function"
		},
		{
			"inputs": [
				{
					"internalType": "address",
					"name": "owner",
					"type": "address"
				}
			],
			"name": "balanceOf",
			"outputs": [
				{
					"internalType": "uint256",
					"name": "",
					"type": "uint256"
				}
			],
			"stateMutability": "view",
			"type": "function"
		},
		{
			"inputs": [
				{
					"internalType": "uint256",
					"name": "tokenId",
					"type": "uint256"
				}
			],
			"name": "getApproved",
			"outputs": [
				{
					"internalType": "address",
					"name": "",
					"type": "address"
				}
			],
			"stateMutability": "view",
			"type": "function"
		},
		{
			"inputs": [
				{
					"internalType": "address",
					"name": "owner",
					"type": "address"
				},
				{
					"internalType": "address",
					"name": "operator",
					"type": "address"
				}
			],
			"name": "isApprovedForAll",
			"outputs": [
				{
					"internalType": "bool",
					"name": "",
					"type": "bool"
				}
			],
			"stateMutability": "view",
			"type": "function"
		},
		{
			"inputs": [
				{
					"internalType": "string",
					"name": "_tokenData",
					"type": "string"
				}
			],
			"name": "mint",
			"outputs": [
				{
					"internalType": "uint256",
					"name": "",
					"type": "uint256"
				}
			],
			"stateMutability": "nonpayable",
			"type": "function"
		},
		{
			"inputs": [],
			"name": "name",
			"outputs": [
				{
					"internalType": "string",
					"name": "",
					"type": "string"
				}
			],
			"stateMutability": "view",
			"type": "function"
		},
		{
			"inputs": [],
			"name": "owner",
			"outputs": [
				{
					"internalType": "address",
					"name": "",
					"type": "address"
				}
			],
			"stateMutability": "view",
			"type": "function"
		},
		{
			"inputs": [
				{
					"internalType": "uint256",
					"name": "tokenId",
					"type": "uint256"
				}
			],
			"name": "ownerOf",
			"outputs": [
				{
					"internalType": "address",
					"name": "",
					"type": "address"
				}
			],
			"stateMutability": "view",
			"type": "function"
		},
		{
			"inputs": [],
			"name": "renounceOwnership",
			"outputs": [],
			"stateMutability": "nonpayable",
			"type": "function"
		},
		{
			"inputs": [
				{
					"internalType": "address",
					"name": "from",
					"type": "address"
				},
				{
					"internalType": "address",
					"name": "to",
					"type": "address"
				},
				{
					"internalType": "uint256",
					"name": "tokenId",
					"type": "uint256"
				}
			],
			"name": "safeTransferFrom",
			"outputs": [],
			"stateMutability": "nonpayable",
			"type": "function"
		},
		{
			"inputs": [
				{
					"internalType": "address",
					"name": "from",
					"type": "address"
				},
				{
					"internalType": "address",
					"name": "to",
					"type": "address"
				},
				{
					"internalType": "uint256",
					"name": "tokenId",
					"type": "uint256"
				},
				{
					"internalType": "bytes",
					"name": "_data",
					"type": "bytes"
				}
			],
			"name": "safeTransferFrom",
			"outputs": [],
			"stateMutability": "nonpayable",
			"type": "function"
		},
		{
			"inputs": [
				{
					"internalType": "address",
					"name": "operator",
					"type": "address"
				},
				{
					"internalType": "bool",
					"name": "approved",
					"type": "bool"
				}
			],
			"name": "setApprovalForAll",
			"outputs": [],
			"stateMutability": "nonpayable",
			"type": "function"
		},
		{
			"inputs": [
				{
					"internalType": "bytes4",
					"name": "interfaceId",
					"type": "bytes4"
				}
			],
			"name": "supportsInterface",
			"outputs": [
				{
					"internalType": "bool",
					"name": "",
					"type": "bool"
				}
			],
			"stateMutability": "view",
			"type": "function"
		},
		{
			"inputs": [],
			"name": "symbol",
			"outputs": [
				{
					"internalType": "string",
					"name": "",
					"type": "string"
				}
			],
			"stateMutability": "view",
			"type": "function"
		},
		{
			"inputs": [
				{
					"internalType": "uint256",
					"name": "tokenId",
					"type": "uint256"
				}
			],
			"name": "tokenURI",
			"outputs": [
				{
					"internalType": "string",
					"name": "",
					"type": "string"
				}
			],
			"stateMutability": "view",
			"type": "function"
		},
		{
			"inputs": [
				{
					"internalType": "address",
					"name": "from",
					"type": "address"
				},
				{
					"internalType": "address",
					"name": "to",
					"type": "address"
				},
				{
					"internalType": "uint256",
					"name": "tokenId",
					"type": "uint256"
				}
			],
			"name": "transferFrom",
			"outputs": [],
			"stateMutability": "nonpayable",
			"type": "function"
		},
		{
			"inputs": [
				{
					"internalType": "address",
					"name": "newOwner",
					"type": "address"
				}
			],
			"name": "transferOwnership",
			"outputs": [],
			"stateMutability": "nonpayable",
			"type": "function"
		}
	],
	"bytecode": "0x60806040523480156200001157600080fd5b506040516200331c3803806200331c8339818101604052810190620000379190620002d4565b6040518060400160405280600b81526020017f43616c656e6461724e46540000000000000000000000000000000000000000008152506040518060400160405280600681526020017f53515541524500000000000000000000000000000000000000000000000000008152508160009080519060200190620000bb9291906200020d565b508060019080519060200190620000d49291906200020d565b505050620000f7620000eb6200013f60201b60201c565b6200014760201b60201c565b80600960006101000a81548173ffffffffffffffffffffffffffffffffffffffff021916908373ffffffffffffffffffffffffffffffffffffffff16021790555050620003b3565b600033905090565b6000600760009054906101000a900473ffffffffffffffffffffffffffffffffffffffff16905081600760006101000a81548173ffffffffffffffffffffffffffffffffffffffff021916908373ffffffffffffffffffffffffffffffffffffffff1602179055508173ffffffffffffffffffffffffffffffffffffffff168173ffffffffffffffffffffffffffffffffffffffff167f8be0079c531659141344cd1fd0a4f28419497f9722a3daafe3b4186f6b6457e060405160405180910390a35050565b8280546200021b9062000334565b90600052602060002090601f0160209004810192826200023f57600085556200028b565b82601f106200025a57805160ff19168380011785556200028b565b828001600101855582156200028b579182015b828111156200028a5782518255916020019190600101906200026d565b5b5090506200029a91906200029e565b5090565b5b80821115620002b95760008160009055506001016200029f565b5090565b600081519050620002ce8162000399565b92915050565b600060208284031215620002e757600080fd5b6000620002f784828501620002bd565b91505092915050565b60006200030d8262000314565b9050919050565b600073ffffffffffffffffffffffffffffffffffffffff82169050919050565b600060028204905060018216806200034d57607f821691505b602082108114156200036457620003636200036a565b5b50919050565b7f4e487b7100000000000000000000000000000000000000000000000000000000600052602260045260246000fd5b620003a48162000300565b8114620003b057600080fd5b50565b612f5980620003c36000396000f3fe608060405234801561001057600080fd5b506004361061010b5760003560e01c8063715018a6116100a2578063b88d4fde11610071578063b88d4fde146102a4578063c87b56dd146102c0578063d85d3d27146102f0578063e985e9c514610320578063f2fde38b146103505761010b565b8063715018a6146102425780638da5cb5b1461024c57806395d89b411461026a578063a22cb465146102885761010b565b806323b872dd116100de57806323b872dd146101aa57806342842e0e146101c65780636352211e146101e257806370a08231146102125761010b565b806301ffc9a71461011057806306fdde0314610140578063081812fc1461015e578063095ea7b31461018e575b600080fd5b61012a60048036038101906101259190611ec7565b61036c565b6040516101379190612354565b60405180910390f35b61014861044e565b604051610155919061236f565b60405180910390f35b61017860048036038101906101739190611f5a565b6104e0565b60405161018591906122ed565b60405180910390f35b6101a860048036038101906101a39190611e8b565b610565565b005b6101c460048036038101906101bf9190611d85565b61067d565b005b6101e060048036038101906101db9190611d85565b6106dd565b005b6101fc60048036038101906101f79190611f5a565b6106fd565b60405161020991906122ed565b60405180910390f35b61022c60048036038101906102279190611d20565b6107af565b60405161023991906125d1565b60405180910390f35b61024a610867565b005b6102546108ef565b60405161026191906122ed565b60405180910390f35b610272610919565b60405161027f919061236f565b60405180910390f35b6102a2600480360381019061029d9190611e4f565b6109ab565b005b6102be60048036038101906102b99190611dd4565b6109c1565b005b6102da60048036038101906102d59190611f5a565b610a23565b6040516102e7919061236f565b60405180910390f35b61030a60048036038101906103059190611f19565b610b75565b60405161031791906125d1565b60405180910390f35b61033a60048036038101906103359190611d49565b610bd8565b6040516103479190612354565b60405180910390f35b61036a60048036038101906103659190611d20565b610c6c565b005b60007f80ac58cd000000000000000000000000000000000000000000000000000000007bffffffffffffffffffffffffffffffffffffffffffffffffffffffff1916827bffffffffffffffffffffffffffffffffffffffffffffffffffffffff1916148061043757507f5b5e139f000000000000000000000000000000000000000000000000000000007bffffffffffffffffffffffffffffffffffffffffffffffffffffffff1916827bffffffffffffffffffffffffffffffffffffffffffffffffffffffff1916145b80610447575061044682610d64565b5b9050919050565b60606000805461045d90612827565b80601f016020809104026020016040519081016040528092919081815260200182805461048990612827565b80156104d65780601f106104ab576101008083540402835291602001916104d6565b820191906000526020600020905b8154815290600101906020018083116104b957829003601f168201915b5050505050905090565b60006104eb82610dce565b61052a576040517f08c379a000000000000000000000000000000000000000000000000000000000815260040161052190612511565b60405180910390fd5b6004600083815260200190815260200160002060009054906101000a900473ffffffffffffffffffffffffffffffffffffffff169050919050565b6000610570826106fd565b90508073ffffffffffffffffffffffffffffffffffffffff168373ffffffffffffffffffffffffffffffffffffffff1614156105e1576040517f08c379a00000000000000000000000000000000000000000000000000000000081526004016105d890612591565b60405180910390fd5b8073ffffffffffffffffffffffffffffffffffffffff16610600610e3a565b73ffffffffffffffffffffffffffffffffffffffff16148061062f575061062e81610629610e3a565b610bd8565b5b61066e576040517f08c379a000000000000000000000000000000000000000000000000000000000815260040161066590612451565b60405180910390fd5b6106788383610e42565b505050565b61068e610688610e3a565b82610efb565b6106cd576040517f08c379a00000000000000000000000000000000000000000000000000000000081526004016106c4906125b1565b60405180910390fd5b6106d8838383610fd9565b505050565b6106f8838383604051806020016040528060008152506109c1565b505050565b6000806002600084815260200190815260200160002060009054906101000a900473ffffffffffffffffffffffffffffffffffffffff169050600073ffffffffffffffffffffffffffffffffffffffff168173ffffffffffffffffffffffffffffffffffffffff1614156107a6576040517f08c379a000000000000000000000000000000000000000000000000000000000815260040161079d90612491565b60405180910390fd5b80915050919050565b60008073ffffffffffffffffffffffffffffffffffffffff168273ffffffffffffffffffffffffffffffffffffffff161415610820576040517f08c379a000000000000000000000000000000000000000000000000000000000815260040161081790612471565b60405180910390fd5b600360008373ffffffffffffffffffffffffffffffffffffffff1673ffffffffffffffffffffffffffffffffffffffff168152602001908152602001600020549050919050565b61086f610e3a565b73ffffffffffffffffffffffffffffffffffffffff1661088d6108ef565b73ffffffffffffffffffffffffffffffffffffffff16146108e3576040517f08c379a00000000000000000000000000000000000000000000000000000000081526004016108da90612531565b60405180910390fd5b6108ed6000611235565b565b6000600760009054906101000a900473ffffffffffffffffffffffffffffffffffffffff16905090565b60606001805461092890612827565b80601f016020809104026020016040519081016040528092919081815260200182805461095490612827565b80156109a15780601f10610976576101008083540402835291602001916109a1565b820191906000526020600020905b81548152906001019060200180831161098457829003601f168201915b5050505050905090565b6109bd6109b6610e3a565b83836112fb565b5050565b6109d26109cc610e3a565b83610efb565b610a11576040517f08c379a0000000000000000000000000000000000000000000000000000000008152600401610a08906125b1565b60405180910390fd5b610a1d84848484611468565b50505050565b6060610a2e82610dce565b610a6d576040517f08c379a0000000000000000000000000000000000000000000000000000000008152600401610a64906124f1565b60405180910390fd5b6000600660008481526020019081526020016000208054610a8d90612827565b80601f0160208091040260200160405190810160405280929190818152602001828054610ab990612827565b8015610b065780601f10610adb57610100808354040283529160200191610b06565b820191906000526020600020905b815481529060010190602001808311610ae957829003601f168201915b505050505090506000610b176114c4565b9050600081511415610b2d578192505050610b70565b600082511115610b62578082604051602001610b4a9291906122c9565b60405160208183030381529060405292505050610b70565b610b6b846114db565b925050505b919050565b600080610b826008611582565b9050610b8e3382611590565b610b98818461175e565b610bc5600960009054906101000a900473ffffffffffffffffffffffffffffffffffffffff1660016109ab565b610bcf60086117d2565b80915050919050565b6000600560008473ffffffffffffffffffffffffffffffffffffffff1673ffffffffffffffffffffffffffffffffffffffff16815260200190815260200160002060008373ffffffffffffffffffffffffffffffffffffffff1673ffffffffffffffffffffffffffffffffffffffff16815260200190815260200160002060009054906101000a900460ff16905092915050565b610c74610e3a565b73ffffffffffffffffffffffffffffffffffffffff16610c926108ef565b73ffffffffffffffffffffffffffffffffffffffff1614610ce8576040517f08c379a0000000000000000000000000000000000000000000000000000000008152600401610cdf90612531565b60405180910390fd5b600073ffffffffffffffffffffffffffffffffffffffff168173ffffffffffffffffffffffffffffffffffffffff161415610d58576040517f08c379a0000000000000000000000000000000000000000000000000000000008152600401610d4f906123b1565b60405180910390fd5b610d6181611235565b50565b60007f01ffc9a7000000000000000000000000000000000000000000000000000000007bffffffffffffffffffffffffffffffffffffffffffffffffffffffff1916827bffffffffffffffffffffffffffffffffffffffffffffffffffffffff1916149050919050565b60008073ffffffffffffffffffffffffffffffffffffffff166002600084815260200190815260200160002060009054906101000a900473ffffffffffffffffffffffffffffffffffffffff1673ffffffffffffffffffffffffffffffffffffffff1614159050919050565b600033905090565b816004600083815260200190815260200160002060006101000a81548173ffffffffffffffffffffffffffffffffffffffff021916908373ffffffffffffffffffffffffffffffffffffffff160217905550808273ffffffffffffffffffffffffffffffffffffffff16610eb5836106fd565b73ffffffffffffffffffffffffffffffffffffffff167f8c5be1e5ebec7d5bd14f71427d1e84f3dd0314c0f7b2291e5b200ac8c7c3b92560405160405180910390a45050565b6000610f0682610dce565b610f45576040517f08c379a0000000000000000000000000000000000000000000000000000000008152600401610f3c90612431565b60405180910390fd5b6000610f50836106fd565b90508073ffffffffffffffffffffffffffffffffffffffff168473ffffffffffffffffffffffffffffffffffffffff161480610fbf57508373ffffffffffffffffffffffffffffffffffffffff16610fa7846104e0565b73ffffffffffffffffffffffffffffffffffffffff16145b80610fd05750610fcf8185610bd8565b5b91505092915050565b8273ffffffffffffffffffffffffffffffffffffffff16610ff9826106fd565b73ffffffffffffffffffffffffffffffffffffffff161461104f576040517f08c379a000000000000000000000000000000000000000000000000000000000815260040161104690612551565b60405180910390fd5b600073ffffffffffffffffffffffffffffffffffffffff168273ffffffffffffffffffffffffffffffffffffffff1614156110bf576040517f08c379a00000000000000000000000000000000000000000000000000000000081526004016110b6906123f1565b60405180910390fd5b6110ca8383836117e8565b6110d5600082610e42565b6001600360008573ffffffffffffffffffffffffffffffffffffffff1673ffffffffffffffffffffffffffffffffffffffff1681526020019081526020016000206000828254611125919061273d565b925050819055506001600360008473ffffffffffffffffffffffffffffffffffffffff1673ffffffffffffffffffffffffffffffffffffffff168152602001908152602001600020600082825461117c91906126b6565b92505081905550816002600083815260200190815260200160002060006101000a81548173ffffffffffffffffffffffffffffffffffffffff021916908373ffffffffffffffffffffffffffffffffffffffff160217905550808273ffffffffffffffffffffffffffffffffffffffff168473ffffffffffffffffffffffffffffffffffffffff167fddf252ad1be2c89b69c2b068fc378daa952ba7f163c4a11628f55a4df523b3ef60405160405180910390a4505050565b6000600760009054906101000a900473ffffffffffffffffffffffffffffffffffffffff16905081600760006101000a81548173ffffffffffffffffffffffffffffffffffffffff021916908373ffffffffffffffffffffffffffffffffffffffff1602179055508173ffffffffffffffffffffffffffffffffffffffff168173ffffffffffffffffffffffffffffffffffffffff167f8be0079c531659141344cd1fd0a4f28419497f9722a3daafe3b4186f6b6457e060405160405180910390a35050565b8173ffffffffffffffffffffffffffffffffffffffff168373ffffffffffffffffffffffffffffffffffffffff16141561136a576040517f08c379a000000000000000000000000000000000000000000000000000000000815260040161136190612411565b60405180910390fd5b80600560008573ffffffffffffffffffffffffffffffffffffffff1673ffffffffffffffffffffffffffffffffffffffff16815260200190815260200160002060008473ffffffffffffffffffffffffffffffffffffffff1673ffffffffffffffffffffffffffffffffffffffff16815260200190815260200160002060006101000a81548160ff0219169083151502179055508173ffffffffffffffffffffffffffffffffffffffff168373ffffffffffffffffffffffffffffffffffffffff167f17307eab39ab6107e8899845ad3d59bd9653f200f220920489ca2b5937696c318360405161145b9190612354565b60405180910390a3505050565b611473848484610fd9565b61147f848484846117ed565b6114be576040517f08c379a00000000000000000000000000000000000000000000000000000000081526004016114b590612391565b60405180910390fd5b50505050565b606060405180602001604052806000815250905090565b60606114e682610dce565b611525576040517f08c379a000000000000000000000000000000000000000000000000000000000815260040161151c90612571565b60405180910390fd5b600061152f6114c4565b9050600081511161154f576040518060200160405280600081525061157a565b8061155984611984565b60405160200161156a9291906122c9565b6040516020818303038152906040525b915050919050565b600081600001549050919050565b600073ffffffffffffffffffffffffffffffffffffffff168273ffffffffffffffffffffffffffffffffffffffff161415611600576040517f08c379a00000000000000000000000000000000000000000000000000000000081526004016115f7906124d1565b60405180910390fd5b61160981610dce565b15611649576040517f08c379a0000000000000000000000000000000000000000000000000000000008152600401611640906123d1565b60405180910390fd5b611655600083836117e8565b6001600360008473ffffffffffffffffffffffffffffffffffffffff1673ffffffffffffffffffffffffffffffffffffffff16815260200190815260200160002060008282546116a591906126b6565b92505081905550816002600083815260200190815260200160002060006101000a81548173ffffffffffffffffffffffffffffffffffffffff021916908373ffffffffffffffffffffffffffffffffffffffff160217905550808273ffffffffffffffffffffffffffffffffffffffff16600073ffffffffffffffffffffffffffffffffffffffff167fddf252ad1be2c89b69c2b068fc378daa952ba7f163c4a11628f55a4df523b3ef60405160405180910390a45050565b61176782610dce565b6117a6576040517f08c379a000000000000000000000000000000000000000000000000000000000815260040161179d906124b1565b60405180910390fd5b806006600084815260200190815260200160002090805190602001906117cd929190611b44565b505050565b6001816000016000828254019250508190555050565b505050565b600061180e8473ffffffffffffffffffffffffffffffffffffffff16611b31565b15611977578373ffffffffffffffffffffffffffffffffffffffff1663150b7a02611837610e3a565b8786866040518563ffffffff1660e01b81526004016118599493929190612308565b602060405180830381600087803b15801561187357600080fd5b505af19250505080156118a457506040513d601f19601f820116820180604052508101906118a19190611ef0565b60015b611927573d80600081146118d4576040519150601f19603f3d011682016040523d82523d6000602084013e6118d9565b606091505b5060008151141561191f576040517f08c379a000000000000000000000000000000000000000000000000000000000815260040161191690612391565b60405180910390fd5b805181602001fd5b63150b7a0260e01b7bffffffffffffffffffffffffffffffffffffffffffffffffffffffff1916817bffffffffffffffffffffffffffffffffffffffffffffffffffffffff19161491505061197c565b600190505b949350505050565b606060008214156119cc576040518060400160405280600181526020017f30000000000000000000000000000000000000000000000000000000000000008152509050611b2c565b600082905060005b600082146119fe5780806119e79061288a565b915050600a826119f7919061270c565b91506119d4565b60008167ffffffffffffffff811115611a40577f4e487b7100000000000000000000000000000000000000000000000000000000600052604160045260246000fd5b6040519080825280601f01601f191660200182016040528015611a725781602001600182028036833780820191505090505b5090505b60008514611b2557600182611a8b919061273d565b9150600a85611a9a91906128d3565b6030611aa691906126b6565b60f81b818381518110611ae2577f4e487b7100000000000000000000000000000000000000000000000000000000600052603260045260246000fd5b60200101907effffffffffffffffffffffffffffffffffffffffffffffffffffffffffffff1916908160001a905350600a85611b1e919061270c565b9450611a76565b8093505050505b919050565b600080823b905060008111915050919050565b828054611b5090612827565b90600052602060002090601f016020900481019282611b725760008555611bb9565b82601f10611b8b57805160ff1916838001178555611bb9565b82800160010185558215611bb9579182015b82811115611bb8578251825591602001919060010190611b9d565b5b509050611bc69190611bca565b5090565b5b80821115611be3576000816000905550600101611bcb565b5090565b6000611bfa611bf584612611565b6125ec565b905082815260208101848484011115611c1257600080fd5b611c1d8482856127e5565b509392505050565b6000611c38611c3384612642565b6125ec565b905082815260208101848484011115611c5057600080fd5b611c5b8482856127e5565b509392505050565b600081359050611c7281612ec7565b92915050565b600081359050611c8781612ede565b92915050565b600081359050611c9c81612ef5565b92915050565b600081519050611cb181612ef5565b92915050565b600082601f830112611cc857600080fd5b8135611cd8848260208601611be7565b91505092915050565b600082601f830112611cf257600080fd5b8135611d02848260208601611c25565b91505092915050565b600081359050611d1a81612f0c565b92915050565b600060208284031215611d3257600080fd5b6000611d4084828501611c63565b91505092915050565b60008060408385031215611d5c57600080fd5b6000611d6a85828601611c63565b9250506020611d7b85828601611c63565b9150509250929050565b600080600060608486031215611d9a57600080fd5b6000611da886828701611c63565b9350506020611db986828701611c63565b9250506040611dca86828701611d0b565b9150509250925092565b60008060008060808587031215611dea57600080fd5b6000611df887828801611c63565b9450506020611e0987828801611c63565b9350506040611e1a87828801611d0b565b925050606085013567ffffffffffffffff811115611e3757600080fd5b611e4387828801611cb7565b91505092959194509250565b60008060408385031215611e6257600080fd5b6000611e7085828601611c63565b9250506020611e8185828601611c78565b9150509250929050565b60008060408385031215611e9e57600080fd5b6000611eac85828601611c63565b9250506020611ebd85828601611d0b565b9150509250929050565b600060208284031215611ed957600080fd5b6000611ee784828501611c8d565b91505092915050565b600060208284031215611f0257600080fd5b6000611f1084828501611ca2565b91505092915050565b600060208284031215611f2b57600080fd5b600082013567ffffffffffffffff811115611f4557600080fd5b611f5184828501611ce1565b91505092915050565b600060208284031215611f6c57600080fd5b6000611f7a84828501611d0b565b91505092915050565b611f8c81612771565b82525050565b611f9b81612783565b82525050565b6000611fac82612673565b611fb68185612689565b9350611fc68185602086016127f4565b611fcf816129c0565b840191505092915050565b6000611fe58261267e565b611fef818561269a565b9350611fff8185602086016127f4565b612008816129c0565b840191505092915050565b600061201e8261267e565b61202881856126ab565b93506120388185602086016127f4565b80840191505092915050565b600061205160328361269a565b915061205c826129d1565b604082019050919050565b600061207460268361269a565b915061207f82612a20565b604082019050919050565b6000612097601c8361269a565b91506120a282612a6f565b602082019050919050565b60006120ba60248361269a565b91506120c582612a98565b604082019050919050565b60006120dd60198361269a565b91506120e882612ae7565b602082019050919050565b6000612100602c8361269a565b915061210b82612b10565b604082019050919050565b600061212360388361269a565b915061212e82612b5f565b604082019050919050565b6000612146602a8361269a565b915061215182612bae565b604082019050919050565b600061216960298361269a565b915061217482612bfd565b604082019050919050565b600061218c602e8361269a565b915061219782612c4c565b604082019050919050565b60006121af60208361269a565b91506121ba82612c9b565b602082019050919050565b60006121d260318361269a565b91506121dd82612cc4565b604082019050919050565b60006121f5602c8361269a565b915061220082612d13565b604082019050919050565b600061221860208361269a565b915061222382612d62565b602082019050919050565b600061223b60298361269a565b915061224682612d8b565b604082019050919050565b600061225e602f8361269a565b915061226982612dda565b604082019050919050565b600061228160218361269a565b915061228c82612e29565b604082019050919050565b60006122a460318361269a565b91506122af82612e78565b604082019050919050565b6122c3816127db565b82525050565b60006122d58285612013565b91506122e18284612013565b91508190509392505050565b60006020820190506123026000830184611f83565b92915050565b600060808201905061231d6000830187611f83565b61232a6020830186611f83565b61233760408301856122ba565b81810360608301526123498184611fa1565b905095945050505050565b60006020820190506123696000830184611f92565b92915050565b600060208201905081810360008301526123898184611fda565b905092915050565b600060208201905081810360008301526123aa81612044565b9050919050565b600060208201905081810360008301526123ca81612067565b9050919050565b600060208201905081810360008301526123ea8161208a565b9050919050565b6000602082019050818103600083015261240a816120ad565b9050919050565b6000602082019050818103600083015261242a816120d0565b9050919050565b6000602082019050818103600083015261244a816120f3565b9050919050565b6000602082019050818103600083015261246a81612116565b9050919050565b6000602082019050818103600083015261248a81612139565b9050919050565b600060208201905081810360008301526124aa8161215c565b9050919050565b600060208201905081810360008301526124ca8161217f565b9050919050565b600060208201905081810360008301526124ea816121a2565b9050919050565b6000602082019050818103600083015261250a816121c5565b9050919050565b6000602082019050818103600083015261252a816121e8565b9050919050565b6000602082019050818103600083015261254a8161220b565b9050919050565b6000602082019050818103600083015261256a8161222e565b9050919050565b6000602082019050818103600083015261258a81612251565b9050919050565b600060208201905081810360008301526125aa81612274565b9050919050565b600060208201905081810360008301526125ca81612297565b9050919050565b60006020820190506125e660008301846122ba565b92915050565b60006125f6612607565b90506126028282612859565b919050565b6000604051905090565b600067ffffffffffffffff82111561262c5761262b612991565b5b612635826129c0565b9050602081019050919050565b600067ffffffffffffffff82111561265d5761265c612991565b5b612666826129c0565b9050602081019050919050565b600081519050919050565b600081519050919050565b600082825260208201905092915050565b600082825260208201905092915050565b600081905092915050565b60006126c1826127db565b91506126cc836127db565b9250827fffffffffffffffffffffffffffffffffffffffffffffffffffffffffffffffff0382111561270157612700612904565b5b828201905092915050565b6000612717826127db565b9150612722836127db565b92508261273257612731612933565b5b828204905092915050565b6000612748826127db565b9150612753836127db565b92508282101561276657612765612904565b5b828203905092915050565b600061277c826127bb565b9050919050565b60008115159050919050565b60007fffffffff0000000000000000000000000000000000000000000000000000000082169050919050565b600073ffffffffffffffffffffffffffffffffffffffff82169050919050565b6000819050919050565b82818337600083830152505050565b60005b838110156128125780820151818401526020810190506127f7565b83811115612821576000848401525b50505050565b6000600282049050600182168061283f57607f821691505b6020821081141561285357612852612962565b5b50919050565b612862826129c0565b810181811067ffffffffffffffff8211171561288157612880612991565b5b80604052505050565b6000612895826127db565b91507fffffffffffffffffffffffffffffffffffffffffffffffffffffffffffffffff8214156128c8576128c7612904565b5b600182019050919050565b60006128de826127db565b91506128e9836127db565b9250826128f9576128f8612933565b5b828206905092915050565b7f4e487b7100000000000000000000000000000000000000000000000000000000600052601160045260246000fd5b7f4e487b7100000000000000000000000000000000000000000000000000000000600052601260045260246000fd5b7f4e487b7100000000000000000000000000000000000000000000000000000000600052602260045260246000fd5b7f4e487b7100000000000000000000000000000000000000000000000000000000600052604160045260246000fd5b6000601f19601f8301169050919050565b7f4552433732313a207472616e7366657220746f206e6f6e20455243373231526560008201527f63656976657220696d706c656d656e7465720000000000000000000000000000602082015250565b7f4f776e61626c653a206e6577206f776e657220697320746865207a65726f206160008201527f6464726573730000000000000000000000000000000000000000000000000000602082015250565b7f4552433732313a20746f6b656e20616c7265616479206d696e74656400000000600082015250565b7f4552433732313a207472616e7366657220746f20746865207a65726f2061646460008201527f7265737300000000000000000000000000000000000000000000000000000000602082015250565b7f4552433732313a20617070726f766520746f2063616c6c657200000000000000600082015250565b7f4552433732313a206f70657261746f7220717565727920666f72206e6f6e657860008201527f697374656e7420746f6b656e0000000000000000000000000000000000000000602082015250565b7f4552433732313a20617070726f76652063616c6c6572206973206e6f74206f7760008201527f6e6572206e6f7220617070726f76656420666f7220616c6c0000000000000000602082015250565b7f4552433732313a2062616c616e636520717565727920666f7220746865207a6560008201527f726f206164647265737300000000000000000000000000000000000000000000602082015250565b7f4552433732313a206f776e657220717565727920666f72206e6f6e657869737460008201527f656e7420746f6b656e0000000000000000000000000000000000000000000000602082015250565b7f45524337323155524953746f726167653a2055524920736574206f66206e6f6e60008201527f6578697374656e7420746f6b656e000000000000000000000000000000000000602082015250565b7f4552433732313a206d696e7420746f20746865207a65726f2061646472657373600082015250565b7f45524337323155524953746f726167653a2055524920717565727920666f722060008201527f6e6f6e6578697374656e7420746f6b656e000000000000000000000000000000602082015250565b7f4552433732313a20617070726f76656420717565727920666f72206e6f6e657860008201527f697374656e7420746f6b656e0000000000000000000000000000000000000000602082015250565b7f4f776e61626c653a2063616c6c6572206973206e6f7420746865206f776e6572600082015250565b7f4552433732313a207472616e73666572206f6620746f6b656e2074686174206960008201527f73206e6f74206f776e0000000000000000000000000000000000000000000000602082015250565b7f4552433732314d657461646174613a2055524920717565727920666f72206e6f60008201527f6e6578697374656e7420746f6b656e0000000000000000000000000000000000602082015250565b7f4552433732313a20617070726f76616c20746f2063757272656e74206f776e6560008201527f7200000000000000000000000000000000000000000000000000000000000000602082015250565b7f4552433732313a207472616e736665722063616c6c6572206973206e6f74206f60008201527f776e6572206e6f7220617070726f766564000000000000000000000000000000602082015250565b612ed081612771565b8114612edb57600080fd5b50565b612ee781612783565b8114612ef257600080fd5b50565b612efe8161278f565b8114612f0957600080fd5b50565b612f15816127db565b8114612f2057600080fd5b5056fea2646970667358221220bf736bdfdf51e2be268c4678398950ab2a20cdf896775fdcc44c7b7fae56e47664736f6c63430008040033",
	"linkReferences": {},
	"deployedLinkReferences": {}
}