{
	"_format": "hh-sol-artifact-1",
	"contractName": "NFTMint",
	"sourceName": "contracts/mint.sol",
	"abi": [
		{
			"inputs": [
				{
					"internalType": "address",
					"name": "marketplaceAddress",
					"type": "address"
				}
			],
			"stateMutability": "nonpayable",
			"type": "constructor"
		},
		{
			"anonymous": false,
			"inputs": [
				{
					"indexed": true,
					"internalType": "address",
					"name": "owner",
					"type": "address"
				},
				{
					"indexed": true,
					"internalType": "address",
					"name": "approved",
					"type": "address"
				},
				{
					"indexed": true,
					"internalType": "uint256",
					"name": "tokenId",
					"type": "uint256"
				}
			],
			"name": "Approval",
			"type": "event"
		},
		{
			"anonymous": false,
			"inputs": [
				{
					"indexed": true,
					"internalType": "address",
					"name": "owner",
					"type": "address"
				},
				{
					"indexed": true,
					"internalType": "address",
					"name": "operator",
					"type": "address"
				},
				{
					"indexed": false,
					"internalType": "bool",
					"name": "approved",
					"type": "bool"
				}
			],
			"name": "ApprovalForAll",
			"type": "event"
		},
		{
			"anonymous": false,
			"inputs": [
				{
					"indexed": false,
					"internalType": "uint256",
					"name": "tokenID",
					"type": "uint256"
				}
			],
			"name": "NFTUpdated",
			"type": "event"
		},
		{
			"anonymous": false,
			"inputs": [
				{
					"indexed": true,
					"internalType": "address",
					"name": "previousOwner",
					"type": "address"
				},
				{
					"indexed": true,
					"internalType": "address",
					"name": "newOwner",
					"type": "address"
				}
			],
			"name": "OwnershipTransferred",
			"type": "event"
		},
		{
			"anonymous": false,
			"inputs": [
				{
					"indexed": true,
					"internalType": "address",
					"name": "from",
					"type": "address"
				},
				{
					"indexed": true,
					"internalType": "address",
					"name": "to",
					"type": "address"
				},
				{
					"indexed": true,
					"internalType": "uint256",
					"name": "tokenId",
					"type": "uint256"
				}
			],
			"name": "Transfer",
			"type": "event"
		},
		{
			"inputs": [
				{
					"internalType": "address",
					"name": "to",
					"type": "address"
				},
				{
					"internalType": "uint256",
					"name": "tokenId",
					"type": "uint256"
				}
			],
			"name": "approve",
			"outputs": [],
			"stateMutability": "nonpayable",
			"type": "function"
		},
		{
			"inputs": [
				{
					"internalType": "address",
					"name": "owner",
					"type": "address"
				}
			],
			"name": "balanceOf",
			"outputs": [
				{
					"internalType": "uint256",
					"name": "",
					"type": "uint256"
				}
			],
			"stateMutability": "view",
			"type": "function"
		},
		{
			"inputs": [
				{
					"internalType": "uint256",
					"name": "tokenId",
					"type": "uint256"
				},
				{
					"internalType": "string",
					"name": "_text",
					"type": "string"
				}
			],
			"name": "changeURI",
			"outputs": [],
			"stateMutability": "nonpayable",
			"type": "function"
		},
		{
			"inputs": [
				{
					"internalType": "string",
					"name": "date",
					"type": "string"
				},
				{
					"internalType": "uint256",
					"name": "dayOfYear",
					"type": "uint256"
				},
				{
					"internalType": "string",
					"name": "_tokenData",
					"type": "string"
				}
			],
			"name": "checkNFT",
			"outputs": [],
			"stateMutability": "payable",
			"type": "function"
		},
		{
			"inputs": [
				{
					"internalType": "uint256",
					"name": "tokenId",
					"type": "uint256"
				}
			],
			"name": "getApproved",
			"outputs": [
				{
					"internalType": "address",
					"name": "",
					"type": "address"
				}
			],
			"stateMutability": "view",
			"type": "function"
		},
		{
			"inputs": [
				{
					"internalType": "uint256",
					"name": "day",
					"type": "uint256"
				}
			],
			"name": "getTokenData",
			"outputs": [
				{
					"internalType": "string",
					"name": "json",
					"type": "string"
				},
				{
					"internalType": "address",
					"name": "owner",
					"type": "address"
				}
			],
			"stateMutability": "view",
			"type": "function"
		},
		{
			"inputs": [
				{
					"internalType": "string",
					"name": "svg",
					"type": "string"
				},
				{
					"internalType": "string",
					"name": "name",
					"type": "string"
				},
				{
					"internalType": "string",
					"name": "desc",
					"type": "string"
				}
			],
			"name": "getTokenURI",
			"outputs": [
				{
					"internalType": "string",
					"name": "finalJSON",
					"type": "string"
				}
			],
			"stateMutability": "pure",
			"type": "function"
		},
		{
			"inputs": [
				{
					"internalType": "address",
					"name": "owner",
					"type": "address"
				},
				{
					"internalType": "address",
					"name": "operator",
					"type": "address"
				}
			],
			"name": "isApprovedForAll",
			"outputs": [
				{
					"internalType": "bool",
					"name": "",
					"type": "bool"
				}
			],
			"stateMutability": "view",
			"type": "function"
		},
		{
			"inputs": [],
			"name": "name",
			"outputs": [
				{
					"internalType": "string",
					"name": "",
					"type": "string"
				}
			],
			"stateMutability": "view",
			"type": "function"
		},
		{
			"inputs": [],
			"name": "owner",
			"outputs": [
				{
					"internalType": "address",
					"name": "",
					"type": "address"
				}
			],
			"stateMutability": "view",
			"type": "function"
		},
		{
			"inputs": [
				{
					"internalType": "uint256",
					"name": "tokenId",
					"type": "uint256"
				}
			],
			"name": "ownerOf",
			"outputs": [
				{
					"internalType": "address",
					"name": "",
					"type": "address"
				}
			],
			"stateMutability": "view",
			"type": "function"
		},
		{
			"inputs": [],
			"name": "renounceOwnership",
			"outputs": [],
			"stateMutability": "nonpayable",
			"type": "function"
		},
		{
			"inputs": [
				{
					"internalType": "address",
					"name": "from",
					"type": "address"
				},
				{
					"internalType": "address",
					"name": "to",
					"type": "address"
				},
				{
					"internalType": "uint256",
					"name": "tokenId",
					"type": "uint256"
				}
			],
			"name": "safeTransferFrom",
			"outputs": [],
			"stateMutability": "nonpayable",
			"type": "function"
		},
		{
			"inputs": [
				{
					"internalType": "address",
					"name": "from",
					"type": "address"
				},
				{
					"internalType": "address",
					"name": "to",
					"type": "address"
				},
				{
					"internalType": "uint256",
					"name": "tokenId",
					"type": "uint256"
				},
				{
					"internalType": "bytes",
					"name": "_data",
					"type": "bytes"
				}
			],
			"name": "safeTransferFrom",
			"outputs": [],
			"stateMutability": "nonpayable",
			"type": "function"
		},
		{
			"inputs": [
				{
					"internalType": "address",
					"name": "operator",
					"type": "address"
				},
				{
					"internalType": "bool",
					"name": "approved",
					"type": "bool"
				}
			],
			"name": "setApprovalForAll",
			"outputs": [],
			"stateMutability": "nonpayable",
			"type": "function"
		},
		{
			"inputs": [
				{
					"internalType": "bytes4",
					"name": "interfaceId",
					"type": "bytes4"
				}
			],
			"name": "supportsInterface",
			"outputs": [
				{
					"internalType": "bool",
					"name": "",
					"type": "bool"
				}
			],
			"stateMutability": "view",
			"type": "function"
		},
		{
			"inputs": [],
			"name": "symbol",
			"outputs": [
				{
					"internalType": "string",
					"name": "",
					"type": "string"
				}
			],
			"stateMutability": "view",
			"type": "function"
		},
		{
			"inputs": [
				{
					"internalType": "uint256",
					"name": "tokenId",
					"type": "uint256"
				}
			],
			"name": "tokenURI",
			"outputs": [
				{
					"internalType": "string",
					"name": "",
					"type": "string"
				}
			],
			"stateMutability": "view",
			"type": "function"
		},
		{
			"inputs": [
				{
					"internalType": "address",
					"name": "from",
					"type": "address"
				},
				{
					"internalType": "address",
					"name": "to",
					"type": "address"
				},
				{
					"internalType": "uint256",
					"name": "tokenId",
					"type": "uint256"
				}
			],
			"name": "transferFrom",
			"outputs": [],
			"stateMutability": "nonpayable",
			"type": "function"
		},
		{
			"inputs": [
				{
					"internalType": "address",
					"name": "newOwner",
					"type": "address"
				}
			],
			"name": "transferOwnership",
			"outputs": [],
			"stateMutability": "nonpayable",
			"type": "function"
		}
	],
	"bytecode": "0x60806040523480156200001157600080fd5b50604051620046bc380380620046bc833981810160405281019062000037919062000337565b6040518060400160405280600b81526020017f43616c656e6461724e46540000000000000000000000000000000000000000008152506040518060400160405280600681526020017f53515541524500000000000000000000000000000000000000000000000000008152508160009080519060200190620000bb92919062000270565b508060019080519060200190620000d492919062000270565b505050620000f7620000eb620001a260201b60201c565b620001aa60201b60201c565b80600960006101000a81548173ffffffffffffffffffffffffffffffffffffffff021916908373ffffffffffffffffffffffffffffffffffffffff160217905550600960009054906101000a900473ffffffffffffffffffffffffffffffffffffffff16600a60006101000a81548173ffffffffffffffffffffffffffffffffffffffff021916908373ffffffffffffffffffffffffffffffffffffffff1602179055505062000416565b600033905090565b6000600760009054906101000a900473ffffffffffffffffffffffffffffffffffffffff16905081600760006101000a81548173ffffffffffffffffffffffffffffffffffffffff021916908373ffffffffffffffffffffffffffffffffffffffff1602179055508173ffffffffffffffffffffffffffffffffffffffff168173ffffffffffffffffffffffffffffffffffffffff167f8be0079c531659141344cd1fd0a4f28419497f9722a3daafe3b4186f6b6457e060405160405180910390a35050565b8280546200027e9062000397565b90600052602060002090601f016020900481019282620002a25760008555620002ee565b82601f10620002bd57805160ff1916838001178555620002ee565b82800160010185558215620002ee579182015b82811115620002ed578251825591602001919060010190620002d0565b5b509050620002fd919062000301565b5090565b5b808211156200031c57600081600090555060010162000302565b5090565b6000815190506200033181620003fc565b92915050565b6000602082840312156200034a57600080fd5b60006200035a8482850162000320565b91505092915050565b6000620003708262000377565b9050919050565b600073ffffffffffffffffffffffffffffffffffffffff82169050919050565b60006002820490506001821680620003b057607f821691505b60208210811415620003c757620003c6620003cd565b5b50919050565b7f4e487b7100000000000000000000000000000000000000000000000000000000600052602260045260246000fd5b620004078162000363565b81146200041357600080fd5b50565b61429680620004266000396000f3fe60806040526004361061011f5760003560e01c8063715018a6116100a0578063b88d4fde11610064578063b88d4fde146103eb578063c87b56dd14610414578063da6af97114610451578063e985e9c51461047a578063f2fde38b146104b75761011f565b8063715018a6146103175780638da5cb5b1461032e57806395d89b4114610359578063a22cb46514610384578063b09afec1146103ad5761011f565b806342842e0e116100e757806342842e0e1461021b5780635d6a43c7146102445780636352211e146102605780636e5da1a01461029d57806370a08231146102da5761011f565b806301ffc9a71461012457806306fdde0314610161578063081812fc1461018c578063095ea7b3146101c957806323b872dd146101f2575b600080fd5b34801561013057600080fd5b5061014b60048036038101906101469190612a37565b6104e0565b6040516101589190613229565b60405180910390f35b34801561016d57600080fd5b506101766105c2565b6040516101839190613244565b60405180910390f35b34801561019857600080fd5b506101b360048036038101906101ae9190612b9f565b610654565b6040516101c091906131c2565b60405180910390f35b3480156101d557600080fd5b506101f060048036038101906101eb919061295a565b6106d9565b005b3480156101fe57600080fd5b50610219600480360381019061021491906127d9565b6107f1565b005b34801561022757600080fd5b50610242600480360381019061023d91906127d9565b610851565b005b61025e60048036038101906102599190612b20565b610871565b005b34801561026c57600080fd5b5061028760048036038101906102829190612b9f565b610b3b565b60405161029491906131c2565b60405180910390f35b3480156102a957600080fd5b506102c460048036038101906102bf9190612a89565b610bed565b6040516102d19190613244565b60405180910390f35b3480156102e657600080fd5b5061030160048036038101906102fc9190612774565b610c49565b60405161030e91906135a0565b60405180910390f35b34801561032357600080fd5b5061032c610d01565b005b34801561033a57600080fd5b50610343610d89565b60405161035091906131c2565b60405180910390f35b34801561036557600080fd5b5061036e610db3565b60405161037b9190613244565b60405180910390f35b34801561039057600080fd5b506103ab60048036038101906103a691906128a3565b610e45565b005b3480156103b957600080fd5b506103d460048036038101906103cf9190612b9f565b610e5b565b6040516103e2929190613266565b60405180910390f35b3480156103f757600080fd5b50610412600480360381019061040d9190612828565b610e7a565b005b34801561042057600080fd5b5061043b60048036038101906104369190612b9f565b610edc565b6040516104489190613244565b60405180910390f35b34801561045d57600080fd5b5061047860048036038101906104739190612bc8565b61102e565b005b34801561048657600080fd5b506104a1600480360381019061049c919061279d565b6111a3565b6040516104ae9190613229565b60405180910390f35b3480156104c357600080fd5b506104de60048036038101906104d99190612774565b611237565b005b60007f80ac58cd000000000000000000000000000000000000000000000000000000007bffffffffffffffffffffffffffffffffffffffffffffffffffffffff1916827bffffffffffffffffffffffffffffffffffffffffffffffffffffffff191614806105ab57507f5b5e139f000000000000000000000000000000000000000000000000000000007bffffffffffffffffffffffffffffffffffffffffffffffffffffffff1916827bffffffffffffffffffffffffffffffffffffffffffffffffffffffff1916145b806105bb57506105ba8261132f565b5b9050919050565b6060600080546105d190613884565b80601f01602080910402602001604051908101604052809291908181526020018280546105fd90613884565b801561064a5780601f1061061f5761010080835404028352916020019161064a565b820191906000526020600020905b81548152906001019060200180831161062d57829003601f168201915b5050505050905090565b600061065f82611399565b61069e576040517f08c379a0000000000000000000000000000000000000000000000000000000008152600401610695906134e0565b60405180910390fd5b6004600083815260200190815260200160002060009054906101000a900473ffffffffffffffffffffffffffffffffffffffff169050919050565b60006106e482610b3b565b90508073ffffffffffffffffffffffffffffffffffffffff168373ffffffffffffffffffffffffffffffffffffffff161415610755576040517f08c379a000000000000000000000000000000000000000000000000000000000815260040161074c90613560565b60405180910390fd5b8073ffffffffffffffffffffffffffffffffffffffff16610774611405565b73ffffffffffffffffffffffffffffffffffffffff1614806107a357506107a28161079d611405565b6111a3565b5b6107e2576040517f08c379a00000000000000000000000000000000000000000000000000000000081526004016107d990613400565b60405180910390fd5b6107ec838361140d565b505050565b6108026107fc611405565b826114c6565b610841576040517f08c379a000000000000000000000000000000000000000000000000000000000815260040161083890613580565b60405180910390fd5b61084c8383836115a4565b505050565b61086c83838360405180602001604052806000815250610e7a565b505050565b600080600080600080600a60009054906101000a900473ffffffffffffffffffffffffffffffffffffffff1673ffffffffffffffffffffffffffffffffffffffff1663de74e57b896040518263ffffffff1660e01b81526004016108d591906135a0565b60006040518083038186803b1580156108ed57600080fd5b505afa158015610901573d6000803e3d6000fd5b505050506040513d6000823e3d601f19601f8201168201806040525081019061092a9190612996565b955095509550955095509550600080600080600a60009054906101000a900473ffffffffffffffffffffffffffffffffffffffff1673ffffffffffffffffffffffffffffffffffffffff16637b3c4baa8d886040518363ffffffff1660e01b81526004016109999291906135bb565b60006040518083038186803b1580156109b157600080fd5b505afa1580156109c5573d6000803e3d6000fd5b505050506040513d6000823e3d601f19601f820116820180604052508101906109ee91906128df565b9350935093509350610a376040518060400160405280600d81526020017f2573202564202564204269647300000000000000000000000000000000000000815250858385611800565b8373ffffffffffffffffffffffffffffffffffffffff163373ffffffffffffffffffffffffffffffffffffffff1614610aa5576040517f08c379a0000000000000000000000000000000000000000000000000000000008152600401610a9c90613440565b60405180910390fd5b610ae36040518060400160405280600b81526020017f59656168204d696e7465640000000000000000000000000000000000000000008152506118a2565b610aed8c8c61193b565b50610b2c6040518060400160405280600c81526020017f59656168204d696e7465643200000000000000000000000000000000000000008152506118a2565b50505050505050505050505050565b6000806002600084815260200190815260200160002060009054906101000a900473ffffffffffffffffffffffffffffffffffffffff169050600073ffffffffffffffffffffffffffffffffffffffff168173ffffffffffffffffffffffffffffffffffffffff161415610be4576040517f08c379a0000000000000000000000000000000000000000000000000000000008152600401610bdb90613460565b60405180910390fd5b80915050919050565b60606000610c1d848487604051602001610c0993929190613121565b60405160208183030381529060405261199f565b905080604051602001610c30919061317e565b6040516020818303038152906040529150509392505050565b60008073ffffffffffffffffffffffffffffffffffffffff168273ffffffffffffffffffffffffffffffffffffffff161415610cba576040517f08c379a0000000000000000000000000000000000000000000000000000000008152600401610cb190613420565b60405180910390fd5b600360008373ffffffffffffffffffffffffffffffffffffffff1673ffffffffffffffffffffffffffffffffffffffff168152602001908152602001600020549050919050565b610d09611405565b73ffffffffffffffffffffffffffffffffffffffff16610d27610d89565b73ffffffffffffffffffffffffffffffffffffffff1614610d7d576040517f08c379a0000000000000000000000000000000000000000000000000000000008152600401610d7490613500565b60405180910390fd5b610d876000611b3e565b565b6000600760009054906101000a900473ffffffffffffffffffffffffffffffffffffffff16905090565b606060018054610dc290613884565b80601f0160208091040260200160405190810160405280929190818152602001828054610dee90613884565b8015610e3b5780601f10610e1057610100808354040283529160200191610e3b565b820191906000526020600020905b815481529060010190602001808311610e1e57829003601f168201915b5050505050905090565b610e57610e50611405565b8383611c04565b5050565b60606000610e6883610edc565b9150610e7383610b3b565b9050915091565b610e8b610e85611405565b836114c6565b610eca576040517f08c379a0000000000000000000000000000000000000000000000000000000008152600401610ec190613580565b60405180910390fd5b610ed684848484611d71565b50505050565b6060610ee782611399565b610f26576040517f08c379a0000000000000000000000000000000000000000000000000000000008152600401610f1d906134c0565b60405180910390fd5b6000600660008481526020019081526020016000208054610f4690613884565b80601f0160208091040260200160405190810160405280929190818152602001828054610f7290613884565b8015610fbf5780601f10610f9457610100808354040283529160200191610fbf565b820191906000526020600020905b815481529060010190602001808311610fa257829003601f168201915b505050505090506000610fd0611dcd565b9050600081511415610fe6578192505050611029565b60008251111561101b5780826040516020016110039291906130ce565b60405160208183030381529060405292505050611029565b61102484611de4565b925050505b919050565b3373ffffffffffffffffffffffffffffffffffffffff1661104e83610b3b565b73ffffffffffffffffffffffffffffffffffffffff16146110a4576040517f08c379a000000000000000000000000000000000000000000000000000000000815260040161109b906133c0565b60405180910390fd5b600060405180610160016040528061012f815260200161413261012f9139905060006110f082846040516020016110dc9291906130f2565b60405160208183030381529060405261199f565b905060008160405160200161110591906131a0565b6040516020818303038152906040529050600061115882866040518060400160405280601d81526020017f41204e4654206d696e7465642066726f6d207961616465696e2e78797a000000815250610bed565b90506111648682611e8b565b7fefaa5412becd7df8fc514fffe5773a16e413b5ff0039be0f03e7bf4b9ede0aac8660405161119391906135a0565b60405180910390a1505050505050565b6000600560008473ffffffffffffffffffffffffffffffffffffffff1673ffffffffffffffffffffffffffffffffffffffff16815260200190815260200160002060008373ffffffffffffffffffffffffffffffffffffffff1673ffffffffffffffffffffffffffffffffffffffff16815260200190815260200160002060009054906101000a900460ff16905092915050565b61123f611405565b73ffffffffffffffffffffffffffffffffffffffff1661125d610d89565b73ffffffffffffffffffffffffffffffffffffffff16146112b3576040517f08c379a00000000000000000000000000000000000000000000000000000000081526004016112aa90613500565b60405180910390fd5b600073ffffffffffffffffffffffffffffffffffffffff168173ffffffffffffffffffffffffffffffffffffffff161415611323576040517f08c379a000000000000000000000000000000000000000000000000000000000815260040161131a90613340565b60405180910390fd5b61132c81611b3e565b50565b60007f01ffc9a7000000000000000000000000000000000000000000000000000000007bffffffffffffffffffffffffffffffffffffffffffffffffffffffff1916827bffffffffffffffffffffffffffffffffffffffffffffffffffffffff1916149050919050565b60008073ffffffffffffffffffffffffffffffffffffffff166002600084815260200190815260200160002060009054906101000a900473ffffffffffffffffffffffffffffffffffffffff1673ffffffffffffffffffffffffffffffffffffffff1614159050919050565b600033905090565b816004600083815260200190815260200160002060006101000a81548173ffffffffffffffffffffffffffffffffffffffff021916908373ffffffffffffffffffffffffffffffffffffffff160217905550808273ffffffffffffffffffffffffffffffffffffffff1661148083610b3b565b73ffffffffffffffffffffffffffffffffffffffff167f8c5be1e5ebec7d5bd14f71427d1e84f3dd0314c0f7b2291e5b200ac8c7c3b92560405160405180910390a45050565b60006114d182611399565b611510576040517f08c379a0000000000000000000000000000000000000000000000000000000008152600401611507906133e0565b60405180910390fd5b600061151b83610b3b565b90508073ffffffffffffffffffffffffffffffffffffffff168473ffffffffffffffffffffffffffffffffffffffff16148061158a57508373ffffffffffffffffffffffffffffffffffffffff1661157284610654565b73ffffffffffffffffffffffffffffffffffffffff16145b8061159b575061159a81856111a3565b5b91505092915050565b8273ffffffffffffffffffffffffffffffffffffffff166115c482610b3b565b73ffffffffffffffffffffffffffffffffffffffff161461161a576040517f08c379a000000000000000000000000000000000000000000000000000000000815260040161161190613520565b60405180910390fd5b600073ffffffffffffffffffffffffffffffffffffffff168273ffffffffffffffffffffffffffffffffffffffff16141561168a576040517f08c379a000000000000000000000000000000000000000000000000000000000815260040161168190613380565b60405180910390fd5b611695838383611eff565b6116a060008261140d565b6001600360008573ffffffffffffffffffffffffffffffffffffffff1673ffffffffffffffffffffffffffffffffffffffff16815260200190815260200160002060008282546116f0919061379a565b925050819055506001600360008473ffffffffffffffffffffffffffffffffffffffff1673ffffffffffffffffffffffffffffffffffffffff168152602001908152602001600020600082825461174791906136b9565b92505081905550816002600083815260200190815260200160002060006101000a81548173ffffffffffffffffffffffffffffffffffffffff021916908373ffffffffffffffffffffffffffffffffffffffff160217905550808273ffffffffffffffffffffffffffffffffffffffff168473ffffffffffffffffffffffffffffffffffffffff167fddf252ad1be2c89b69c2b068fc378daa952ba7f163c4a11628f55a4df523b3ef60405160405180910390a4505050565b61189c8484848460405160240161181a9493929190613296565b6040516020818303038152906040527fdaa394bd000000000000000000000000000000000000000000000000000000007bffffffffffffffffffffffffffffffffffffffffffffffffffffffff19166020820180517bffffffffffffffffffffffffffffffffffffffffffffffffffffffff8381831617835250505050611f04565b50505050565b611938816040516024016118b69190613244565b6040516020818303038152906040527f41304fac000000000000000000000000000000000000000000000000000000007bffffffffffffffffffffffffffffffffffffffffffffffffffffffff19166020820180517bffffffffffffffffffffffffffffffffffffffffffffffffffffffff8381831617835250505050611f04565b50565b60008083905061194b3382611f2d565b6119558184611e8b565b6119956040518060400160405280600581526020017f256420257300000000000000000000000000000000000000000000000000000081525082336120fb565b8091505092915050565b60606000825114156119c257604051806020016040528060008152509050611b39565b60006040518060600160405280604081526020016140f260409139905060006003600285516119f191906136b9565b6119fb919061370f565b6004611a079190613740565b90506000602082611a1891906136b9565b67ffffffffffffffff811115611a57577f4e487b7100000000000000000000000000000000000000000000000000000000600052604160045260246000fd5b6040519080825280601f01601f191660200182016040528015611a895781602001600182028036833780820191505090505b509050818152600183018586518101602084015b81831015611af8576003830192508251603f8160121c168501518253600182019150603f81600c1c168501518253600182019150603f8160061c168501518253600182019150603f8116850151825360018201915050611a9d565b600389510660018114611b125760028114611b2257611b2d565b613d3d60f01b6002830352611b2d565b603d60f81b60018303525b50505050508093505050505b919050565b6000600760009054906101000a900473ffffffffffffffffffffffffffffffffffffffff16905081600760006101000a81548173ffffffffffffffffffffffffffffffffffffffff021916908373ffffffffffffffffffffffffffffffffffffffff1602179055508173ffffffffffffffffffffffffffffffffffffffff168173ffffffffffffffffffffffffffffffffffffffff167f8be0079c531659141344cd1fd0a4f28419497f9722a3daafe3b4186f6b6457e060405160405180910390a35050565b8173ffffffffffffffffffffffffffffffffffffffff168373ffffffffffffffffffffffffffffffffffffffff161415611c73576040517f08c379a0000000000000000000000000000000000000000000000000000000008152600401611c6a906133a0565b60405180910390fd5b80600560008573ffffffffffffffffffffffffffffffffffffffff1673ffffffffffffffffffffffffffffffffffffffff16815260200190815260200160002060008473ffffffffffffffffffffffffffffffffffffffff1673ffffffffffffffffffffffffffffffffffffffff16815260200190815260200160002060006101000a81548160ff0219169083151502179055508173ffffffffffffffffffffffffffffffffffffffff168373ffffffffffffffffffffffffffffffffffffffff167f17307eab39ab6107e8899845ad3d59bd9653f200f220920489ca2b5937696c3183604051611d649190613229565b60405180910390a3505050565b611d7c8484846115a4565b611d888484848461219a565b611dc7576040517f08c379a0000000000000000000000000000000000000000000000000000000008152600401611dbe90613320565b60405180910390fd5b50505050565b606060405180602001604052806000815250905090565b6060611def82611399565b611e2e576040517f08c379a0000000000000000000000000000000000000000000000000000000008152600401611e2590613540565b60405180910390fd5b6000611e38611dcd565b90506000815111611e585760405180602001604052806000815250611e83565b80611e6284612331565b604051602001611e739291906130ce565b6040516020818303038152906040525b915050919050565b611e9482611399565b611ed3576040517f08c379a0000000000000000000000000000000000000000000000000000000008152600401611eca90613480565b60405180910390fd5b80600660008481526020019081526020016000209080519060200190611efa9291906124f1565b505050565b505050565b60008151905060006a636f6e736f6c652e6c6f679050602083016000808483855afa5050505050565b600073ffffffffffffffffffffffffffffffffffffffff168273ffffffffffffffffffffffffffffffffffffffff161415611f9d576040517f08c379a0000000000000000000000000000000000000000000000000000000008152600401611f94906134a0565b60405180910390fd5b611fa681611399565b15611fe6576040517f08c379a0000000000000000000000000000000000000000000000000000000008152600401611fdd90613360565b60405180910390fd5b611ff260008383611eff565b6001600360008473ffffffffffffffffffffffffffffffffffffffff1673ffffffffffffffffffffffffffffffffffffffff168152602001908152602001600020600082825461204291906136b9565b92505081905550816002600083815260200190815260200160002060006101000a81548173ffffffffffffffffffffffffffffffffffffffff021916908373ffffffffffffffffffffffffffffffffffffffff160217905550808273ffffffffffffffffffffffffffffffffffffffff16600073ffffffffffffffffffffffffffffffffffffffff167fddf252ad1be2c89b69c2b068fc378daa952ba7f163c4a11628f55a4df523b3ef60405160405180910390a45050565b612195838383604051602401612113939291906132e2565b6040516020818303038152906040527fe3849f79000000000000000000000000000000000000000000000000000000007bffffffffffffffffffffffffffffffffffffffffffffffffffffffff19166020820180517bffffffffffffffffffffffffffffffffffffffffffffffffffffffff8381831617835250505050611f04565b505050565b60006121bb8473ffffffffffffffffffffffffffffffffffffffff166124de565b15612324578373ffffffffffffffffffffffffffffffffffffffff1663150b7a026121e4611405565b8786866040518563ffffffff1660e01b815260040161220694939291906131dd565b602060405180830381600087803b15801561222057600080fd5b505af192505050801561225157506040513d601f19601f8201168201806040525081019061224e9190612a60565b60015b6122d4573d8060008114612281576040519150601f19603f3d011682016040523d82523d6000602084013e612286565b606091505b506000815114156122cc576040517f08c379a00000000000000000000000000000000000000000000000000000000081526004016122c390613320565b60405180910390fd5b805181602001fd5b63150b7a0260e01b7bffffffffffffffffffffffffffffffffffffffffffffffffffffffff1916817bffffffffffffffffffffffffffffffffffffffffffffffffffffffff191614915050612329565b600190505b949350505050565b60606000821415612379576040518060400160405280600181526020017f300000000000000000000000000000000000000000000000000000000000000081525090506124d9565b600082905060005b600082146123ab578080612394906138e7565b915050600a826123a4919061370f565b9150612381565b60008167ffffffffffffffff8111156123ed577f4e487b7100000000000000000000000000000000000000000000000000000000600052604160045260246000fd5b6040519080825280601f01601f19166020018201604052801561241f5781602001600182028036833780820191505090505b5090505b600085146124d257600182612438919061379a565b9150600a856124479190613930565b603061245391906136b9565b60f81b81838151811061248f577f4e487b7100000000000000000000000000000000000000000000000000000000600052603260045260246000fd5b60200101907effffffffffffffffffffffffffffffffffffffffffffffffffffffffffffff1916908160001a905350600a856124cb919061370f565b9450612423565b8093505050505b919050565b600080823b905060008111915050919050565b8280546124fd90613884565b90600052602060002090601f01602090048101928261251f5760008555612566565b82601f1061253857805160ff1916838001178555612566565b82800160010185558215612566579182015b8281111561256557825182559160200191906001019061254a565b5b5090506125739190612577565b5090565b5b80821115612590576000816000905550600101612578565b5090565b60006125a76125a284613609565b6135e4565b9050828152602081018484840111156125bf57600080fd5b6125ca848285613842565b509392505050565b60006125e56125e08461363a565b6135e4565b9050828152602081018484840111156125fd57600080fd5b612608848285613842565b509392505050565b600061262361261e8461363a565b6135e4565b90508281526020810184848401111561263b57600080fd5b612646848285613851565b509392505050565b60008135905061265d81614095565b92915050565b60008151905061267281614095565b92915050565b600081359050612687816140ac565b92915050565b60008151905061269c816140ac565b92915050565b6000813590506126b1816140c3565b92915050565b6000815190506126c6816140c3565b92915050565b600082601f8301126126dd57600080fd5b81356126ed848260208601612594565b91505092915050565b600082601f83011261270757600080fd5b81356127178482602086016125d2565b91505092915050565b600082601f83011261273157600080fd5b8151612741848260208601612610565b91505092915050565b600081359050612759816140da565b92915050565b60008151905061276e816140da565b92915050565b60006020828403121561278657600080fd5b60006127948482850161264e565b91505092915050565b600080604083850312156127b057600080fd5b60006127be8582860161264e565b92505060206127cf8582860161264e565b9150509250929050565b6000806000606084860312156127ee57600080fd5b60006127fc8682870161264e565b935050602061280d8682870161264e565b925050604061281e8682870161274a565b9150509250925092565b6000806000806080858703121561283e57600080fd5b600061284c8782880161264e565b945050602061285d8782880161264e565b935050604061286e8782880161274a565b925050606085013567ffffffffffffffff81111561288b57600080fd5b612897878288016126cc565b91505092959194509250565b600080604083850312156128b657600080fd5b60006128c48582860161264e565b92505060206128d585828601612678565b9150509250929050565b600080600080608085870312156128f557600080fd5b600061290387828801612663565b945050602085015167ffffffffffffffff81111561292057600080fd5b61292c87828801612720565b935050604061293d8782880161275f565b925050606061294e8782880161275f565b91505092959194509250565b6000806040838503121561296d57600080fd5b600061297b8582860161264e565b925050602061298c8582860161274a565b9150509250929050565b60008060008060008060c087890312156129af57600080fd5b60006129bd89828a01612663565b96505060206129ce89828a0161275f565b955050604087015167ffffffffffffffff8111156129eb57600080fd5b6129f789828a01612720565b9450506060612a0889828a0161268d565b9350506080612a1989828a0161275f565b92505060a0612a2a89828a0161275f565b9150509295509295509295565b600060208284031215612a4957600080fd5b6000612a57848285016126a2565b91505092915050565b600060208284031215612a7257600080fd5b6000612a80848285016126b7565b91505092915050565b600080600060608486031215612a9e57600080fd5b600084013567ffffffffffffffff811115612ab857600080fd5b612ac4868287016126f6565b935050602084013567ffffffffffffffff811115612ae157600080fd5b612aed868287016126f6565b925050604084013567ffffffffffffffff811115612b0a57600080fd5b612b16868287016126f6565b9150509250925092565b600080600060608486031215612b3557600080fd5b600084013567ffffffffffffffff811115612b4f57600080fd5b612b5b868287016126f6565b9350506020612b6c8682870161274a565b925050604084013567ffffffffffffffff811115612b8957600080fd5b612b95868287016126f6565b9150509250925092565b600060208284031215612bb157600080fd5b6000612bbf8482850161274a565b91505092915050565b60008060408385031215612bdb57600080fd5b6000612be98582860161274a565b925050602083013567ffffffffffffffff811115612c0657600080fd5b612c12858286016126f6565b9150509250929050565b612c25816137ce565b82525050565b612c34816137e0565b82525050565b6000612c458261366b565b612c4f8185613681565b9350612c5f818560208601613851565b612c6881613a1d565b840191505092915050565b6000612c7e8261366b565b612c888185613692565b9350612c98818560208601613851565b80840191505092915050565b6000612caf82613676565b612cb9818561369d565b9350612cc9818560208601613851565b612cd281613a1d565b840191505092915050565b6000612ce882613676565b612cf281856136ae565b9350612d02818560208601613851565b80840191505092915050565b6000612d1b6009836136ae565b9150612d2682613a2e565b600982019050919050565b6000612d3e60328361369d565b9150612d4982613a57565b604082019050919050565b6000612d6160268361369d565b9150612d6c82613aa6565b604082019050919050565b6000612d84601c8361369d565b9150612d8f82613af5565b602082019050919050565b6000612da760248361369d565b9150612db282613b1e565b604082019050919050565b6000612dca60198361369d565b9150612dd582613b6d565b602082019050919050565b6000612ded600d8361369d565b9150612df882613b96565b602082019050919050565b6000612e10602c8361369d565b9150612e1b82613bbf565b604082019050919050565b6000612e33600d836136ae565b9150612e3e82613c0e565b600d82019050919050565b6000612e566010836136ae565b9150612e6182613c37565b601082019050919050565b6000612e7960388361369d565b9150612e8482613c60565b604082019050919050565b6000612e9c602a8361369d565b9150612ea782613caf565b604082019050919050565b6000612ebf601a8361369d565b9150612eca82613cfe565b602082019050919050565b6000612ee260298361369d565b9150612eed82613d27565b604082019050919050565b6000612f05602e8361369d565b9150612f1082613d76565b604082019050919050565b6000612f286002836136ae565b9150612f3382613dc5565b600282019050919050565b6000612f4b60208361369d565b9150612f5682613dee565b602082019050919050565b6000612f6e60318361369d565b9150612f7982613e17565b604082019050919050565b6000612f91602c8361369d565b9150612f9c82613e66565b604082019050919050565b6000612fb460208361369d565b9150612fbf82613eb5565b602082019050919050565b6000612fd760298361369d565b9150612fe282613ede565b604082019050919050565b6000612ffa602f8361369d565b915061300582613f2d565b604082019050919050565b600061301d60218361369d565b915061302882613f7c565b604082019050919050565b6000613040601d836136ae565b915061304b82613fcb565b601d82019050919050565b60006130636010836136ae565b915061306e82613ff4565b601082019050919050565b600061308660318361369d565b91506130918261401d565b604082019050919050565b60006130a9601a836136ae565b91506130b48261406c565b601a82019050919050565b6130c881613838565b82525050565b60006130da8285612cdd565b91506130e68284612cdd565b91508190509392505050565b60006130fe8285612cdd565b915061310a8284612cdd565b915061311582612e26565b91508190509392505050565b600061312c82612d0e565b91506131388286612cdd565b915061314382612e49565b915061314f8285612cdd565b915061315a82613056565b91506131668284612c73565b915061317182612f1b565b9150819050949350505050565b600061318982613033565b91506131958284612cdd565b915081905092915050565b60006131ab8261309c565b91506131b78284612cdd565b915081905092915050565b60006020820190506131d76000830184612c1c565b92915050565b60006080820190506131f26000830187612c1c565b6131ff6020830186612c1c565b61320c60408301856130bf565b818103606083015261321e8184612c3a565b905095945050505050565b600060208201905061323e6000830184612c2b565b92915050565b6000602082019050818103600083015261325e8184612ca4565b905092915050565b600060408201905081810360008301526132808185612ca4565b905061328f6020830184612c1c565b9392505050565b600060808201905081810360008301526132b08187612ca4565b90506132bf6020830186612c1c565b6132cc60408301856130bf565b6132d960608301846130bf565b95945050505050565b600060608201905081810360008301526132fc8186612ca4565b905061330b60208301856130bf565b6133186040830184612c1c565b949350505050565b6000602082019050818103600083015261333981612d31565b9050919050565b6000602082019050818103600083015261335981612d54565b9050919050565b6000602082019050818103600083015261337981612d77565b9050919050565b6000602082019050818103600083015261339981612d9a565b9050919050565b600060208201905081810360008301526133b981612dbd565b9050919050565b600060208201905081810360008301526133d981612de0565b9050919050565b600060208201905081810360008301526133f981612e03565b9050919050565b6000602082019050818103600083015261341981612e6c565b9050919050565b6000602082019050818103600083015261343981612e8f565b9050919050565b6000602082019050818103600083015261345981612eb2565b9050919050565b6000602082019050818103600083015261347981612ed5565b9050919050565b6000602082019050818103600083015261349981612ef8565b9050919050565b600060208201905081810360008301526134b981612f3e565b9050919050565b600060208201905081810360008301526134d981612f61565b9050919050565b600060208201905081810360008301526134f981612f84565b9050919050565b6000602082019050818103600083015261351981612fa7565b9050919050565b6000602082019050818103600083015261353981612fca565b9050919050565b6000602082019050818103600083015261355981612fed565b9050919050565b6000602082019050818103600083015261357981613010565b9050919050565b6000602082019050818103600083015261359981613079565b9050919050565b60006020820190506135b560008301846130bf565b92915050565b60006040820190506135d060008301856130bf565b6135dd60208301846130bf565b9392505050565b60006135ee6135ff565b90506135fa82826138b6565b919050565b6000604051905090565b600067ffffffffffffffff821115613624576136236139ee565b5b61362d82613a1d565b9050602081019050919050565b600067ffffffffffffffff821115613655576136546139ee565b5b61365e82613a1d565b9050602081019050919050565b600081519050919050565b600081519050919050565b600082825260208201905092915050565b600081905092915050565b600082825260208201905092915050565b600081905092915050565b60006136c482613838565b91506136cf83613838565b9250827fffffffffffffffffffffffffffffffffffffffffffffffffffffffffffffffff0382111561370457613703613961565b5b828201905092915050565b600061371a82613838565b915061372583613838565b92508261373557613734613990565b5b828204905092915050565b600061374b82613838565b915061375683613838565b9250817fffffffffffffffffffffffffffffffffffffffffffffffffffffffffffffffff048311821515161561378f5761378e613961565b5b828202905092915050565b60006137a582613838565b91506137b083613838565b9250828210156137c3576137c2613961565b5b828203905092915050565b60006137d982613818565b9050919050565b60008115159050919050565b60007fffffffff0000000000000000000000000000000000000000000000000000000082169050919050565b600073ffffffffffffffffffffffffffffffffffffffff82169050919050565b6000819050919050565b82818337600083830152505050565b60005b8381101561386f578082015181840152602081019050613854565b8381111561387e576000848401525b50505050565b6000600282049050600182168061389c57607f821691505b602082108114156138b0576138af6139bf565b5b50919050565b6138bf82613a1d565b810181811067ffffffffffffffff821117156138de576138dd6139ee565b5b80604052505050565b60006138f282613838565b91507fffffffffffffffffffffffffffffffffffffffffffffffffffffffffffffffff82141561392557613924613961565b5b600182019050919050565b600061393b82613838565b915061394683613838565b92508261395657613955613990565b5b828206905092915050565b7f4e487b7100000000000000000000000000000000000000000000000000000000600052601160045260246000fd5b7f4e487b7100000000000000000000000000000000000000000000000000000000600052601260045260246000fd5b7f4e487b7100000000000000000000000000000000000000000000000000000000600052602260045260246000fd5b7f4e487b7100000000000000000000000000000000000000000000000000000000600052604160045260246000fd5b6000601f19601f8301169050919050565b7f7b226e616d65223a220000000000000000000000000000000000000000000000600082015250565b7f4552433732313a207472616e7366657220746f206e6f6e20455243373231526560008201527f63656976657220696d706c656d656e7465720000000000000000000000000000602082015250565b7f4f776e61626c653a206e6577206f776e657220697320746865207a65726f206160008201527f6464726573730000000000000000000000000000000000000000000000000000602082015250565b7f4552433732313a20746f6b656e20616c7265616479206d696e74656400000000600082015250565b7f4552433732313a207472616e7366657220746f20746865207a65726f2061646460008201527f7265737300000000000000000000000000000000000000000000000000000000602082015250565b7f4552433732313a20617070726f766520746f2063616c6c657200000000000000600082015250565b7f596f75206e6f74206f776e657200000000000000000000000000000000000000600082015250565b7f4552433732313a206f70657261746f7220717565727920666f72206e6f6e657860008201527f697374656e7420746f6b656e0000000000000000000000000000000000000000602082015250565b7f3c2f746578743e3c2f7376673e00000000000000000000000000000000000000600082015250565b7f22226465736372697074696f6e223a2200000000000000000000000000000000600082015250565b7f4552433732313a20617070726f76652063616c6c6572206973206e6f74206f7760008201527f6e6572206e6f7220617070726f76656420666f7220616c6c0000000000000000602082015250565b7f4552433732313a2062616c616e636520717565727920666f7220746865207a6560008201527f726f206164647265737300000000000000000000000000000000000000000000602082015250565b7f596f7520617265206e6f74206869676865737420626964646572000000000000600082015250565b7f4552433732313a206f776e657220717565727920666f72206e6f6e657869737460008201527f656e7420746f6b656e0000000000000000000000000000000000000000000000602082015250565b7f45524337323155524953746f726167653a2055524920736574206f66206e6f6e60008201527f6578697374656e7420746f6b656e000000000000000000000000000000000000602082015250565b7f227d000000000000000000000000000000000000000000000000000000000000600082015250565b7f4552433732313a206d696e7420746f20746865207a65726f2061646472657373600082015250565b7f45524337323155524953746f726167653a2055524920717565727920666f722060008201527f6e6f6e6578697374656e7420746f6b656e000000000000000000000000000000602082015250565b7f4552433732313a20617070726f76656420717565727920666f72206e6f6e657860008201527f697374656e7420746f6b656e0000000000000000000000000000000000000000602082015250565b7f4f776e61626c653a2063616c6c6572206973206e6f7420746865206f776e6572600082015250565b7f4552433732313a207472616e73666572206f6620746f6b656e2074686174206960008201527f73206e6f74206f776e0000000000000000000000000000000000000000000000602082015250565b7f4552433732314d657461646174613a2055524920717565727920666f72206e6f60008201527f6e6578697374656e7420746f6b656e0000000000000000000000000000000000602082015250565b7f4552433732313a20617070726f76616c20746f2063757272656e74206f776e6560008201527f7200000000000000000000000000000000000000000000000000000000000000602082015250565b7f646174613a6170706c69636174696f6e2f6a736f6e3b6261736536342c000000600082015250565b7f2222696d6167655f64617461223a202200000000000000000000000000000000600082015250565b7f4552433732313a207472616e736665722063616c6c6572206973206e6f74206f60008201527f776e6572206e6f7220617070726f766564000000000000000000000000000000602082015250565b7f646174613a696d6167652f7376672b786d6c3b6261736536342c000000000000600082015250565b61409e816137ce565b81146140a957600080fd5b50565b6140b5816137e0565b81146140c057600080fd5b50565b6140cc816137ec565b81146140d757600080fd5b50565b6140e381613838565b81146140ee57600080fd5b5056fe4142434445464748494a4b4c4d4e4f505152535455565758595a6162636465666768696a6b6c6d6e6f707172737475767778797a303132333435363738392b2f3c73766720786d6c6e733d27687474703a2f2f7777772e77332e6f72672f323030302f73766727207072657365727665417370656374526174696f3d27784d696e594d696e206d656574272076696577426f783d273020302033353020333530273e3c7374796c653e2e62617365207b2066696c6c3a20626c61636b3b20666f6e742d66616d696c793a20496e7465723b20666f6e742d73697a653a20313470783b207d3c2f7374796c653e3c726563742077696474683d273130302527206865696768743d2731303025272066696c6c3d27776869746527202f3e3c7465787420783d273530252720793d273530252720636c6173733d27626173652720646f6d696e616e742d626173656c696e653d276d6964646c652720746578742d616e63686f723d276d6964646c65273ea264697066735822122040cc90ea43b4970aa139a39eaf2e7232d569469ee2efb416b95427309148f19464736f6c63430008040033",
	"linkReferences": {},
	"deployedLinkReferences": {}
}